{
  "contractName": "Kupovine",
  "abi": [
    {
      "constant": true,
      "inputs": [],
      "name": "brojKupovina",
      "outputs": [
        {
          "internalType": "int256",
          "name": "",
          "type": "int256"
        }
      ],
      "payable": false,
      "stateMutability": "view",
      "type": "function"
    },
    {
      "constant": true,
      "inputs": [
        {
          "internalType": "int256",
          "name": "",
          "type": "int256"
        }
      ],
      "name": "kupovine",
      "outputs": [
        {
          "internalType": "int256",
          "name": "id",
          "type": "int256"
        },
        {
          "internalType": "int256",
          "name": "idProdavca",
          "type": "int256"
        },
        {
          "internalType": "int256",
          "name": "idKupca",
          "type": "int256"
        },
        {
          "internalType": "int256",
          "name": "idProizvoda",
          "type": "int256"
        },
        {
          "internalType": "int256",
          "name": "kolicina",
          "type": "int256"
        }
      ],
      "payable": false,
      "stateMutability": "view",
      "type": "function"
    },
    {
      "constant": false,
      "inputs": [
        {
          "internalType": "int256",
          "name": "_idProdavca",
          "type": "int256"
        },
        {
          "internalType": "int256",
          "name": "_idKupca",
          "type": "int256"
        },
        {
          "internalType": "int256",
          "name": "_idProizvoda",
          "type": "int256"
        },
        {
          "internalType": "int256",
          "name": "_kolicina",
          "type": "int256"
        }
      ],
      "name": "dodajKupovinu",
      "outputs": [],
      "payable": false,
      "stateMutability": "nonpayable",
      "type": "function"
    },
    {
      "constant": true,
      "inputs": [
        {
          "internalType": "int256",
          "name": "_idKupca",
          "type": "int256"
        },
        {
          "internalType": "int256",
          "name": "_idProdavca",
          "type": "int256"
        },
        {
          "internalType": "int256",
          "name": "_idProizvoda",
          "type": "int256"
        }
      ],
      "name": "daLiPostojiKupovina",
      "outputs": [
        {
          "internalType": "int256",
          "name": "",
          "type": "int256"
        }
      ],
      "payable": false,
      "stateMutability": "view",
      "type": "function"
    }
  ],
  "bytecode": "0x60806040526000805534801561001457600080fd5b506102fd806100246000396000f3fe608060405234801561001057600080fd5b506004361061004c5760003560e01c806357e4d01414610051578063ae1abfc01461009d578063c8a6e86b146100f3578063e272e8d414610111575b600080fd5b61009b6004803603608081101561006757600080fd5b810190808035906020019092919080359060200190929190803590602001909291908035906020019092919050505061016f565b005b6100dd600480360360608110156100b357600080fd5b810190808035906020019092919080359060200190929190803590602001909291905050506101f8565b6040518082815260200191505060405180910390f35b6100fb61028c565b6040518082815260200191505060405180910390f35b61013d6004803603602081101561012757600080fd5b8101908080359060200190929190505050610292565b604051808681526020018581526020018481526020018381526020018281526020019550505050505060405180910390f35b60008081548092919060010191905055506040518060a001604052806000548152602001858152602001848152602001838152602001828152506001600080548152602001908152602001600020600082015181600001556020820151816001015560408201518160020155606082015181600301556080820151816004015590505050505050565b600080600190505b600054811361027f576001600082815260200190815260200160002060020154851480156102435750600160008281526020019081526020016000206001015484145b80156102645750600160008281526020019081526020016000206003015483145b156102725780915050610285565b8080600101915050610200565b50600090505b9392505050565b60005481565b6001602052806000526040600020600091509050806000015490806001015490806002015490806003015490806004015490508556fea265627a7a723158209b359474b8484d378284b281267057a03c2351f45c2ba0dcdaadd45f4b88a04864736f6c63430005100032",
  "source": "// SPDX-License-Identifier: MIT\r\npragma solidity >=0.4.22 <0.9.0;\r\n\r\ncontract Kupovine{\r\n\r\n    struct Kupovina\r\n    {\r\n        int id;\r\n        int idProdavca;\r\n        int idKupca;\r\n        int idProizvoda;\r\n        int kolicina;\r\n    }\r\n\r\n    int public brojKupovina = 0;\r\n\r\n    mapping (int => Kupovina) public kupovine;\r\n\r\n    function dodajKupovinu (int _idProdavca, int _idKupca, int _idProizvoda, int _kolicina) public \r\n    {\r\n        brojKupovina++;\r\n        kupovine[brojKupovina] = Kupovina(brojKupovina, _idProdavca, _idKupca, _idProizvoda, _kolicina);\r\n    }\r\n\r\n    //Pre davanja ocene, mora se proveriti da li postoji kupovina tog proizvoda od strane onog koji hoce da da ocenu\r\n    function daLiPostojiKupovina (int _idKupca, int _idProdavca, int _idProizvoda) public view returns (int)\r\n    {\r\n        for (int i = 1; i <= brojKupovina; i++) {\r\n            if(_idKupca == kupovine[i].idKupca && _idProdavca == kupovine[i].idProdavca && _idProizvoda == kupovine[i].idProizvoda)\r\n                return i;\r\n        }\r\n        return 0;\r\n    }\r\n\r\n\r\n}",
  "sourcePath": "C:/Users/beslac_lazar/Desktop/project_dev/ChainTech/App/frontend/app/contracts/Kupovine.sol",
  "compiler": {
    "name": "solc",
    "version": "0.5.16+commit.9c3226ce.Emscripten.clang"
  },
  "schemaVersion": "3.3.4",
  "updatedAt": "2021-05-02T00:02:52.976Z",
  "networkType": "ethereum",
  "devdoc": {
    "methods": {}
  },
  "userdoc": {
    "methods": {}
  }
}