{
  "contractName": "ListaZelja",
  "abi": [
    {
      "constant": true,
      "inputs": [
        {
          "internalType": "uint256",
          "name": "",
          "type": "uint256"
        }
      ],
      "name": "zelje",
      "outputs": [
        {
          "internalType": "uint256",
          "name": "brojZelja",
          "type": "uint256"
        }
      ],
      "payable": false,
      "stateMutability": "view",
      "type": "function"
    },
    {
      "constant": false,
      "inputs": [
        {
          "internalType": "uint256",
          "name": "idKorisnika",
          "type": "uint256"
        },
        {
          "internalType": "uint256",
          "name": "idProizvoda",
          "type": "uint256"
        }
      ],
      "name": "lajkovanje",
      "outputs": [],
      "payable": false,
      "stateMutability": "nonpayable",
      "type": "function"
    },
    {
      "constant": false,
      "inputs": [
        {
          "internalType": "uint256",
          "name": "idKorisnika",
          "type": "uint256"
        },
        {
          "internalType": "uint256",
          "name": "idProizvoda",
          "type": "uint256"
        }
      ],
      "name": "dislajkovanje",
      "outputs": [],
      "payable": false,
      "stateMutability": "nonpayable",
      "type": "function"
    },
    {
      "constant": true,
      "inputs": [
        {
          "internalType": "uint256",
          "name": "idKorisnika",
          "type": "uint256"
        }
      ],
      "name": "dajLajkove",
      "outputs": [
        {
          "internalType": "uint256[]",
          "name": "",
          "type": "uint256[]"
        }
      ],
      "payable": false,
      "stateMutability": "view",
      "type": "function"
    }
  ],
  "bytecode": "0x608060405234801561001057600080fd5b50610417806100206000396000f3fe608060405234801561001057600080fd5b506004361061004c5760003560e01c80631cf17260146100515780634519dd1f14610089578063670b04191461010c578063c39ae1d114610144575b600080fd5b6100876004803603604081101561006757600080fd5b810190808035906020019092919080359060200190929190505050610186565b005b6100b56004803603602081101561009f57600080fd5b81019080803590602001909291905050506102f0565b6040518080602001828103825283818151815260200191508051906020019060200280838360005b838110156100f85780820151818401526020810190506100dd565b505050509050019250505060405180910390f35b6101426004803603604081101561012257600080fd5b81019080803590602001909291908035906020019092919050505061035d565b005b6101706004803603602081101561015a57600080fd5b81019080803590602001909291905050506103c4565b6040518082815260200191505060405180910390f35b60008090505b600080848152602001908152602001600020600001548110156102ea578160008085815260200190815260200160002060010182815481106101ca57fe5b906000526020600020015414156102dd5760008190505b6001600080868152602001908152602001600020600001540381101561026a57600080858152602001908152602001600020600101600182018154811061022457fe5b9060005260206000200154600080868152602001908152602001600020600101828154811061024f57fe5b906000526020600020018190555080806001019150506101e1565b50600080600085815260200190815260200160002060010160016000808781526020019081526020016000206000015403815481106102a557fe5b9060005260206000200181905550600160008085815260200190815260200160002060000160008282540392505081905550506102ec565b808060010191505061018c565b505b5050565b606060008083815260200190815260200160002060010180548060200260200160405190810160405280929190818152602001828054801561035157602002820191906000526020600020905b81548152602001906001019080831161033d575b50505050509050919050565b6001600080848152602001908152602001600020600001600082825401925050819055506000808381526020019081526020016000206001018190806001815401808255809150509060018203906000526020600020016000909192909190915055505050565b6000602052806000526040600020600091509050806000015490508156fea265627a7a72315820904133c88687403b17fb076c3ae170ec69c0ae65cafb9729501c4494f2ce75ee64736f6c63430005100032",
  "source": "// SPDX-License-Identifier: MIT\r\npragma solidity >=0.4.22 <0.9.0;\r\n\r\ncontract ListaZelja {\r\n    \r\n    struct Zelja {\r\n        uint brojZelja;\r\n        uint[] p;\r\n    } \r\n    mapping ( uint => Zelja) public zelje;\r\n \r\n    function lajkovanje(uint idKorisnika, uint idProizvoda) public {\r\n        zelje[idKorisnika].brojZelja += 1;\r\n        zelje[idKorisnika].p.push(idProizvoda);\r\n    }\r\n \r\n    function dislajkovanje(uint idKorisnika, uint idProizvoda) public {\r\n        for(uint i = 0; i < zelje[idKorisnika].brojZelja; i++) {\r\n            if(zelje[idKorisnika].p[i] ==  idProizvoda) {\r\n                for(uint j = i; j < zelje[idKorisnika].brojZelja - 1; j++) {\r\n                    zelje[idKorisnika].p[j] = zelje[idKorisnika].p[j + 1];\r\n                }\r\n                zelje[idKorisnika].p[zelje[idKorisnika].brojZelja - 1] = 0;\r\n                zelje[idKorisnika].brojZelja -= 1;\r\n                return;\r\n            }\r\n        }\r\n    }\r\n\r\n    function dajLajkove(uint idKorisnika) public view returns(uint[] memory){\r\n        return zelje[idKorisnika].p;\r\n    }\r\n \r\n}",
  "sourcePath": "C:/Users/beslac_lazar/Desktop/project_dev/ChainTech/App/frontend/app/contracts/ListaZelja.sol",
  "compiler": {
    "name": "solc",
    "version": "0.5.16+commit.9c3226ce.Emscripten.clang"
  },
  "schemaVersion": "3.3.4",
  "updatedAt": "2021-05-02T00:02:54.566Z",
  "networkType": "ethereum",
  "devdoc": {
    "methods": {}
  },
  "userdoc": {
    "methods": {}
  }
}