{
  "contractName": "Proizvodi",
  "abi": [
    {
      "constant": true,
      "inputs": [],
      "name": "brojProizvoda",
      "outputs": [
        {
          "internalType": "uint256",
          "name": "",
          "type": "uint256"
        }
      ],
      "payable": false,
      "stateMutability": "view",
      "type": "function"
    },
    {
      "constant": true,
      "inputs": [
        {
          "internalType": "uint256",
          "name": "",
          "type": "uint256"
        }
      ],
      "name": "proizvodi",
      "outputs": [
        {
          "internalType": "uint256",
          "name": "id",
          "type": "uint256"
        },
        {
          "internalType": "uint256",
          "name": "idKorisnika",
          "type": "uint256"
        },
        {
          "internalType": "uint256",
          "name": "idKategorije",
          "type": "uint256"
        },
        {
          "internalType": "string",
          "name": "naziv",
          "type": "string"
        },
        {
          "internalType": "uint256",
          "name": "kolicina",
          "type": "uint256"
        },
        {
          "internalType": "uint256",
          "name": "cena",
          "type": "uint256"
        },
        {
          "internalType": "string",
          "name": "slika",
          "type": "string"
        },
        {
          "internalType": "string",
          "name": "opis",
          "type": "string"
        }
      ],
      "payable": false,
      "stateMutability": "view",
      "type": "function"
    },
    {
      "constant": false,
      "inputs": [
        {
          "internalType": "uint256",
          "name": "_idKorisnika",
          "type": "uint256"
        },
        {
          "internalType": "uint256",
          "name": "_idKategorije",
          "type": "uint256"
        },
        {
          "internalType": "string",
          "name": "_naziv",
          "type": "string"
        },
        {
          "internalType": "uint256",
          "name": "_kolicina",
          "type": "uint256"
        },
        {
          "internalType": "uint256",
          "name": "_cena",
          "type": "uint256"
        },
        {
          "internalType": "string",
          "name": "_slika",
          "type": "string"
        },
        {
          "internalType": "string",
          "name": "_opis",
          "type": "string"
        }
      ],
      "name": "dodajProizvod",
      "outputs": [],
      "payable": false,
      "stateMutability": "nonpayable",
      "type": "function"
    },
    {
      "constant": true,
      "inputs": [
        {
          "internalType": "uint256",
          "name": "korisnikID",
          "type": "uint256"
        }
      ],
      "name": "dajProizvodeZaKorisnika",
      "outputs": [
        {
          "internalType": "uint256[]",
          "name": "",
          "type": "uint256[]"
        }
      ],
      "payable": false,
      "stateMutability": "view",
      "type": "function"
    },
    {
      "constant": false,
      "inputs": [
        {
          "internalType": "uint256",
          "name": "_id",
          "type": "uint256"
        },
        {
          "internalType": "uint256",
          "name": "_promenaKolicine",
          "type": "uint256"
        }
      ],
      "name": "izmeniKolicinu",
      "outputs": [],
      "payable": false,
      "stateMutability": "nonpayable",
      "type": "function"
    },
    {
      "constant": false,
      "inputs": [
        {
          "internalType": "uint256",
          "name": "_id",
          "type": "uint256"
        }
      ],
      "name": "obrisiProizvod",
      "outputs": [],
      "payable": false,
      "stateMutability": "nonpayable",
      "type": "function"
    },
    {
      "constant": false,
      "inputs": [
        {
          "internalType": "string",
          "name": "substring",
          "type": "string"
        }
      ],
      "name": "search",
      "outputs": [
        {
          "internalType": "uint256[]",
          "name": "",
          "type": "uint256[]"
        }
      ],
      "payable": false,
      "stateMutability": "nonpayable",
      "type": "function"
    },
    {
      "constant": false,
      "inputs": [
        {
          "internalType": "uint256",
          "name": "donjaGranica",
          "type": "uint256"
        },
        {
          "internalType": "uint256",
          "name": "gornjaGranica",
          "type": "uint256"
        }
      ],
      "name": "odDo",
      "outputs": [
        {
          "internalType": "uint256[]",
          "name": "",
          "type": "uint256[]"
        }
      ],
      "payable": false,
      "stateMutability": "nonpayable",
      "type": "function"
    }
  ],
  "bytecode": "0x60806040526000805534801561001457600080fd5b5061118c806100246000396000f3fe608060405234801561001057600080fd5b50600436106100885760003560e01c80639943bbb01161005b5780639943bbb014610142578063b85f706e1461015e578063dc2dfc6a1461017a578063e610e3d3146101aa57610088565b80633ddd03161461008d578063820ed086146100bd57806386d318c6146100ed57806398f19cd014610124575b600080fd5b6100a760048036036100a29190810190610d3f565b6101c6565b6040516100b49190610f57565b60405180910390f35b6100d760048036036100d29190810190610cfe565b610231565b6040516100e49190610f57565b60405180910390f35b61010760048036036101029190810190610d3f565b610496565b60405161011b989796959493929190610f94565b60405180910390f35b61012c6106a6565b6040516101399190610f79565b60405180910390f35b61015c60048036036101579190810190610da4565b6106ac565b005b61017860048036036101739190810190610d3f565b6107e1565b005b610194600480360361018f9190810190610d68565b610a14565b6040516101a19190610f57565b60405180910390f35b6101c460048036036101bf9190810190610d68565b610aed565b005b60606002600083815260200190815260200160002080548060200260200160405190810160405280929190818152602001828054801561022557602002820191906000526020600020905b815481526020019060010190808311610211575b50505050509050919050565b606060008090506060600a60405190808252806020026020018201604052801561026a5781602001602082028038833980820191505090505b50905060608490506000600190505b600054811161045a576060600160008381526020019081526020016000206003018054600181600116156101000203166002900480601f01602080910402602001604051908101604052809291908181526020018280546001816001161561010002031660029004801561032e5780601f106103035761010080835404028352916020019161032e565b820191906000526020600020905b81548152906001019060200180831161031157829003601f168201915b50505050509050600080905060008090505b845183510381101561044a5760006001905060008090505b86518110156103f05786818151811061036d57fe5b602001015160f81c60f81b7effffffffffffffffffffffffffffffffffffffffffffffffffffffffffffff191685828501815181106103a857fe5b602001015160f81c60f81b7effffffffffffffffffffffffffffffffffffffffffffffffffffffffffffff1916146103e357600091506103f0565b8080600101915050610358565b50801561043c576001925060018801975060006001600087815260200190815260200160002060000154905080888a8151811061042957fe5b602002602001018181525050505061044a565b508080600101915050610340565b5050508080600101915050610279565b50600082511461046f57819350505050610491565b60008260008151811061047e57fe5b6020026020010181815250508193505050505b919050565b6001602052806000526040600020600091509050806000015490806001015490806002015490806003018054600181600116156101000203166002900480601f0160208091040260200160405190810160405280929190818152602001828054600181600116156101000203166002900480156105545780601f1061052957610100808354040283529160200191610554565b820191906000526020600020905b81548152906001019060200180831161053757829003601f168201915b505050505090806004015490806005015490806006018054600181600116156101000203166002900480601f0160208091040260200160405190810160405280929190818152602001828054600181600116156101000203166002900480156105fe5780601f106105d3576101008083540402835291602001916105fe565b820191906000526020600020905b8154815290600101906020018083116105e157829003601f168201915b505050505090806007018054600181600116156101000203166002900480601f01602080910402602001604051908101604052809291908181526020018280546001816001161561010002031660029004801561069c5780601f106106715761010080835404028352916020019161069c565b820191906000526020600020905b81548152906001019060200180831161067f57829003601f168201915b5050505050905088565b60005481565b600080815480929190600101919050555060405180610100016040528060005481526020018881526020018781526020018681526020018581526020018481526020018381526020018281525060016000805481526020019081526020016000206000820151816000015560208201518160010155604082015181600201556060820151816003019080519060200190610747929190610b24565b506080820151816004015560a0820151816005015560c0820151816006019080519060200190610778929190610b24565b5060e0820151816007019080519060200190610795929190610b24565b5090505060026000888152602001908152602001600020600054908060018154018082558091505090600182039060005260206000200160009091929091909150555050505050505050565b60016000828152602001908152602001600020600001546001600080548152602001908152602001600020600001819055506001600080548152602001908152602001600020600160008381526020019081526020016000206000820154816000015560018201548160010155600282015481600201556003820181600301908054600181600116156101000203166002900461087f929190610ba4565b506004820154816004015560058201548160050155600682018160060190805460018160011615610100020316600290046108bb929190610ba4565b50600782018160070190805460018160011615610100020316600290046108e3929190610ba4565b509050506108ef610c2b565b604051806101000160405280600081526020016000815260200160008152602001604051806020016040528060008152508152602001600081526020016000815260200160405180602001604052806000815250815260200160405180602001604052806000815250815250905080600160008054815260200190815260200160002060008201518160000155602082015181600101556040820151816002015560608201518160030190805190602001906109ac929190610b24565b506080820151816004015560a0820151816005015560c08201518160060190805190602001906109dd929190610b24565b5060e08201518160070190805190602001906109fa929190610b24565b509050506000808154809291906001900391905055505050565b606080600a604051908082528060200260200182016040528015610a475781602001602082028038833980820191505090505b509050600080905060008090505b600054811015610ae157856001600083815260200190815260200160002060050154118015610a995750846001600083815260200190815260200160002060050154105b15610ad4576001820191506001600082815260200190815260200160002060000154838381518110610ac757fe5b6020026020010181815250505b8080600101915050610a55565b50819250505092915050565b8060016000848152602001908152602001600020600401540160016000848152602001908152602001600020600401819055505050565b828054600181600116156101000203166002900490600052602060002090601f016020900481019282601f10610b6557805160ff1916838001178555610b93565b82800160010185558215610b93579182015b82811115610b92578251825591602001919060010190610b77565b5b509050610ba09190610c70565b5090565b828054600181600116156101000203166002900490600052602060002090601f016020900481019282601f10610bdd5780548555610c1a565b82800160010185558215610c1a57600052602060002091601f016020900482015b82811115610c19578254825591600101919060010190610bfe565b5b509050610c279190610c70565b5090565b60405180610100016040528060008152602001600081526020016000815260200160608152602001600081526020016000815260200160608152602001606081525090565b610c9291905b80821115610c8e576000816000905550600101610c76565b5090565b90565b600082601f830112610ca657600080fd5b8135610cb9610cb482611054565b611027565b91508082526020830160208301858383011115610cd557600080fd5b610ce08382846110df565b50505092915050565b600081359050610cf881611132565b92915050565b600060208284031215610d1057600080fd5b600082013567ffffffffffffffff811115610d2a57600080fd5b610d3684828501610c95565b91505092915050565b600060208284031215610d5157600080fd5b6000610d5f84828501610ce9565b91505092915050565b60008060408385031215610d7b57600080fd5b6000610d8985828601610ce9565b9250506020610d9a85828601610ce9565b9150509250929050565b600080600080600080600060e0888a031215610dbf57600080fd5b6000610dcd8a828b01610ce9565b9750506020610dde8a828b01610ce9565b965050604088013567ffffffffffffffff811115610dfb57600080fd5b610e078a828b01610c95565b9550506060610e188a828b01610ce9565b9450506080610e298a828b01610ce9565b93505060a088013567ffffffffffffffff811115610e4657600080fd5b610e528a828b01610c95565b92505060c088013567ffffffffffffffff811115610e6f57600080fd5b610e7b8a828b01610c95565b91505092959891949750929550565b6000610e968383610f39565b60208301905092915050565b6000610ead82611090565b610eb781856110b3565b9350610ec283611080565b8060005b83811015610ef3578151610eda8882610e8a565b9750610ee5836110a6565b925050600181019050610ec6565b5085935050505092915050565b6000610f0b8261109b565b610f1581856110c4565b9350610f258185602086016110ee565b610f2e81611121565b840191505092915050565b610f42816110d5565b82525050565b610f51816110d5565b82525050565b60006020820190508181036000830152610f718184610ea2565b905092915050565b6000602082019050610f8e6000830184610f48565b92915050565b600061010082019050610faa600083018b610f48565b610fb7602083018a610f48565b610fc46040830189610f48565b8181036060830152610fd68188610f00565b9050610fe56080830187610f48565b610ff260a0830186610f48565b81810360c08301526110048185610f00565b905081810360e08301526110188184610f00565b90509998505050505050505050565b6000604051905081810181811067ffffffffffffffff8211171561104a57600080fd5b8060405250919050565b600067ffffffffffffffff82111561106b57600080fd5b601f19601f8301169050602081019050919050565b6000819050602082019050919050565b600081519050919050565b600081519050919050565b6000602082019050919050565b600082825260208201905092915050565b600082825260208201905092915050565b6000819050919050565b82818337600083830152505050565b60005b8381101561110c5780820151818401526020810190506110f1565b8381111561111b576000848401525b50505050565b6000601f19601f8301169050919050565b61113b816110d5565b811461114657600080fd5b5056fea365627a7a72315820268bead9fdc6c515a14ad68a70692d99b53293320dc17dc40bb78fd33e0af0aa6c6578706572696d656e74616cf564736f6c63430005100040",
  "source": "// SPDX-License-Identifier: MIT\r\npragma solidity >=0.4.22 <0.9.0;\r\npragma experimental ABIEncoderV2;\r\n\r\ncontract Proizvodi{\r\n\r\n    struct Proizvod{\r\n        uint id;\r\n        uint idKorisnika;\r\n        uint idKategorije;\r\n        string naziv;\r\n        uint kolicina;\r\n        uint cena;\r\n        string slika;\r\n\t    string opis;\r\n    }\r\n\r\n    uint public brojProizvoda = 0;\r\n\r\n    mapping (uint => Proizvod) public proizvodi;\r\n    mapping (uint => uint[]) proizvodiKorisnika;\r\n\r\n    function dodajProizvod(uint _idKorisnika, uint _idKategorije, string memory _naziv, uint _kolicina, uint _cena, string memory _slika, string memory _opis) public\r\n    {\r\n        brojProizvoda++;\r\n        proizvodi[brojProizvoda] = Proizvod(brojProizvoda, _idKorisnika, _idKategorije, _naziv, _kolicina, _cena, _slika, _opis);\r\n        proizvodiKorisnika[_idKorisnika].push(brojProizvoda);\r\n    }\r\n\r\n    function dajProizvodeZaKorisnika(uint korisnikID) view public returns(uint[] memory) {\r\n        return proizvodiKorisnika[korisnikID];\r\n    }\r\n\r\n    function izmeniKolicinu(uint _id, uint _promenaKolicine) public\r\n    {\r\n        proizvodi[_id].kolicina = proizvodi[_id].kolicina + _promenaKolicine;\r\n    }\r\n\r\n    function obrisiProizvod (uint _id) public\r\n    {\r\n        proizvodi[brojProizvoda].id = proizvodi[_id].id;\r\n        proizvodi[_id] = proizvodi[brojProizvoda];\r\n        Proizvod memory p = Proizvod(0, 0, 0, \"\", 0, 0, \"\", \"\");\r\n        proizvodi[brojProizvoda] = p;\r\n        brojProizvoda--;\r\n    }\r\n    \r\n    \r\n    \r\n    function search(string memory substring) public returns(uint[] memory) {\r\n\r\n        uint duzina = 0;\r\n\r\n        uint[] memory arr = new uint[] (10);\r\n        \r\n        bytes memory whatBytes = bytes (substring);\r\n\r\n        for (uint i = 1; i <= brojProizvoda; i++) {\r\n            bytes memory whereBytes = bytes (proizvodi[i].naziv);\r\n\r\n            bool found = false;\r\n            for (uint j = 0; j < (whereBytes.length - whatBytes.length); j++) {\r\n                bool flag = true;\r\n                for (uint k = 0; k < whatBytes.length; k++)\r\n                    if(whereBytes [j + k] != whatBytes[k]) {\r\n                        flag = false;\r\n                        break;\r\n                    }\r\n                \r\n                if(flag) {\r\n                    found = true;\r\n                    duzina = duzina +1;\r\n                    uint pomId = proizvodi[i].id;\r\n                    arr[duzina] = pomId; \r\n                    break;\r\n                }\r\n            }\r\n        }\r\n        if(arr.length != 0)\r\n            return arr;\r\n        else\r\n        {\r\n            arr[0] = 0;\r\n            return arr;\r\n        }\r\n    }\r\n\r\n    /*\r\n    function sortiranjePoCeniRastuce() public returns (uint [] memory)\r\n    {\r\n        uint duzina = brojProizvoda;\r\n        uint[] memory niz = new uint[] (duzina);\r\n        uint[] memory nizID = new uint[] (duzina);\r\n\r\n        for(uint i=0;i<duzina;i++)\r\n        {\r\n            niz[i] = proizvodi[i].cena;\r\n            nizID[i] = proizvodi[i].id;\r\n        }\r\n\r\n        for(uint i =0;i<duzina;i++)\r\n        {\r\n            for(uint j =i+1;j<duzina;j++)\r\n            {\r\n                if(niz[i]<niz[j])\r\n                {\r\n                    uint temp= niz[j];\r\n                    niz[j] = niz[i];\r\n                    niz[i] = temp;\r\n\r\n                    temp = nizID[j];\r\n                    nizID[j] = nizID[i];\r\n                    nizID[i] = temp;\r\n                }\r\n\r\n            }\r\n        }\r\n\r\n        return nizID;\r\n    }\r\n    */\r\n\r\n    function odDo(uint donjaGranica, uint gornjaGranica) public returns (uint[] memory)\r\n    {\r\n        uint[] memory produkti = new uint[] (10);\r\n        uint br = 0;\r\n\r\n        for(uint i = 0; i < brojProizvoda; i++)\r\n        {\r\n            if(proizvodi[i].cena > donjaGranica && proizvodi[i].cena < gornjaGranica)\r\n            {\r\n                br = br + 1;\r\n                produkti[br] = proizvodi[i].id;\r\n            }\r\n        }\r\n        return produkti;\r\n    }\r\n}",
  "sourcePath": "C:/Users/beslac_lazar/Desktop/project_dev/ChainTech/App/frontend/app/contracts/Proizvodi.sol",
  "compiler": {
    "name": "solc",
    "version": "0.5.16+commit.9c3226ce.Emscripten.clang"
  },
  "schemaVersion": "3.3.4",
  "updatedAt": "2021-04-29T14:12:24.613Z",
  "networkType": "ethereum",
  "devdoc": {
    "methods": {}
  },
  "userdoc": {
    "methods": {}
  }
}