{
  "contractName": "Proizvodi",
  "abi": [
    {
      "constant": true,
      "inputs": [],
      "name": "brojProizvoda",
      "outputs": [
        {
          "internalType": "uint256",
          "name": "",
          "type": "uint256"
        }
      ],
      "payable": false,
      "stateMutability": "view",
      "type": "function"
    },
    {
      "constant": true,
      "inputs": [
        {
          "internalType": "uint256",
          "name": "",
          "type": "uint256"
        }
      ],
      "name": "proizvodi",
      "outputs": [
        {
          "internalType": "uint256",
          "name": "id",
          "type": "uint256"
        },
        {
          "internalType": "uint256",
          "name": "idKorisnika",
          "type": "uint256"
        },
        {
          "internalType": "uint256",
          "name": "idKategorije",
          "type": "uint256"
        },
        {
          "internalType": "string",
          "name": "naziv",
          "type": "string"
        },
        {
          "internalType": "uint256",
          "name": "kolicina",
          "type": "uint256"
        },
        {
          "internalType": "uint256",
          "name": "cena",
          "type": "uint256"
        },
        {
          "internalType": "string",
          "name": "slika",
          "type": "string"
        },
        {
          "internalType": "string",
          "name": "opis",
          "type": "string"
        }
      ],
      "payable": false,
      "stateMutability": "view",
      "type": "function"
    },
    {
      "constant": false,
      "inputs": [
        {
          "internalType": "uint256",
          "name": "_idKorisnika",
          "type": "uint256"
        },
        {
          "internalType": "uint256",
          "name": "_idKategorije",
          "type": "uint256"
        },
        {
          "internalType": "string",
          "name": "_naziv",
          "type": "string"
        },
        {
          "internalType": "uint256",
          "name": "_kolicina",
          "type": "uint256"
        },
        {
          "internalType": "uint256",
          "name": "_cena",
          "type": "uint256"
        },
        {
          "internalType": "string",
          "name": "_slika",
          "type": "string"
        },
        {
          "internalType": "string",
          "name": "_opis",
          "type": "string"
        }
      ],
      "name": "dodajProizvod",
      "outputs": [],
      "payable": false,
      "stateMutability": "nonpayable",
      "type": "function"
    },
    {
      "constant": true,
      "inputs": [
        {
          "internalType": "uint256",
          "name": "korisnikID",
          "type": "uint256"
        }
      ],
      "name": "dajProizvodeZaKorisnika",
      "outputs": [
        {
          "internalType": "uint256[]",
          "name": "",
          "type": "uint256[]"
        }
      ],
      "payable": false,
      "stateMutability": "view",
      "type": "function"
    },
    {
      "constant": false,
      "inputs": [
        {
          "internalType": "uint256",
          "name": "_id",
          "type": "uint256"
        },
        {
          "internalType": "uint256",
          "name": "_promenaKolicine",
          "type": "uint256"
        }
      ],
      "name": "izmeniKolicinu",
      "outputs": [],
      "payable": false,
      "stateMutability": "nonpayable",
      "type": "function"
    },
    {
      "constant": false,
      "inputs": [
        {
          "internalType": "uint256",
          "name": "_id",
          "type": "uint256"
        }
      ],
      "name": "obrisiProizvod",
      "outputs": [],
      "payable": false,
      "stateMutability": "nonpayable",
      "type": "function"
    },
    {
      "constant": false,
      "inputs": [
        {
          "internalType": "string",
          "name": "substring",
          "type": "string"
        }
      ],
      "name": "search",
      "outputs": [
        {
          "internalType": "uint256[]",
          "name": "",
          "type": "uint256[]"
        }
      ],
      "payable": false,
      "stateMutability": "nonpayable",
      "type": "function"
    },
    {
      "constant": false,
      "inputs": [
        {
          "internalType": "uint256",
          "name": "_brojStrane",
          "type": "uint256"
        },
        {
          "internalType": "uint256",
          "name": "_brojProizvodaPoStrani",
          "type": "uint256"
        }
      ],
      "name": "pagination",
      "outputs": [
        {
          "internalType": "uint256[]",
          "name": "",
          "type": "uint256[]"
        }
      ],
      "payable": false,
      "stateMutability": "nonpayable",
      "type": "function"
    },
    {
      "constant": false,
      "inputs": [],
      "name": "sortiranjePoCeniRastuce",
      "outputs": [
        {
          "internalType": "uint256[]",
          "name": "",
          "type": "uint256[]"
        }
      ],
      "payable": false,
      "stateMutability": "nonpayable",
      "type": "function"
    },
    {
      "constant": false,
      "inputs": [
        {
          "internalType": "uint256",
          "name": "donjaGranica",
          "type": "uint256"
        },
        {
          "internalType": "uint256",
          "name": "gornjaGranica",
          "type": "uint256"
        }
      ],
      "name": "odDo",
      "outputs": [
        {
          "internalType": "uint256[]",
          "name": "",
          "type": "uint256[]"
        }
      ],
      "payable": false,
      "stateMutability": "nonpayable",
      "type": "function"
    }
  ],
  "bytecode": "0x60806040526000805534801561001457600080fd5b5061148d806100246000396000f3fe608060405234801561001057600080fd5b506004361061009e5760003560e01c80639943bbb0116100665780639943bbb014610188578063b85f706e146101a4578063dc2dfc6a146101c0578063dda5de2d146101f0578063e610e3d31461020e5761009e565b806337b7bfdb146100a35780633ddd0316146100d3578063820ed0861461010357806386d318c61461013357806398f19cd01461016a575b600080fd5b6100bd60048036036100b89190810190611069565b61022a565b6040516100ca9190611258565b60405180910390f35b6100ed60048036036100e89190810190611040565b6102c0565b6040516100fa9190611258565b60405180910390f35b61011d60048036036101189190810190610fff565b61032b565b60405161012a9190611258565b60405180910390f35b61014d60048036036101489190810190611040565b610590565b604051610161989796959493929190611295565b60405180910390f35b6101726107a0565b60405161017f919061127a565b60405180910390f35b6101a2600480360361019d91908101906110a5565b6107a6565b005b6101be60048036036101b99190810190611040565b6108db565b005b6101da60048036036101d59190810190611069565b610b0e565b6040516101e79190611258565b60405180910390f35b6101f8610be7565b6040516102059190611258565b60405180910390f35b61022860048036036102239190810190611069565b610dfd565b005b6060808260405190808252806020026020018201604052801561025c5781602001602082028038833980820191505090505b5090506000838585020390505b8484028110156102b5576000600160008381526020019081526020016000206000015490508083838151811061029b57fe5b602002602001018181525050508080600101915050610269565b508091505092915050565b60606002600083815260200190815260200160002080548060200260200160405190810160405280929190818152602001828054801561031f57602002820191906000526020600020905b81548152602001906001019080831161030b575b50505050509050919050565b606060008090506060600a6040519080825280602002602001820160405280156103645781602001602082028038833980820191505090505b50905060608490506000600190505b6000548111610554576060600160008381526020019081526020016000206003018054600181600116156101000203166002900480601f0160208091040260200160405190810160405280929190818152602001828054600181600116156101000203166002900480156104285780601f106103fd57610100808354040283529160200191610428565b820191906000526020600020905b81548152906001019060200180831161040b57829003601f168201915b50505050509050600080905060008090505b84518351038110156105445760006001905060008090505b86518110156104ea5786818151811061046757fe5b602001015160f81c60f81b7effffffffffffffffffffffffffffffffffffffffffffffffffffffffffffff191685828501815181106104a257fe5b602001015160f81c60f81b7effffffffffffffffffffffffffffffffffffffffffffffffffffffffffffff1916146104dd57600091506104ea565b8080600101915050610452565b508015610536576001925060018801975060006001600087815260200190815260200160002060000154905080888a8151811061052357fe5b6020026020010181815250505050610544565b50808060010191505061043a565b5050508080600101915050610373565b5060008251146105695781935050505061058b565b60008260008151811061057857fe5b6020026020010181815250508193505050505b919050565b6001602052806000526040600020600091509050806000015490806001015490806002015490806003018054600181600116156101000203166002900480601f01602080910402602001604051908101604052809291908181526020018280546001816001161561010002031660029004801561064e5780601f106106235761010080835404028352916020019161064e565b820191906000526020600020905b81548152906001019060200180831161063157829003601f168201915b505050505090806004015490806005015490806006018054600181600116156101000203166002900480601f0160208091040260200160405190810160405280929190818152602001828054600181600116156101000203166002900480156106f85780601f106106cd576101008083540402835291602001916106f8565b820191906000526020600020905b8154815290600101906020018083116106db57829003601f168201915b505050505090806007018054600181600116156101000203166002900480601f0160208091040260200160405190810160405280929190818152602001828054600181600116156101000203166002900480156107965780601f1061076b57610100808354040283529160200191610796565b820191906000526020600020905b81548152906001019060200180831161077957829003601f168201915b5050505050905088565b60005481565b600080815480929190600101919050555060405180610100016040528060005481526020018881526020018781526020018681526020018581526020018481526020018381526020018281525060016000805481526020019081526020016000206000820151816000015560208201518160010155604082015181600201556060820151816003019080519060200190610841929190610e25565b506080820151816004015560a0820151816005015560c0820151816006019080519060200190610872929190610e25565b5060e082015181600701908051906020019061088f929190610e25565b5090505060026000888152602001908152602001600020600054908060018154018082558091505090600182039060005260206000200160009091929091909150555050505050505050565b600160008281526020019081526020016000206000015460016000805481526020019081526020016000206000018190555060016000805481526020019081526020016000206001600083815260200190815260200160002060008201548160000155600182015481600101556002820154816002015560038201816003019080546001816001161561010002031660029004610979929190610ea5565b506004820154816004015560058201548160050155600682018160060190805460018160011615610100020316600290046109b5929190610ea5565b50600782018160070190805460018160011615610100020316600290046109dd929190610ea5565b509050506109e9610f2c565b60405180610100016040528060008152602001600081526020016000815260200160405180602001604052806000815250815260200160008152602001600081526020016040518060200160405280600081525081526020016040518060200160405280600081525081525090508060016000805481526020019081526020016000206000820151816000015560208201518160010155604082015181600201556060820151816003019080519060200190610aa6929190610e25565b506080820151816004015560a0820151816005015560c0820151816006019080519060200190610ad7929190610e25565b5060e0820151816007019080519060200190610af4929190610e25565b509050506000808154809291906001900391905055505050565b606080600a604051908082528060200260200182016040528015610b415781602001602082028038833980820191505090505b509050600080905060008090505b600054811015610bdb57856001600083815260200190815260200160002060050154118015610b935750846001600083815260200190815260200160002060050154105b15610bce576001820191506001600082815260200190815260200160002060000154838381518110610bc157fe5b6020026020010181815250505b8080600101915050610b4f565b50819250505092915050565b6060600080549050606081604051908082528060200260200182016040528015610c205781602001602082028038833980820191505090505b509050606082604051908082528060200260200182016040528015610c545781602001602082028038833980820191505090505b50905060008090505b83811015610cd0576001600082815260200190815260200160002060050154838281518110610c8857fe5b6020026020010181815250506001600082815260200190815260200160002060000154828281518110610cb757fe5b6020026020010181815250508080600101915050610c5d565b5060008090505b83811015610df35760006001820190505b84811015610de557838181518110610cfc57fe5b6020026020010151848381518110610d1057fe5b60200260200101511015610dd8576000848281518110610d2c57fe5b60200260200101519050848381518110610d4257fe5b6020026020010151858381518110610d5657fe5b60200260200101818152505080858481518110610d6f57fe5b602002602001018181525050838281518110610d8757fe5b60200260200101519050838381518110610d9d57fe5b6020026020010151848381518110610db157fe5b60200260200101818152505080848481518110610dca57fe5b602002602001018181525050505b8080600101915050610ce8565b508080600101915050610cd7565b5080935050505090565b8060016000848152602001908152602001600020600401600082825401925050819055505050565b828054600181600116156101000203166002900490600052602060002090601f016020900481019282601f10610e6657805160ff1916838001178555610e94565b82800160010185558215610e94579182015b82811115610e93578251825591602001919060010190610e78565b5b509050610ea19190610f71565b5090565b828054600181600116156101000203166002900490600052602060002090601f016020900481019282601f10610ede5780548555610f1b565b82800160010185558215610f1b57600052602060002091601f016020900482015b82811115610f1a578254825591600101919060010190610eff565b5b509050610f289190610f71565b5090565b60405180610100016040528060008152602001600081526020016000815260200160608152602001600081526020016000815260200160608152602001606081525090565b610f9391905b80821115610f8f576000816000905550600101610f77565b5090565b90565b600082601f830112610fa757600080fd5b8135610fba610fb582611355565b611328565b91508082526020830160208301858383011115610fd657600080fd5b610fe18382846113e0565b50505092915050565b600081359050610ff981611433565b92915050565b60006020828403121561101157600080fd5b600082013567ffffffffffffffff81111561102b57600080fd5b61103784828501610f96565b91505092915050565b60006020828403121561105257600080fd5b600061106084828501610fea565b91505092915050565b6000806040838503121561107c57600080fd5b600061108a85828601610fea565b925050602061109b85828601610fea565b9150509250929050565b600080600080600080600060e0888a0312156110c057600080fd5b60006110ce8a828b01610fea565b97505060206110df8a828b01610fea565b965050604088013567ffffffffffffffff8111156110fc57600080fd5b6111088a828b01610f96565b95505060606111198a828b01610fea565b945050608061112a8a828b01610fea565b93505060a088013567ffffffffffffffff81111561114757600080fd5b6111538a828b01610f96565b92505060c088013567ffffffffffffffff81111561117057600080fd5b61117c8a828b01610f96565b91505092959891949750929550565b6000611197838361123a565b60208301905092915050565b60006111ae82611391565b6111b881856113b4565b93506111c383611381565b8060005b838110156111f45781516111db888261118b565b97506111e6836113a7565b9250506001810190506111c7565b5085935050505092915050565b600061120c8261139c565b61121681856113c5565b93506112268185602086016113ef565b61122f81611422565b840191505092915050565b611243816113d6565b82525050565b611252816113d6565b82525050565b6000602082019050818103600083015261127281846111a3565b905092915050565b600060208201905061128f6000830184611249565b92915050565b6000610100820190506112ab600083018b611249565b6112b8602083018a611249565b6112c56040830189611249565b81810360608301526112d78188611201565b90506112e66080830187611249565b6112f360a0830186611249565b81810360c08301526113058185611201565b905081810360e08301526113198184611201565b90509998505050505050505050565b6000604051905081810181811067ffffffffffffffff8211171561134b57600080fd5b8060405250919050565b600067ffffffffffffffff82111561136c57600080fd5b601f19601f8301169050602081019050919050565b6000819050602082019050919050565b600081519050919050565b600081519050919050565b6000602082019050919050565b600082825260208201905092915050565b600082825260208201905092915050565b6000819050919050565b82818337600083830152505050565b60005b8381101561140d5780820151818401526020810190506113f2565b8381111561141c576000848401525b50505050565b6000601f19601f8301169050919050565b61143c816113d6565b811461144757600080fd5b5056fea365627a7a72315820c592236d4d3841fa02b4297d0db5c1d0a44798da5ee4da8373e5735d9d9367fe6c6578706572696d656e74616cf564736f6c63430005100040",
  "source": "// SPDX-License-Identifier: MIT\r\npragma solidity >=0.4.22 <0.9.0;\r\npragma experimental ABIEncoderV2;\r\n\r\ncontract Proizvodi{\r\n\r\n    struct Proizvod{\r\n        uint id;\r\n        uint idKorisnika;\r\n        uint idKategorije;\r\n        string naziv;\r\n        uint kolicina;\r\n        uint cena;\r\n        string slika;\r\n\t    string opis;\r\n    }\r\n\r\n    uint public brojProizvoda = 0;\r\n\r\n    mapping (uint => Proizvod) public proizvodi;\r\n    mapping (uint => uint[]) proizvodiKorisnika;\r\n\r\n    function dodajProizvod(uint _idKorisnika, uint _idKategorije, string memory _naziv, uint _kolicina, uint _cena, string memory _slika, string memory _opis) public\r\n    {\r\n        brojProizvoda++;\r\n        proizvodi[brojProizvoda] = Proizvod(brojProizvoda, _idKorisnika, _idKategorije, _naziv, _kolicina, _cena, _slika, _opis);\r\n        proizvodiKorisnika[_idKorisnika].push(brojProizvoda);\r\n    }\r\n\r\n    function dajProizvodeZaKorisnika(uint korisnikID) view public returns(uint[] memory) {\r\n        return proizvodiKorisnika[korisnikID];\r\n    }\r\n\r\n    function izmeniKolicinu(uint _id, uint _promenaKolicine) public\r\n    {\r\n        proizvodi[_id].kolicina += _promenaKolicine;\r\n    }\r\n\r\n    function obrisiProizvod (uint _id) public\r\n    {\r\n        proizvodi[brojProizvoda].id = proizvodi[_id].id;\r\n        proizvodi[_id] = proizvodi[brojProizvoda];\r\n        Proizvod memory p = Proizvod(0, 0, 0, \"\", 0, 0, \"\", \"\");\r\n        proizvodi[brojProizvoda] = p;\r\n        brojProizvoda--;\r\n    }\r\n    \r\n    \r\n    \r\n    function search(string memory substring) public returns(uint[] memory) {\r\n\r\n        uint duzina = 0;\r\n\r\n        uint[] memory arr = new uint[] (10);\r\n        \r\n        bytes memory whatBytes = bytes (substring);\r\n\r\n        for (uint i = 1; i <= brojProizvoda; i++) {\r\n            bytes memory whereBytes = bytes (proizvodi[i].naziv);\r\n\r\n            bool found = false;\r\n            for (uint j = 0; j < (whereBytes.length - whatBytes.length); j++) {\r\n                bool flag = true;\r\n                for (uint k = 0; k < whatBytes.length; k++)\r\n                    if(whereBytes [j + k] != whatBytes[k]) {\r\n                        flag = false;\r\n                        break;\r\n                    }\r\n                \r\n                if(flag) {\r\n                    found = true;\r\n                    duzina = duzina +1;\r\n                    uint pomId = proizvodi[i].id;\r\n                    arr[duzina] = pomId; \r\n                    break;\r\n                }\r\n            }\r\n        }\r\n        if(arr.length != 0)\r\n            return arr;\r\n        else\r\n        {\r\n            arr[0] = 0;\r\n            return arr;\r\n        }\r\n    }\r\n\r\n\r\n    //Funkcija vraca ID-jeve proizvoda ciji je redni broj u odredjenim granicama\r\n    //Koristice se tako sto ce se brojProizvodaPoStrani staviti na primer na 10\r\n    //a broj strane na 1, rezultat ce biti prvih 10 proizvoda\r\n    //broj strane 2, drugih 10 proizvoda\r\n    \r\n\r\n    function pagination(uint _brojStrane, uint _brojProizvodaPoStrani) public returns (uint[] memory) \r\n    {\r\n\r\n        uint[] memory produkti = new uint[] (_brojProizvodaPoStrani);\r\n\r\n        for(uint i = _brojProizvodaPoStrani * _brojStrane - _brojProizvodaPoStrani; i < _brojProizvodaPoStrani * _brojStrane; i++ ){\r\n            uint idProizvoda = proizvodi[i].id;\r\n            produkti[i] = idProizvoda;\r\n        } \r\n        return produkti;\r\n    }\r\n\r\n    function sortiranjePoCeniRastuce() public returns (uint [] memory)\r\n    {\r\n        uint duzina = brojProizvoda;\r\n        uint[] memory niz = new uint[] (duzina);\r\n        uint[] memory nizID = new uint[] (duzina);\r\n\r\n        for(uint i=0;i<duzina;i++)\r\n        {\r\n            niz[i] = proizvodi[i].cena;\r\n            nizID[i] = proizvodi[i].id;\r\n        }\r\n\r\n        for(uint i =0;i<duzina;i++)\r\n        {\r\n            for(uint j =i+1;j<duzina;j++)\r\n            {\r\n                if(niz[i]<niz[j])\r\n                {\r\n                    uint temp= niz[j];\r\n                    niz[j] = niz[i];\r\n                    niz[i] = temp;\r\n\r\n                    temp = nizID[j];\r\n                    nizID[j] = nizID[i];\r\n                    nizID[i] = temp;\r\n                }\r\n\r\n            }\r\n        }\r\n\r\n        return nizID;\r\n    }\r\n\r\n    function odDo(uint donjaGranica, uint gornjaGranica) public returns (uint[] memory)\r\n    {\r\n        uint[] memory produkti = new uint[] (10);\r\n        uint br = 0;\r\n\r\n        for(uint i = 0; i < brojProizvoda; i++)\r\n        {\r\n            if(proizvodi[i].cena > donjaGranica && proizvodi[i].cena < gornjaGranica)\r\n            {\r\n                br = br + 1;\r\n                produkti[br] = proizvodi[i].id;\r\n            }\r\n        }\r\n        return produkti;\r\n    }\r\n}",
  "sourcePath": "C:/Users/beslac_lazar/Desktop/project_dev/ChainTech/App/frontend/app/contracts/Proizvodi.sol",
  "compiler": {
    "name": "solc",
    "version": "0.5.16+commit.9c3226ce.Emscripten.clang"
  },
  "schemaVersion": "3.3.4",
  "updatedAt": "2021-04-27T22:51:17.024Z",
  "networkType": "ethereum",
  "devdoc": {
    "methods": {}
  },
  "userdoc": {
    "methods": {}
  }
}