{
  "contractName": "Kategorije",
  "abi": [
    {
      "constant": true,
      "inputs": [],
      "name": "brojKategorija",
      "outputs": [
        {
          "internalType": "int256",
          "name": "",
          "type": "int256"
        }
      ],
      "payable": false,
      "stateMutability": "view",
      "type": "function"
    },
    {
      "constant": true,
      "inputs": [
        {
          "internalType": "int256",
          "name": "",
          "type": "int256"
        }
      ],
      "name": "kategorije",
      "outputs": [
        {
          "internalType": "int256",
          "name": "id",
          "type": "int256"
        },
        {
          "internalType": "int256",
          "name": "idRoditelja",
          "type": "int256"
        },
        {
          "internalType": "string",
          "name": "naziv",
          "type": "string"
        }
      ],
      "payable": false,
      "stateMutability": "view",
      "type": "function"
    },
    {
      "constant": false,
      "inputs": [
        {
          "internalType": "int256",
          "name": "_idRoditelja",
          "type": "int256"
        },
        {
          "internalType": "string",
          "name": "_naziv",
          "type": "string"
        }
      ],
      "name": "dodajKategoriju",
      "outputs": [],
      "payable": false,
      "stateMutability": "nonpayable",
      "type": "function"
    }
  ],
  "bytecode": "0x60806040526000805534801561001457600080fd5b506103fa806100246000396000f3fe608060405234801561001057600080fd5b50600436106100415760003560e01c806315648fc014610046578063e9012c6e146100fb578063fc1f8827146101c0575b600080fd5b6100726004803603602081101561005c57600080fd5b81019080803590602001909291905050506101de565b6040518084815260200183815260200180602001828103825283818151815260200191508051906020019080838360005b838110156100be5780820151818401526020810190506100a3565b50505050905090810190601f1680156100eb5780820380516001836020036101000a031916815260200191505b5094505050505060405180910390f35b6101be6004803603604081101561011157600080fd5b81019080803590602001909291908035906020019064010000000081111561013857600080fd5b82018360208201111561014a57600080fd5b8035906020019184600183028401116401000000008311171561016c57600080fd5b91908080601f016020809104026020016040519081016040528093929190818152602001838380828437600081840152601f19601f8201169050808301925050505050505091929192905050506102a0565b005b6101c861031a565b6040518082815260200191505060405180910390f35b6001602052806000526040600020600091509050806000015490806001015490806002018054600181600116156101000203166002900480601f0160208091040260200160405190810160405280929190818152602001828054600181600116156101000203166002900480156102965780601f1061026b57610100808354040283529160200191610296565b820191906000526020600020905b81548152906001019060200180831161027957829003601f168201915b5050505050905083565b60008081548092919060010191905055506040518060600160405280600054815260200183815260200182815250600160008054815260200190815260200160002060008201518160000155602082015181600101556040820151816002019080519060200190610312929190610320565b509050505050565b60005481565b828054600181600116156101000203166002900490600052602060002090601f016020900481019282601f1061036157805160ff191683800117855561038f565b8280016001018555821561038f579182015b8281111561038e578251825591602001919060010190610373565b5b50905061039c91906103a0565b5090565b6103c291905b808211156103be5760008160009055506001016103a6565b5090565b9056fea265627a7a72315820bd6ed641be11f3729ce00a07a790eb6d51a1fe62e5283d4530cebb7f708547a564736f6c63430005100032",
  "source": "// SPDX-License-Identifier: MIT\r\npragma solidity >=0.4.22 <0.9.0;\r\n\r\ncontract Kategorije {\r\n    \r\n    struct Kategorija\r\n    {\r\n        int id;\r\n        int idRoditelja;\r\n        string naziv;\r\n    }\r\n\r\n    int public brojKategorija = 0;\r\n\r\n    mapping(int => Kategorija) public kategorije;\r\n\r\n    function dodajKategoriju(int _idRoditelja, string memory _naziv) public {\r\n        brojKategorija++;\r\n        kategorije[brojKategorija] = Kategorija(brojKategorija, _idRoditelja, _naziv);\r\n    }\r\n}",
  "sourcePath": "C:/Users/beslac_lazar/Desktop/project_dev/ChainTech/App/frontend/app/contracts/Kategorije.sol",
  "compiler": {
    "name": "solc",
    "version": "0.5.16+commit.9c3226ce.Emscripten.clang"
  },
  "schemaVersion": "3.3.4",
  "updatedAt": "2021-05-17T14:23:20.010Z",
  "networkType": "ethereum",
  "devdoc": {
    "methods": {}
  },
  "userdoc": {
    "methods": {}
  }
}