{
  "contractName": "Korisnici",
  "abi": [
    {
      "anonymous": false,
      "inputs": [
        {
          "indexed": false,
          "internalType": "address",
          "name": "sender",
          "type": "address"
        },
        {
          "indexed": false,
          "internalType": "string",
          "name": "challenge",
          "type": "string"
        }
      ],
      "name": "LoginAttempt",
      "type": "event"
    },
    {
      "constant": true,
      "inputs": [],
      "name": "brojKorisnika",
      "outputs": [
        {
          "internalType": "int256",
          "name": "",
          "type": "int256"
        }
      ],
      "payable": false,
      "stateMutability": "view",
      "type": "function"
    },
    {
      "constant": true,
      "inputs": [
        {
          "internalType": "int256",
          "name": "",
          "type": "int256"
        }
      ],
      "name": "korisnici",
      "outputs": [
        {
          "internalType": "int256",
          "name": "id",
          "type": "int256"
        },
        {
          "internalType": "string",
          "name": "mejl",
          "type": "string"
        },
        {
          "internalType": "string",
          "name": "password",
          "type": "string"
        },
        {
          "internalType": "string",
          "name": "ime",
          "type": "string"
        },
        {
          "internalType": "string",
          "name": "prezime",
          "type": "string"
        },
        {
          "internalType": "string",
          "name": "brojTelefona",
          "type": "string"
        },
        {
          "internalType": "string",
          "name": "adresa",
          "type": "string"
        },
        {
          "internalType": "string",
          "name": "slika",
          "type": "string"
        }
      ],
      "payable": false,
      "stateMutability": "view",
      "type": "function"
    },
    {
      "constant": true,
      "inputs": [
        {
          "internalType": "string",
          "name": "",
          "type": "string"
        }
      ],
      "name": "korisniciMail",
      "outputs": [
        {
          "internalType": "int256",
          "name": "id",
          "type": "int256"
        },
        {
          "internalType": "string",
          "name": "mejl",
          "type": "string"
        },
        {
          "internalType": "string",
          "name": "password",
          "type": "string"
        },
        {
          "internalType": "string",
          "name": "ime",
          "type": "string"
        },
        {
          "internalType": "string",
          "name": "prezime",
          "type": "string"
        },
        {
          "internalType": "string",
          "name": "brojTelefona",
          "type": "string"
        },
        {
          "internalType": "string",
          "name": "adresa",
          "type": "string"
        },
        {
          "internalType": "string",
          "name": "slika",
          "type": "string"
        }
      ],
      "payable": false,
      "stateMutability": "view",
      "type": "function"
    },
    {
      "constant": false,
      "inputs": [
        {
          "internalType": "string",
          "name": "_mejl",
          "type": "string"
        },
        {
          "internalType": "string",
          "name": "_password",
          "type": "string"
        },
        {
          "internalType": "string",
          "name": "_ime",
          "type": "string"
        },
        {
          "internalType": "string",
          "name": "_prezime",
          "type": "string"
        },
        {
          "internalType": "string",
          "name": "_brojTelefona",
          "type": "string"
        },
        {
          "internalType": "string",
          "name": "_adresa",
          "type": "string"
        }
      ],
      "name": "dodajKorisnika",
      "outputs": [
        {
          "internalType": "int256",
          "name": "",
          "type": "int256"
        }
      ],
      "payable": false,
      "stateMutability": "nonpayable",
      "type": "function"
    },
    {
      "constant": true,
      "inputs": [
        {
          "internalType": "string",
          "name": "_username",
          "type": "string"
        }
      ],
      "name": "proveriUsername",
      "outputs": [
        {
          "internalType": "int256",
          "name": "",
          "type": "int256"
        }
      ],
      "payable": false,
      "stateMutability": "view",
      "type": "function"
    },
    {
      "constant": false,
      "inputs": [
        {
          "internalType": "string",
          "name": "_username",
          "type": "string"
        },
        {
          "internalType": "string",
          "name": "_password",
          "type": "string"
        }
      ],
      "name": "prijavljivanje",
      "outputs": [
        {
          "internalType": "int256",
          "name": "",
          "type": "int256"
        }
      ],
      "payable": false,
      "stateMutability": "nonpayable",
      "type": "function"
    },
    {
      "constant": false,
      "inputs": [
        {
          "internalType": "int256",
          "name": "_id",
          "type": "int256"
        },
        {
          "internalType": "string",
          "name": "_ime",
          "type": "string"
        },
        {
          "internalType": "string",
          "name": "_prezime",
          "type": "string"
        },
        {
          "internalType": "string",
          "name": "_broj",
          "type": "string"
        },
        {
          "internalType": "string",
          "name": "_adresa",
          "type": "string"
        }
      ],
      "name": "izmeniKorisnika",
      "outputs": [],
      "payable": false,
      "stateMutability": "nonpayable",
      "type": "function"
    },
    {
      "constant": false,
      "inputs": [
        {
          "internalType": "int256",
          "name": "_id",
          "type": "int256"
        },
        {
          "internalType": "string",
          "name": "_slika",
          "type": "string"
        }
      ],
      "name": "dodajSliku",
      "outputs": [],
      "payable": false,
      "stateMutability": "nonpayable",
      "type": "function"
    }
  ],
  "bytecode": "0x60806040526000805534801561001457600080fd5b50612368806100246000396000f3fe608060405234801561001057600080fd5b50600436106100885760003560e01c806383da54461161005b57806383da5446146109045780638719718f14610cc75780639644dd7714610d96578063d0420420146110cc57610088565b8063247ab7f21461008d578063267d079b146103175780632f95c6a31461047d5780637306b6ea14610542575b600080fd5b610315600480360360a08110156100a357600080fd5b8101908080359060200190929190803590602001906401000000008111156100ca57600080fd5b8201836020820111156100dc57600080fd5b803590602001918460018302840111640100000000831117156100fe57600080fd5b91908080601f016020809104026020016040519081016040528093929190818152602001838380828437600081840152601f19601f8201169050808301925050505050505091929192908035906020019064010000000081111561016157600080fd5b82018360208201111561017357600080fd5b8035906020019184600183028401116401000000008311171561019557600080fd5b91908080601f016020809104026020016040519081016040528093929190818152602001838380828437600081840152601f19601f820116905080830192505050505050509192919290803590602001906401000000008111156101f857600080fd5b82018360208201111561020a57600080fd5b8035906020019184600183028401116401000000008311171561022c57600080fd5b91908080601f016020809104026020016040519081016040528093929190818152602001838380828437600081840152601f19601f8201169050808301925050505050505091929192908035906020019064010000000081111561028f57600080fd5b8201836020820111156102a157600080fd5b803590602001918460018302840111640100000000831117156102c357600080fd5b91908080601f016020809104026020016040519081016040528093929190818152602001838380828437600081840152601f19601f8201169050808301925050505050505091929192905050506110ea565b005b6104676004803603604081101561032d57600080fd5b810190808035906020019064010000000081111561034a57600080fd5b82018360208201111561035c57600080fd5b8035906020019184600183028401116401000000008311171561037e57600080fd5b91908080601f016020809104026020016040519081016040528093929190818152602001838380828437600081840152601f19601f820116905080830192505050505050509192919290803590602001906401000000008111156103e157600080fd5b8201836020820111156103f357600080fd5b8035906020019184600183028401116401000000008311171561041557600080fd5b91908080601f016020809104026020016040519081016040528093929190818152602001838380828437600081840152601f19601f82011690508083019250505050505050919291929050505061119d565b6040518082815260200191505060405180910390f35b6105406004803603604081101561049357600080fd5b8101908080359060200190929190803590602001906401000000008111156104ba57600080fd5b8201836020820111156104cc57600080fd5b803590602001918460018302840111640100000000831117156104ee57600080fd5b91908080601f016020809104026020016040519081016040528093929190818152602001838380828437600081840152601f19601f8201169050808301925050505050505091929192905050506114c4565b005b6108ee600480360360c081101561055857600080fd5b810190808035906020019064010000000081111561057557600080fd5b82018360208201111561058757600080fd5b803590602001918460018302840111640100000000831117156105a957600080fd5b91908080601f016020809104026020016040519081016040528093929190818152602001838380828437600081840152601f19601f8201169050808301925050505050505091929192908035906020019064010000000081111561060c57600080fd5b82018360208201111561061e57600080fd5b8035906020019184600183028401116401000000008311171561064057600080fd5b91908080601f016020809104026020016040519081016040528093929190818152602001838380828437600081840152601f19601f820116905080830192505050505050509192919290803590602001906401000000008111156106a357600080fd5b8201836020820111156106b557600080fd5b803590602001918460018302840111640100000000831117156106d757600080fd5b91908080601f016020809104026020016040519081016040528093929190818152602001838380828437600081840152601f19601f8201169050808301925050505050505091929192908035906020019064010000000081111561073a57600080fd5b82018360208201111561074c57600080fd5b8035906020019184600183028401116401000000008311171561076e57600080fd5b91908080601f016020809104026020016040519081016040528093929190818152602001838380828437600081840152601f19601f820116905080830192505050505050509192919290803590602001906401000000008111156107d157600080fd5b8201836020820111156107e357600080fd5b8035906020019184600183028401116401000000008311171561080557600080fd5b91908080601f016020809104026020016040519081016040528093929190818152602001838380828437600081840152601f19601f8201169050808301925050505050505091929192908035906020019064010000000081111561086857600080fd5b82018360208201111561087a57600080fd5b8035906020019184600183028401116401000000008311171561089c57600080fd5b91908080601f016020809104026020016040519081016040528093929190818152602001838380828437600081840152601f19601f8201169050808301925050505050505091929192905050506114f3565b6040518082815260200191505060405180910390f35b6109bd6004803603602081101561091a57600080fd5b810190808035906020019064010000000081111561093757600080fd5b82018360208201111561094957600080fd5b8035906020019184600183028401116401000000008311171561096b57600080fd5b91908080601f016020809104026020016040519081016040528093929190818152602001838380828437600081840152601f19601f8201169050808301925050505050505091929192905050506117d8565b604051808981526020018060200180602001806020018060200180602001806020018060200188810388528f818151815260200191508051906020019080838360005b83811015610a1b578082015181840152602081019050610a00565b50505050905090810190601f168015610a485780820380516001836020036101000a031916815260200191505b5088810387528e818151815260200191508051906020019080838360005b83811015610a81578082015181840152602081019050610a66565b50505050905090810190601f168015610aae5780820380516001836020036101000a031916815260200191505b5088810386528d818151815260200191508051906020019080838360005b83811015610ae7578082015181840152602081019050610acc565b50505050905090810190601f168015610b145780820380516001836020036101000a031916815260200191505b5088810385528c818151815260200191508051906020019080838360005b83811015610b4d578082015181840152602081019050610b32565b50505050905090810190601f168015610b7a5780820380516001836020036101000a031916815260200191505b5088810384528b818151815260200191508051906020019080838360005b83811015610bb3578082015181840152602081019050610b98565b50505050905090810190601f168015610be05780820380516001836020036101000a031916815260200191505b5088810383528a818151815260200191508051906020019080838360005b83811015610c19578082015181840152602081019050610bfe565b50505050905090810190601f168015610c465780820380516001836020036101000a031916815260200191505b50888103825289818151815260200191508051906020019080838360005b83811015610c7f578082015181840152602081019050610c64565b50505050905090810190601f168015610cac5780820380516001836020036101000a031916815260200191505b509f5050505050505050505050505050505060405180910390f35b610d8060048036036020811015610cdd57600080fd5b8101908080359060200190640100000000811115610cfa57600080fd5b820183602082011115610d0c57600080fd5b80359060200191846001830284011164010000000083111715610d2e57600080fd5b91908080601f016020809104026020016040519081016040528093929190818152602001838380828437600081840152601f19601f820116905080830192505050505050509192919290505050611c5e565b6040518082815260200191505060405180910390f35b610dc260048036036020811015610dac57600080fd5b8101908080359060200190929190505050611d98565b604051808981526020018060200180602001806020018060200180602001806020018060200188810388528f818151815260200191508051906020019080838360005b83811015610e20578082015181840152602081019050610e05565b50505050905090810190601f168015610e4d5780820380516001836020036101000a031916815260200191505b5088810387528e818151815260200191508051906020019080838360005b83811015610e86578082015181840152602081019050610e6b565b50505050905090810190601f168015610eb35780820380516001836020036101000a031916815260200191505b5088810386528d818151815260200191508051906020019080838360005b83811015610eec578082015181840152602081019050610ed1565b50505050905090810190601f168015610f195780820380516001836020036101000a031916815260200191505b5088810385528c818151815260200191508051906020019080838360005b83811015610f52578082015181840152602081019050610f37565b50505050905090810190601f168015610f7f5780820380516001836020036101000a031916815260200191505b5088810384528b818151815260200191508051906020019080838360005b83811015610fb8578082015181840152602081019050610f9d565b50505050905090810190601f168015610fe55780820380516001836020036101000a031916815260200191505b5088810383528a818151815260200191508051906020019080838360005b8381101561101e578082015181840152602081019050611003565b50505050905090810190601f16801561104b5780820380516001836020036101000a031916815260200191505b50888103825289818151815260200191508051906020019080838360005b83811015611084578082015181840152602081019050611069565b50505050905090810190601f1680156110b15780820380516001836020036101000a031916815260200191505b509f5050505050505050505050505050505060405180910390f35b6110d4612208565b6040518082815260200191505060405180910390f35b8360016000878152602001908152602001600020600301908051906020019061111492919061220e565b508260016000878152602001908152602001600020600401908051906020019061113f92919061220e565b508160016000878152602001908152602001600020600501908051906020019061116a92919061220e565b508060016000878152602001908152602001600020600601908051906020019061119592919061220e565b505050505050565b600080600090506000600190505b60005481136113d7576001600082815260200190815260200160002060010160405160200180828054600181600116156101000203166002900480156112285780601f10611206576101008083540402835291820191611228565b820191906000526020600020905b815481529060010190602001808311611214575b505091505060405160208183030381529060405280519060200120856040516020018082805190602001908083835b6020831061127a5780518252602082019150602081019050602083039250611257565b6001836020036101000a038019825116818451168082178552505050505050905001915050604051602081830303815290604052805190602001201480156113c057506001600082815260200190815260200160002060020160405160200180828054600181600116156101000203166002900480156113315780601f1061130f576101008083540402835291820191611331565b820191906000526020600020905b81548152906001019060200180831161131d575b505091505060405160208183030381529060405280519060200120846040516020018082805190602001908083835b602083106113835780518252602082019150602081019050602083039250611360565b6001836020036101000a03801982511681845116808217855250505050505090500191505060405160208183030381529060405280519060200120145b156113ca57600191505b80806001019150506111ab565b5080156114b8577fdeb017956c894eba079e6a630f5cfec256256dc05616ad89f1eb825abef459633384604051808373ffffffffffffffffffffffffffffffffffffffff1673ffffffffffffffffffffffffffffffffffffffff16815260200180602001828103825283818151815260200191508051906020019080838360005b83811015611473578082015181840152602081019050611458565b50505050905090810190601f1680156114a05780820380516001836020036101000a031916815260200191505b50935050505060405180910390a160019150506114be565b60009150505b92915050565b806001600084815260200190815260200160002060070190805190602001906114ee92919061220e565b505050565b60008060008154809291906001019190505550604051806101000160405280600054815260200188815260200187815260200186815260200185815260200184815260200183815260200160405180602001604052806000815250815250600160008054815260200190815260200160002060008201518160000155602082015181600101908051906020019061158b92919061228e565b5060408201518160020190805190602001906115a892919061228e565b5060608201518160030190805190602001906115c592919061228e565b5060808201518160040190805190602001906115e292919061228e565b5060a08201518160050190805190602001906115ff92919061228e565b5060c082015181600601908051906020019061161c92919061228e565b5060e082015181600701908051906020019061163992919061228e565b509050506040518061010001604052806000548152602001888152602001878152602001868152602001858152602001848152602001838152602001604051806020016040528060008152508152506002886040518082805190602001908083835b602083106116be578051825260208201915060208101905060208303925061169b565b6001836020036101000a038019825116818451168082178552505050505050905001915050908152602001604051809103902060008201518160000155602082015181600101908051906020019061171792919061228e565b50604082015181600201908051906020019061173492919061228e565b50606082015181600301908051906020019061175192919061228e565b50608082015181600401908051906020019061176e92919061228e565b5060a082015181600501908051906020019061178b92919061228e565b5060c08201518160060190805190602001906117a892919061228e565b5060e08201518160070190805190602001906117c592919061228e565b5090505060005490509695505050505050565b600281805160208101820180518482526020830160208501208183528095505050505050600091509050806000015490806001018054600181600116156101000203166002900480601f0160208091040260200160405190810160405280929190818152602001828054600181600116156101000203166002900480156118a05780601f10611875576101008083540402835291602001916118a0565b820191906000526020600020905b81548152906001019060200180831161188357829003601f168201915b505050505090806002018054600181600116156101000203166002900480601f01602080910402602001604051908101604052809291908181526020018280546001816001161561010002031660029004801561193e5780601f106119135761010080835404028352916020019161193e565b820191906000526020600020905b81548152906001019060200180831161192157829003601f168201915b505050505090806003018054600181600116156101000203166002900480601f0160208091040260200160405190810160405280929190818152602001828054600181600116156101000203166002900480156119dc5780601f106119b1576101008083540402835291602001916119dc565b820191906000526020600020905b8154815290600101906020018083116119bf57829003601f168201915b505050505090806004018054600181600116156101000203166002900480601f016020809104026020016040519081016040528092919081815260200182805460018160011615610100020316600290048015611a7a5780601f10611a4f57610100808354040283529160200191611a7a565b820191906000526020600020905b815481529060010190602001808311611a5d57829003601f168201915b505050505090806005018054600181600116156101000203166002900480601f016020809104026020016040519081016040528092919081815260200182805460018160011615610100020316600290048015611b185780601f10611aed57610100808354040283529160200191611b18565b820191906000526020600020905b815481529060010190602001808311611afb57829003601f168201915b505050505090806006018054600181600116156101000203166002900480601f016020809104026020016040519081016040528092919081815260200182805460018160011615610100020316600290048015611bb65780601f10611b8b57610100808354040283529160200191611bb6565b820191906000526020600020905b815481529060010190602001808311611b9957829003601f168201915b505050505090806007018054600181600116156101000203166002900480601f016020809104026020016040519081016040528092919081815260200182805460018160011615610100020316600290048015611c545780601f10611c2957610100808354040283529160200191611c54565b820191906000526020600020905b815481529060010190602001808311611c3757829003601f168201915b5050505050905088565b600080600190505b6000548113611d8d57600160008281526020019081526020016000206001016040516020018082805460018160011615610100020316600290048015611ce35780601f10611cc1576101008083540402835291820191611ce3565b820191906000526020600020905b815481529060010190602001808311611ccf575b505091505060405160208183030381529060405280519060200120836040516020018082805190602001908083835b60208310611d355780518252602082019150602081019050602083039250611d12565b6001836020036101000a038019825116818451168082178552505050505050905001915050604051602081830303815290604052805190602001201415611d80576000915050611d93565b8080600101915050611c66565b50600190505b919050565b6001602052806000526040600020600091509050806000015490806001018054600181600116156101000203166002900480601f016020809104026020016040519081016040528092919081815260200182805460018160011615610100020316600290048015611e4a5780601f10611e1f57610100808354040283529160200191611e4a565b820191906000526020600020905b815481529060010190602001808311611e2d57829003601f168201915b505050505090806002018054600181600116156101000203166002900480601f016020809104026020016040519081016040528092919081815260200182805460018160011615610100020316600290048015611ee85780601f10611ebd57610100808354040283529160200191611ee8565b820191906000526020600020905b815481529060010190602001808311611ecb57829003601f168201915b505050505090806003018054600181600116156101000203166002900480601f016020809104026020016040519081016040528092919081815260200182805460018160011615610100020316600290048015611f865780601f10611f5b57610100808354040283529160200191611f86565b820191906000526020600020905b815481529060010190602001808311611f6957829003601f168201915b505050505090806004018054600181600116156101000203166002900480601f0160208091040260200160405190810160405280929190818152602001828054600181600116156101000203166002900480156120245780601f10611ff957610100808354040283529160200191612024565b820191906000526020600020905b81548152906001019060200180831161200757829003601f168201915b505050505090806005018054600181600116156101000203166002900480601f0160208091040260200160405190810160405280929190818152602001828054600181600116156101000203166002900480156120c25780601f10612097576101008083540402835291602001916120c2565b820191906000526020600020905b8154815290600101906020018083116120a557829003601f168201915b505050505090806006018054600181600116156101000203166002900480601f0160208091040260200160405190810160405280929190818152602001828054600181600116156101000203166002900480156121605780601f1061213557610100808354040283529160200191612160565b820191906000526020600020905b81548152906001019060200180831161214357829003601f168201915b505050505090806007018054600181600116156101000203166002900480601f0160208091040260200160405190810160405280929190818152602001828054600181600116156101000203166002900480156121fe5780601f106121d3576101008083540402835291602001916121fe565b820191906000526020600020905b8154815290600101906020018083116121e157829003601f168201915b5050505050905088565b60005481565b828054600181600116156101000203166002900490600052602060002090601f016020900481019282601f1061224f57805160ff191683800117855561227d565b8280016001018555821561227d579182015b8281111561227c578251825591602001919060010190612261565b5b50905061228a919061230e565b5090565b828054600181600116156101000203166002900490600052602060002090601f016020900481019282601f106122cf57805160ff19168380011785556122fd565b828001600101855582156122fd579182015b828111156122fc5782518255916020019190600101906122e1565b5b50905061230a919061230e565b5090565b61233091905b8082111561232c576000816000905550600101612314565b5090565b9056fea265627a7a723158207fbc41ebc75e3dc7186600cb65b663b303d34a2c1272766dc6ae983f5ed8f7e764736f6c63430005100032",
  "source": "// SPDX-License-Identifier: MIT\r\npragma solidity >=0.4.22 <0.9.0;\r\n\r\ncontract Korisnici{\r\n\r\n    event LoginAttempt(address sender, string challenge);\r\n\r\n    struct Korisnik{\r\n        int id;\r\n        string mejl;\r\n        string password;\r\n        string ime;\r\n        string prezime;\r\n        string brojTelefona;\r\n        string adresa;\r\n        string slika;\r\n    }\r\n\r\n    int public brojKorisnika = 0;\r\n\r\n    mapping (int => Korisnik) public korisnici;\r\n    mapping (string => Korisnik) public korisniciMail;\r\n\r\n    function dodajKorisnika (string memory _mejl, string memory _password, string memory _ime, string memory _prezime, string memory _brojTelefona, string memory _adresa) public returns(int)\r\n    {\r\n        brojKorisnika++;\r\n        korisnici[brojKorisnika] = Korisnik(brojKorisnika, _mejl, _password, _ime, _prezime, _brojTelefona, _adresa, \"\");\r\n        korisniciMail[_mejl] = Korisnik(brojKorisnika, _mejl, _password, _ime, _prezime, _brojTelefona, _adresa, \"\");\r\n        return brojKorisnika;\r\n    }\r\n\r\n    //Prilikom pravljenja novog naloga moramo da proverimo da li taj korisnik vec postoji\r\n    function proveriUsername(string memory _username) view public returns(int) {\r\n        for (int i = 1; i <= brojKorisnika; i++) {\r\n            if( keccak256(abi.encodePacked(_username)) == keccak256(abi.encodePacked(korisnici[i].mejl)) ) {\r\n                return 0;\r\n            }\r\n        }\r\n        return 1;\r\n    }\r\n\r\n    function prijavljivanje (string memory _username, string memory _password) public returns (int)\r\n    {\r\n        bool nasao = false;\r\n        for (int i = 1; i <= brojKorisnika; i++) {\r\n            if(keccak256(abi.encodePacked(_username)) == keccak256(abi.encodePacked(korisnici[i].mejl)) && keccak256(abi.encodePacked(_password)) == keccak256(abi.encodePacked(korisnici[i].password))) {\r\n                nasao = true;\r\n            }\r\n        }\r\n\r\n        if(nasao){\r\n            emit LoginAttempt(msg.sender, _password);\r\n            return 1;\r\n        }\r\n        return 0;\r\n    }\r\n\r\n    function izmeniKorisnika (int _id, string memory _ime, string memory _prezime, string memory _broj, string memory _adresa) public\r\n    {\r\n        korisnici[_id].ime = _ime;\r\n        korisnici[_id].prezime = _prezime;\r\n        korisnici[_id].brojTelefona = _broj;\r\n        korisnici[_id].adresa = _adresa;\r\n    }\r\n\r\n    function dodajSliku(int _id, string memory _slika) public {\r\n        korisnici[_id].slika = _slika;\r\n    }\r\n}",
  "sourcePath": "C:/Users/beslac_lazar/Desktop/project_dev/ChainTech/App/frontend/app/contracts/Korisnici.sol",
  "compiler": {
    "name": "solc",
    "version": "0.5.16+commit.9c3226ce.Emscripten.clang"
  },
  "schemaVersion": "3.3.4",
  "updatedAt": "2021-05-17T14:23:18.722Z",
  "networkType": "ethereum",
  "devdoc": {
    "methods": {}
  },
  "userdoc": {
    "methods": {}
  }
}