{
  "contractName": "Predmeti",
  "abi": [
    {
      "constant": true,
      "inputs": [
        {
          "internalType": "uint256",
          "name": "",
          "type": "uint256"
        }
      ],
      "name": "pozoviPredmet",
      "outputs": [
        {
          "internalType": "uint256",
          "name": "id",
          "type": "uint256"
        },
        {
          "internalType": "string",
          "name": "naziv",
          "type": "string"
        }
      ],
      "payable": false,
      "stateMutability": "view",
      "type": "function"
    },
    {
      "constant": true,
      "inputs": [],
      "name": "predmetCount",
      "outputs": [
        {
          "internalType": "uint256",
          "name": "",
          "type": "uint256"
        }
      ],
      "payable": false,
      "stateMutability": "view",
      "type": "function"
    },
    {
      "constant": false,
      "inputs": [
        {
          "internalType": "string",
          "name": "_naziv",
          "type": "string"
        }
      ],
      "name": "createPredmet",
      "outputs": [],
      "payable": false,
      "stateMutability": "nonpayable",
      "type": "function"
    }
  ],
  "bytecode": "0x60806040526000805534801561001457600080fd5b506103d2806100246000396000f3fe608060405234801561001057600080fd5b50600436106100415760003560e01c80634764f2b514610046578063e6ed972f14610101578063e758a2c6146101af575b600080fd5b6100ff6004803603602081101561005c57600080fd5b810190808035906020019064010000000081111561007957600080fd5b82018360208201111561008b57600080fd5b803590602001918460018302840111640100000000831117156100ad57600080fd5b91908080601f016020809104026020016040519081016040528093929190818152602001838380828437600081840152601f19601f8201169050808301925050505050505091929192905050506101cd565b005b61012d6004803603602081101561011757600080fd5b8101908080359060200190929190505050610236565b6040518083815260200180602001828103825283818151815260200191508051906020019080838360005b83811015610173578082015181840152602081019050610158565b50505050905090810190601f1680156101a05780820380516001836020036101000a031916815260200191505b50935050505060405180910390f35b6101b76102f2565b6040518082815260200191505060405180910390f35b60008081548092919060010191905055506040518060400160405280600054815260200182815250600160008054815260200190815260200160002060008201518160000155602082015181600101908051906020019061022f9291906102f8565b5090505050565b6001602052806000526040600020600091509050806000015490806001018054600181600116156101000203166002900480601f0160208091040260200160405190810160405280929190818152602001828054600181600116156101000203166002900480156102e85780601f106102bd576101008083540402835291602001916102e8565b820191906000526020600020905b8154815290600101906020018083116102cb57829003601f168201915b5050505050905082565b60005481565b828054600181600116156101000203166002900490600052602060002090601f016020900481019282601f1061033957805160ff1916838001178555610367565b82800160010185558215610367579182015b8281111561036657825182559160200191906001019061034b565b5b5090506103749190610378565b5090565b61039a91905b8082111561039657600081600090555060010161037e565b5090565b9056fea265627a7a7231582022ac849b7d9a16fff602742f17dd1142a4ba3a6830c24f140bdcfb4a2866806864736f6c63430005100032",
  "source": "// SPDX-License-Identifier: MIT\r\npragma solidity >=0.4.17 <0.9.0;\r\n\r\ncontract Predmeti{\r\n\r\n    uint public predmetCount = 0;\r\n\r\n    //Struktura koja treba da bude u bazi\r\n    struct Predmet{\r\n        uint id;\r\n        string naziv;\r\n    }\r\n\r\n    //tasks(1)\r\n    mapping(uint => Predmet) public pozoviPredmet;\r\n\r\n    //createTask(\"Uradi domaci\");\r\n    function createPredmet(string memory _naziv) public{\r\n        predmetCount++;\r\n\r\n        pozoviPredmet[predmetCount] = Predmet(predmetCount, _naziv);\r\n    }\r\n    \r\n}",
  "sourcePath": "C:/Users/KristinaBojovic/Desktop/ethereum/contracts/Predmeti.sol",
  "compiler": {
    "name": "solc",
    "version": "0.5.16+commit.9c3226ce.Emscripten.clang"
  },
  "schemaVersion": "3.3.4",
  "updatedAt": "2021-03-09T19:37:49.139Z",
  "devdoc": {
    "methods": {}
  },
  "userdoc": {
    "methods": {}
  }
}