{
  "contractName": "Kategorije",
  "abi": [
    {
      "constant": true,
      "inputs": [],
      "name": "brojKategorija",
      "outputs": [
        {
          "internalType": "uint256",
          "name": "",
          "type": "uint256"
        }
      ],
      "payable": false,
      "stateMutability": "view",
      "type": "function"
    },
    {
      "constant": true,
      "inputs": [
        {
          "internalType": "uint256",
          "name": "",
          "type": "uint256"
        }
      ],
      "name": "kategorije",
      "outputs": [
        {
          "internalType": "uint256",
          "name": "id",
          "type": "uint256"
        },
        {
          "internalType": "string",
          "name": "naziv",
          "type": "string"
        }
      ],
      "payable": false,
      "stateMutability": "view",
      "type": "function"
    },
    {
      "constant": false,
      "inputs": [
        {
          "internalType": "string",
          "name": "_naziv",
          "type": "string"
        }
      ],
      "name": "dodajKategoriju",
      "outputs": [],
      "payable": false,
      "stateMutability": "nonpayable",
      "type": "function"
    }
  ],
  "bytecode": "0x60806040526000805534801561001457600080fd5b506103d2806100246000396000f3fe608060405234801561001057600080fd5b50600436106100415760003560e01c8063086332d614610046578063a867d62e146100f4578063fc1f8827146101af575b600080fd5b6100726004803603602081101561005c57600080fd5b81019080803590602001909291905050506101cd565b6040518083815260200180602001828103825283818151815260200191508051906020019080838360005b838110156100b857808201518184015260208101905061009d565b50505050905090810190601f1680156100e55780820380516001836020036101000a031916815260200191505b50935050505060405180910390f35b6101ad6004803603602081101561010a57600080fd5b810190808035906020019064010000000081111561012757600080fd5b82018360208201111561013957600080fd5b8035906020019184600183028401116401000000008311171561015b57600080fd5b91908080601f016020809104026020016040519081016040528093929190818152602001838380828437600081840152601f19601f820116905080830192505050505050509192919290505050610289565b005b6101b76102f2565b6040518082815260200191505060405180910390f35b6001602052806000526040600020600091509050806000015490806001018054600181600116156101000203166002900480601f01602080910402602001604051908101604052809291908181526020018280546001816001161561010002031660029004801561027f5780601f106102545761010080835404028352916020019161027f565b820191906000526020600020905b81548152906001019060200180831161026257829003601f168201915b5050505050905082565b6000808154809291906001019190505550604051806040016040528060005481526020018281525060016000805481526020019081526020016000206000820151816000015560208201518160010190805190602001906102eb9291906102f8565b5090505050565b60005481565b828054600181600116156101000203166002900490600052602060002090601f016020900481019282601f1061033957805160ff1916838001178555610367565b82800160010185558215610367579182015b8281111561036657825182559160200191906001019061034b565b5b5090506103749190610378565b5090565b61039a91905b8082111561039657600081600090555060010161037e565b5090565b9056fea265627a7a723158204877c478fce13ef339d685868f81b2cdff03b3cab8447fe794b9d9774d03f6e064736f6c63430005100032",
  "source": "// SPDX-License-Identifier: MIT\r\npragma solidity >=0.4.22 <0.9.0;\r\n\r\ncontract Kategorije {\r\n    \r\n    struct Kategorija\r\n    {\r\n        uint id;\r\n        string naziv;\r\n    }\r\n\r\n    uint public brojKategorija = 0;\r\n\r\n    mapping(uint => Kategorija) public kategorije;\r\n\r\n    function dodajKategoriju(string memory _naziv) public\r\n    {\r\n        brojKategorija++;\r\n        kategorije[brojKategorija] = Kategorija(brojKategorija, _naziv);\r\n    }\r\n}",
  "sourcePath": "C:/Users/beslac_lazar/Desktop/project/project/App/frontend/app/contracts/Kategorije.sol",
  "compiler": {
    "name": "solc",
    "version": "0.5.16+commit.9c3226ce.Emscripten.clang"
  },
  "schemaVersion": "3.3.4",
  "updatedAt": "2021-03-22T09:00:52.048Z",
  "networkType": "ethereum",
  "devdoc": {
    "methods": {}
  },
  "userdoc": {
    "methods": {}
  }
}