{
  "contractName": "Korisnici",
  "abi": [
    {
      "constant": true,
      "inputs": [],
      "name": "brojKorisnika",
      "outputs": [
        {
          "internalType": "int256",
          "name": "",
          "type": "int256"
        }
      ],
      "payable": false,
      "stateMutability": "view",
      "type": "function"
    },
    {
      "constant": true,
      "inputs": [
        {
          "internalType": "int256",
          "name": "",
          "type": "int256"
        }
      ],
      "name": "korisnici",
      "outputs": [
        {
          "internalType": "int256",
          "name": "id",
          "type": "int256"
        },
        {
          "internalType": "string",
          "name": "mejl",
          "type": "string"
        },
        {
          "internalType": "string",
          "name": "password",
          "type": "string"
        },
        {
          "internalType": "string",
          "name": "ime",
          "type": "string"
        },
        {
          "internalType": "string",
          "name": "prezime",
          "type": "string"
        },
        {
          "internalType": "string",
          "name": "brojTelefona",
          "type": "string"
        },
        {
          "internalType": "string",
          "name": "adresa",
          "type": "string"
        }
      ],
      "payable": false,
      "stateMutability": "view",
      "type": "function"
    },
    {
      "constant": true,
      "inputs": [
        {
          "internalType": "string",
          "name": "",
          "type": "string"
        }
      ],
      "name": "korisniciMail",
      "outputs": [
        {
          "internalType": "int256",
          "name": "id",
          "type": "int256"
        },
        {
          "internalType": "string",
          "name": "mejl",
          "type": "string"
        },
        {
          "internalType": "string",
          "name": "password",
          "type": "string"
        },
        {
          "internalType": "string",
          "name": "ime",
          "type": "string"
        },
        {
          "internalType": "string",
          "name": "prezime",
          "type": "string"
        },
        {
          "internalType": "string",
          "name": "brojTelefona",
          "type": "string"
        },
        {
          "internalType": "string",
          "name": "adresa",
          "type": "string"
        }
      ],
      "payable": false,
      "stateMutability": "view",
      "type": "function"
    },
    {
      "constant": false,
      "inputs": [
        {
          "internalType": "string",
          "name": "_mejl",
          "type": "string"
        },
        {
          "internalType": "string",
          "name": "_password",
          "type": "string"
        },
        {
          "internalType": "string",
          "name": "_ime",
          "type": "string"
        },
        {
          "internalType": "string",
          "name": "_prezime",
          "type": "string"
        },
        {
          "internalType": "string",
          "name": "_brojTelefona",
          "type": "string"
        },
        {
          "internalType": "string",
          "name": "_adresa",
          "type": "string"
        }
      ],
      "name": "dodajKorisnika",
      "outputs": [
        {
          "internalType": "int256",
          "name": "",
          "type": "int256"
        }
      ],
      "payable": false,
      "stateMutability": "nonpayable",
      "type": "function"
    },
    {
      "constant": true,
      "inputs": [
        {
          "internalType": "string",
          "name": "_username",
          "type": "string"
        }
      ],
      "name": "proveriUsername",
      "outputs": [
        {
          "internalType": "int256",
          "name": "",
          "type": "int256"
        }
      ],
      "payable": false,
      "stateMutability": "view",
      "type": "function"
    },
    {
      "constant": true,
      "inputs": [
        {
          "internalType": "string",
          "name": "_username",
          "type": "string"
        },
        {
          "internalType": "string",
          "name": "_password",
          "type": "string"
        }
      ],
      "name": "prijavljivanje",
      "outputs": [
        {
          "internalType": "int256",
          "name": "",
          "type": "int256"
        }
      ],
      "payable": false,
      "stateMutability": "view",
      "type": "function"
    },
    {
      "constant": false,
      "inputs": [
        {
          "internalType": "int256",
          "name": "_id",
          "type": "int256"
        },
        {
          "internalType": "string",
          "name": "_ime",
          "type": "string"
        },
        {
          "internalType": "string",
          "name": "_prezime",
          "type": "string"
        },
        {
          "internalType": "string",
          "name": "_broj",
          "type": "string"
        },
        {
          "internalType": "string",
          "name": "_adresa",
          "type": "string"
        }
      ],
      "name": "izmeniKorisnika",
      "outputs": [],
      "payable": false,
      "stateMutability": "nonpayable",
      "type": "function"
    }
  ],
  "bytecode": "0x60806040526000805534801561001457600080fd5b50611f0c806100246000396000f3fe608060405234801561001057600080fd5b506004361061007d5760003560e01c806383da54461161005b57806383da5446146108345780638719718f14610b8b5780639644dd7714610c5a578063d042042014610f245761007d565b8063247ab7f214610082578063267d079b1461030c5780637306b6ea14610472575b600080fd5b61030a600480360360a081101561009857600080fd5b8101908080359060200190929190803590602001906401000000008111156100bf57600080fd5b8201836020820111156100d157600080fd5b803590602001918460018302840111640100000000831117156100f357600080fd5b91908080601f016020809104026020016040519081016040528093929190818152602001838380828437600081840152601f19601f8201169050808301925050505050505091929192908035906020019064010000000081111561015657600080fd5b82018360208201111561016857600080fd5b8035906020019184600183028401116401000000008311171561018a57600080fd5b91908080601f016020809104026020016040519081016040528093929190818152602001838380828437600081840152601f19601f820116905080830192505050505050509192919290803590602001906401000000008111156101ed57600080fd5b8201836020820111156101ff57600080fd5b8035906020019184600183028401116401000000008311171561022157600080fd5b91908080601f016020809104026020016040519081016040528093929190818152602001838380828437600081840152601f19601f8201169050808301925050505050505091929192908035906020019064010000000081111561028457600080fd5b82018360208201111561029657600080fd5b803590602001918460018302840111640100000000831117156102b857600080fd5b91908080601f016020809104026020016040519081016040528093929190818152602001838380828437600081840152601f19601f820116905080830192505050505050509192919290505050610f42565b005b61045c6004803603604081101561032257600080fd5b810190808035906020019064010000000081111561033f57600080fd5b82018360208201111561035157600080fd5b8035906020019184600183028401116401000000008311171561037357600080fd5b91908080601f016020809104026020016040519081016040528093929190818152602001838380828437600081840152601f19601f820116905080830192505050505050509192919290803590602001906401000000008111156103d657600080fd5b8201836020820111156103e857600080fd5b8035906020019184600183028401116401000000008311171561040a57600080fd5b91908080601f016020809104026020016040519081016040528093929190818152602001838380828437600081840152601f19601f820116905080830192505050505050509192919290505050610ff5565b6040518082815260200191505060405180910390f35b61081e600480360360c081101561048857600080fd5b81019080803590602001906401000000008111156104a557600080fd5b8201836020820111156104b757600080fd5b803590602001918460018302840111640100000000831117156104d957600080fd5b91908080601f016020809104026020016040519081016040528093929190818152602001838380828437600081840152601f19601f8201169050808301925050505050505091929192908035906020019064010000000081111561053c57600080fd5b82018360208201111561054e57600080fd5b8035906020019184600183028401116401000000008311171561057057600080fd5b91908080601f016020809104026020016040519081016040528093929190818152602001838380828437600081840152601f19601f820116905080830192505050505050509192919290803590602001906401000000008111156105d357600080fd5b8201836020820111156105e557600080fd5b8035906020019184600183028401116401000000008311171561060757600080fd5b91908080601f016020809104026020016040519081016040528093929190818152602001838380828437600081840152601f19601f8201169050808301925050505050505091929192908035906020019064010000000081111561066a57600080fd5b82018360208201111561067c57600080fd5b8035906020019184600183028401116401000000008311171561069e57600080fd5b91908080601f016020809104026020016040519081016040528093929190818152602001838380828437600081840152601f19601f8201169050808301925050505050505091929192908035906020019064010000000081111561070157600080fd5b82018360208201111561071357600080fd5b8035906020019184600183028401116401000000008311171561073557600080fd5b91908080601f016020809104026020016040519081016040528093929190818152602001838380828437600081840152601f19601f8201169050808301925050505050505091929192908035906020019064010000000081111561079857600080fd5b8201836020820111156107aa57600080fd5b803590602001918460018302840111640100000000831117156107cc57600080fd5b91908080601f016020809104026020016040519081016040528093929190818152602001838380828437600081840152601f19601f820116905080830192505050505050509192919290505050611239565b6040518082815260200191505060405180910390f35b6108ed6004803603602081101561084a57600080fd5b810190808035906020019064010000000081111561086757600080fd5b82018360208201111561087957600080fd5b8035906020019184600183028401116401000000008311171561089b57600080fd5b91908080601f016020809104026020016040519081016040528093929190818152602001838380828437600081840152601f19601f8201169050808301925050505050505091929192905050506114b8565b6040518088815260200180602001806020018060200180602001806020018060200187810387528d818151815260200191508051906020019080838360005b8381101561094757808201518184015260208101905061092c565b50505050905090810190601f1680156109745780820380516001836020036101000a031916815260200191505b5087810386528c818151815260200191508051906020019080838360005b838110156109ad578082015181840152602081019050610992565b50505050905090810190601f1680156109da5780820380516001836020036101000a031916815260200191505b5087810385528b818151815260200191508051906020019080838360005b83811015610a135780820151818401526020810190506109f8565b50505050905090810190601f168015610a405780820380516001836020036101000a031916815260200191505b5087810384528a818151815260200191508051906020019080838360005b83811015610a79578082015181840152602081019050610a5e565b50505050905090810190601f168015610aa65780820380516001836020036101000a031916815260200191505b50878103835289818151815260200191508051906020019080838360005b83811015610adf578082015181840152602081019050610ac4565b50505050905090810190601f168015610b0c5780820380516001836020036101000a031916815260200191505b50878103825288818151815260200191508051906020019080838360005b83811015610b45578082015181840152602081019050610b2a565b50505050905090810190601f168015610b725780820380516001836020036101000a031916815260200191505b509d505050505050505050505050505060405180910390f35b610c4460048036036020811015610ba157600080fd5b8101908080359060200190640100000000811115610bbe57600080fd5b820183602082011115610bd057600080fd5b80359060200191846001830284011164010000000083111715610bf257600080fd5b91908080601f016020809104026020016040519081016040528093929190818152602001838380828437600081840152601f19601f8201169050808301925050505050505091929192905050506118a0565b6040518082815260200191505060405180910390f35b610c8660048036036020811015610c7057600080fd5b81019080803590602001909291905050506119da565b6040518088815260200180602001806020018060200180602001806020018060200187810387528d818151815260200191508051906020019080838360005b83811015610ce0578082015181840152602081019050610cc5565b50505050905090810190601f168015610d0d5780820380516001836020036101000a031916815260200191505b5087810386528c818151815260200191508051906020019080838360005b83811015610d46578082015181840152602081019050610d2b565b50505050905090810190601f168015610d735780820380516001836020036101000a031916815260200191505b5087810385528b818151815260200191508051906020019080838360005b83811015610dac578082015181840152602081019050610d91565b50505050905090810190601f168015610dd95780820380516001836020036101000a031916815260200191505b5087810384528a818151815260200191508051906020019080838360005b83811015610e12578082015181840152602081019050610df7565b50505050905090810190601f168015610e3f5780820380516001836020036101000a031916815260200191505b50878103835289818151815260200191508051906020019080838360005b83811015610e78578082015181840152602081019050610e5d565b50505050905090810190601f168015610ea55780820380516001836020036101000a031916815260200191505b50878103825288818151815260200191508051906020019080838360005b83811015610ede578082015181840152602081019050610ec3565b50505050905090810190601f168015610f0b5780820380516001836020036101000a031916815260200191505b509d505050505050505050505050505060405180910390f35b610f2c611dac565b6040518082815260200191505060405180910390f35b83600160008781526020019081526020016000206003019080519060200190610f6c929190611db2565b5082600160008781526020019081526020016000206004019080519060200190610f97929190611db2565b5081600160008781526020019081526020016000206005019080519060200190610fc2929190611db2565b5080600160008781526020019081526020016000206006019080519060200190610fed929190611db2565b505050505050565b600080600190505b600054811361122d5760016000828152602001908152602001600020600101604051602001808280546001816001161561010002031660029004801561107a5780601f1061105857610100808354040283529182019161107a565b820191906000526020600020905b815481529060010190602001808311611066575b505091505060405160208183030381529060405280519060200120846040516020018082805190602001908083835b602083106110cc57805182526020820191506020810190506020830392506110a9565b6001836020036101000a0380198251168184511680821785525050505050509050019150506040516020818303038152906040528051906020012014801561121257506001600082815260200190815260200160002060020160405160200180828054600181600116156101000203166002900480156111835780601f10611161576101008083540402835291820191611183565b820191906000526020600020905b81548152906001019060200180831161116f575b505091505060405160208183030381529060405280519060200120836040516020018082805190602001908083835b602083106111d557805182526020820191506020810190506020830392506111b2565b6001836020036101000a03801982511681845116808217855250505050505090500191505060405160208183030381529060405280519060200120145b156112205780915050611233565b8080600101915050610ffd565b50600090505b92915050565b600080600081548092919060010191905055506040518060e0016040528060005481526020018881526020018781526020018681526020018581526020018481526020018381525060016000805481526020019081526020016000206000820151816000015560208201518160010190805190602001906112bb929190611e32565b5060408201518160020190805190602001906112d8929190611e32565b5060608201518160030190805190602001906112f5929190611e32565b506080820151816004019080519060200190611312929190611e32565b5060a082015181600501908051906020019061132f929190611e32565b5060c082015181600601908051906020019061134c929190611e32565b509050506040518060e001604052806000548152602001888152602001878152602001868152602001858152602001848152602001838152506002886040518082805190602001908083835b602083106113bb5780518252602082019150602081019050602083039250611398565b6001836020036101000a0380198251168184511680821785525050505050509050019150509081526020016040518091039020600082015181600001556020820151816001019080519060200190611414929190611e32565b506040820151816002019080519060200190611431929190611e32565b50606082015181600301908051906020019061144e929190611e32565b50608082015181600401908051906020019061146b929190611e32565b5060a0820151816005019080519060200190611488929190611e32565b5060c08201518160060190805190602001906114a5929190611e32565b5090505060005490509695505050505050565b600281805160208101820180518482526020830160208501208183528095505050505050600091509050806000015490806001018054600181600116156101000203166002900480601f0160208091040260200160405190810160405280929190818152602001828054600181600116156101000203166002900480156115805780601f1061155557610100808354040283529160200191611580565b820191906000526020600020905b81548152906001019060200180831161156357829003601f168201915b505050505090806002018054600181600116156101000203166002900480601f01602080910402602001604051908101604052809291908181526020018280546001816001161561010002031660029004801561161e5780601f106115f35761010080835404028352916020019161161e565b820191906000526020600020905b81548152906001019060200180831161160157829003601f168201915b505050505090806003018054600181600116156101000203166002900480601f0160208091040260200160405190810160405280929190818152602001828054600181600116156101000203166002900480156116bc5780601f10611691576101008083540402835291602001916116bc565b820191906000526020600020905b81548152906001019060200180831161169f57829003601f168201915b505050505090806004018054600181600116156101000203166002900480601f01602080910402602001604051908101604052809291908181526020018280546001816001161561010002031660029004801561175a5780601f1061172f5761010080835404028352916020019161175a565b820191906000526020600020905b81548152906001019060200180831161173d57829003601f168201915b505050505090806005018054600181600116156101000203166002900480601f0160208091040260200160405190810160405280929190818152602001828054600181600116156101000203166002900480156117f85780601f106117cd576101008083540402835291602001916117f8565b820191906000526020600020905b8154815290600101906020018083116117db57829003601f168201915b505050505090806006018054600181600116156101000203166002900480601f0160208091040260200160405190810160405280929190818152602001828054600181600116156101000203166002900480156118965780601f1061186b57610100808354040283529160200191611896565b820191906000526020600020905b81548152906001019060200180831161187957829003601f168201915b5050505050905087565b600080600190505b60005481136119cf576001600082815260200190815260200160002060010160405160200180828054600181600116156101000203166002900480156119255780601f10611903576101008083540402835291820191611925565b820191906000526020600020905b815481529060010190602001808311611911575b505091505060405160208183030381529060405280519060200120836040516020018082805190602001908083835b602083106119775780518252602082019150602081019050602083039250611954565b6001836020036101000a0380198251168184511680821785525050505050509050019150506040516020818303038152906040528051906020012014156119c25760009150506119d5565b80806001019150506118a8565b50600190505b919050565b6001602052806000526040600020600091509050806000015490806001018054600181600116156101000203166002900480601f016020809104026020016040519081016040528092919081815260200182805460018160011615610100020316600290048015611a8c5780601f10611a6157610100808354040283529160200191611a8c565b820191906000526020600020905b815481529060010190602001808311611a6f57829003601f168201915b505050505090806002018054600181600116156101000203166002900480601f016020809104026020016040519081016040528092919081815260200182805460018160011615610100020316600290048015611b2a5780601f10611aff57610100808354040283529160200191611b2a565b820191906000526020600020905b815481529060010190602001808311611b0d57829003601f168201915b505050505090806003018054600181600116156101000203166002900480601f016020809104026020016040519081016040528092919081815260200182805460018160011615610100020316600290048015611bc85780601f10611b9d57610100808354040283529160200191611bc8565b820191906000526020600020905b815481529060010190602001808311611bab57829003601f168201915b505050505090806004018054600181600116156101000203166002900480601f016020809104026020016040519081016040528092919081815260200182805460018160011615610100020316600290048015611c665780601f10611c3b57610100808354040283529160200191611c66565b820191906000526020600020905b815481529060010190602001808311611c4957829003601f168201915b505050505090806005018054600181600116156101000203166002900480601f016020809104026020016040519081016040528092919081815260200182805460018160011615610100020316600290048015611d045780601f10611cd957610100808354040283529160200191611d04565b820191906000526020600020905b815481529060010190602001808311611ce757829003601f168201915b505050505090806006018054600181600116156101000203166002900480601f016020809104026020016040519081016040528092919081815260200182805460018160011615610100020316600290048015611da25780601f10611d7757610100808354040283529160200191611da2565b820191906000526020600020905b815481529060010190602001808311611d8557829003601f168201915b5050505050905087565b60005481565b828054600181600116156101000203166002900490600052602060002090601f016020900481019282601f10611df357805160ff1916838001178555611e21565b82800160010185558215611e21579182015b82811115611e20578251825591602001919060010190611e05565b5b509050611e2e9190611eb2565b5090565b828054600181600116156101000203166002900490600052602060002090601f016020900481019282601f10611e7357805160ff1916838001178555611ea1565b82800160010185558215611ea1579182015b82811115611ea0578251825591602001919060010190611e85565b5b509050611eae9190611eb2565b5090565b611ed491905b80821115611ed0576000816000905550600101611eb8565b5090565b9056fea265627a7a7231582079c28c88ec76c99dd090147d9e3b14d647b8edc0347ee23b7244b7cacaeab7b264736f6c63430005100032",
  "source": "// SPDX-License-Identifier: MIT\r\npragma solidity >=0.4.22 <0.9.0;\r\n\r\ncontract Korisnici{\r\n\r\n    struct Korisnik{\r\n        int id;\r\n        string mejl;\r\n        string password;\r\n        string ime;\r\n        string prezime;\r\n        string brojTelefona;\r\n        string adresa;\r\n    }\r\n\r\n    int public brojKorisnika = 0;\r\n\r\n    mapping (int => Korisnik) public korisnici;\r\n    mapping (string => Korisnik) public korisniciMail;\r\n\r\n    function dodajKorisnika (string memory _mejl, string memory _password, string memory _ime, string memory _prezime, string memory _brojTelefona, string memory _adresa) public returns(int)\r\n    {\r\n        brojKorisnika++;\r\n        korisnici[brojKorisnika] = Korisnik(brojKorisnika, _mejl, _password, _ime, _prezime, _brojTelefona, _adresa);\r\n        korisniciMail[_mejl] = Korisnik(brojKorisnika, _mejl, _password, _ime, _prezime, _brojTelefona, _adresa);\r\n        return brojKorisnika;\r\n    }\r\n\r\n    //Prilikom pravljenja novog naloga moramo da proverimo da li taj korisnik vec postoji\r\n    function proveriUsername(string memory _username) view public returns(int) {\r\n        for (int i = 1; i <= brojKorisnika; i++) {\r\n            if( keccak256(abi.encodePacked(_username)) == keccak256(abi.encodePacked(korisnici[i].mejl)) ) {\r\n                return 0;\r\n            }\r\n        }\r\n        return 1;\r\n    }\r\n\r\n    function prijavljivanje (string memory _username, string memory _password) public view returns (int)\r\n    {\r\n        for (int i = 1; i <= brojKorisnika; i++) {\r\n            if(keccak256(abi.encodePacked(_username)) == keccak256(abi.encodePacked(korisnici[i].mejl)) && keccak256(abi.encodePacked(_password)) == keccak256(abi.encodePacked(korisnici[i].password)))\r\n                return i;\r\n        }\r\n        return 0;\r\n    }\r\n\r\n    //da se zavrsi\r\n    /*function izmeniPassword (int _id, string memory _stariPassword, string memory _noviPassword) public\r\n    {\r\n        korisnici[_id].password = _password;\r\n    }*/\r\n\r\n    function izmeniKorisnika (int _id, string memory _ime, string memory _prezime, string memory _broj, string memory _adresa) public\r\n    {\r\n        korisnici[_id].ime = _ime;\r\n        korisnici[_id].prezime = _prezime;\r\n        korisnici[_id].brojTelefona = _broj;\r\n        korisnici[_id].adresa = _adresa;\r\n    }\r\n}",
  "sourcePath": "C:/Users/beslac_lazar/Desktop/project_dev/ChainTech/App/frontend/app/contracts/Korisnici.sol",
  "compiler": {
    "name": "solc",
    "version": "0.5.16+commit.9c3226ce.Emscripten.clang"
  },
  "schemaVersion": "3.3.4",
  "updatedAt": "2021-04-05T22:37:02.219Z",
  "networkType": "ethereum",
  "devdoc": {
    "methods": {}
  },
  "userdoc": {
    "methods": {}
  }
}