{
  "contractName": "Korisnici",
  "abi": [
    {
      "anonymous": false,
      "inputs": [
        {
          "indexed": false,
          "internalType": "address",
          "name": "sender",
          "type": "address"
        },
        {
          "indexed": false,
          "internalType": "string",
          "name": "challenge",
          "type": "string"
        }
      ],
      "name": "LoginAttempt",
      "type": "event"
    },
    {
      "constant": true,
      "inputs": [],
      "name": "brojKorisnika",
      "outputs": [
        {
          "internalType": "int256",
          "name": "",
          "type": "int256"
        }
      ],
      "payable": false,
      "stateMutability": "view",
      "type": "function"
    },
    {
      "constant": true,
      "inputs": [
        {
          "internalType": "int256",
          "name": "",
          "type": "int256"
        }
      ],
      "name": "korisnici",
      "outputs": [
        {
          "internalType": "int256",
          "name": "id",
          "type": "int256"
        },
        {
          "internalType": "string",
          "name": "mejl",
          "type": "string"
        },
        {
          "internalType": "string",
          "name": "password",
          "type": "string"
        },
        {
          "internalType": "string",
          "name": "ime",
          "type": "string"
        },
        {
          "internalType": "string",
          "name": "prezime",
          "type": "string"
        },
        {
          "internalType": "string",
          "name": "brojTelefona",
          "type": "string"
        },
        {
          "internalType": "string",
          "name": "adresa",
          "type": "string"
        }
      ],
      "payable": false,
      "stateMutability": "view",
      "type": "function"
    },
    {
      "constant": true,
      "inputs": [
        {
          "internalType": "string",
          "name": "",
          "type": "string"
        }
      ],
      "name": "korisniciMail",
      "outputs": [
        {
          "internalType": "int256",
          "name": "id",
          "type": "int256"
        },
        {
          "internalType": "string",
          "name": "mejl",
          "type": "string"
        },
        {
          "internalType": "string",
          "name": "password",
          "type": "string"
        },
        {
          "internalType": "string",
          "name": "ime",
          "type": "string"
        },
        {
          "internalType": "string",
          "name": "prezime",
          "type": "string"
        },
        {
          "internalType": "string",
          "name": "brojTelefona",
          "type": "string"
        },
        {
          "internalType": "string",
          "name": "adresa",
          "type": "string"
        }
      ],
      "payable": false,
      "stateMutability": "view",
      "type": "function"
    },
    {
      "constant": false,
      "inputs": [
        {
          "internalType": "string",
          "name": "_mejl",
          "type": "string"
        },
        {
          "internalType": "string",
          "name": "_password",
          "type": "string"
        },
        {
          "internalType": "string",
          "name": "_ime",
          "type": "string"
        },
        {
          "internalType": "string",
          "name": "_prezime",
          "type": "string"
        },
        {
          "internalType": "string",
          "name": "_brojTelefona",
          "type": "string"
        },
        {
          "internalType": "string",
          "name": "_adresa",
          "type": "string"
        }
      ],
      "name": "dodajKorisnika",
      "outputs": [
        {
          "internalType": "int256",
          "name": "",
          "type": "int256"
        }
      ],
      "payable": false,
      "stateMutability": "nonpayable",
      "type": "function"
    },
    {
      "constant": true,
      "inputs": [
        {
          "internalType": "string",
          "name": "_username",
          "type": "string"
        }
      ],
      "name": "proveriUsername",
      "outputs": [
        {
          "internalType": "int256",
          "name": "",
          "type": "int256"
        }
      ],
      "payable": false,
      "stateMutability": "view",
      "type": "function"
    },
    {
      "constant": false,
      "inputs": [
        {
          "internalType": "string",
          "name": "_username",
          "type": "string"
        },
        {
          "internalType": "string",
          "name": "_password",
          "type": "string"
        }
      ],
      "name": "prijavljivanje",
      "outputs": [
        {
          "internalType": "int256",
          "name": "",
          "type": "int256"
        }
      ],
      "payable": false,
      "stateMutability": "nonpayable",
      "type": "function"
    },
    {
      "constant": false,
      "inputs": [
        {
          "internalType": "int256",
          "name": "_id",
          "type": "int256"
        },
        {
          "internalType": "string",
          "name": "_ime",
          "type": "string"
        },
        {
          "internalType": "string",
          "name": "_prezime",
          "type": "string"
        },
        {
          "internalType": "string",
          "name": "_broj",
          "type": "string"
        },
        {
          "internalType": "string",
          "name": "_adresa",
          "type": "string"
        }
      ],
      "name": "izmeniKorisnika",
      "outputs": [],
      "payable": false,
      "stateMutability": "nonpayable",
      "type": "function"
    }
  ],
  "bytecode": "0x60806040526000805534801561001457600080fd5b50611fef806100246000396000f3fe608060405234801561001057600080fd5b506004361061007d5760003560e01c806383da54461161005b57806383da5446146108345780638719718f14610b8b5780639644dd7714610c5a578063d042042014610f245761007d565b8063247ab7f214610082578063267d079b1461030c5780637306b6ea14610472575b600080fd5b61030a600480360360a081101561009857600080fd5b8101908080359060200190929190803590602001906401000000008111156100bf57600080fd5b8201836020820111156100d157600080fd5b803590602001918460018302840111640100000000831117156100f357600080fd5b91908080601f016020809104026020016040519081016040528093929190818152602001838380828437600081840152601f19601f8201169050808301925050505050505091929192908035906020019064010000000081111561015657600080fd5b82018360208201111561016857600080fd5b8035906020019184600183028401116401000000008311171561018a57600080fd5b91908080601f016020809104026020016040519081016040528093929190818152602001838380828437600081840152601f19601f820116905080830192505050505050509192919290803590602001906401000000008111156101ed57600080fd5b8201836020820111156101ff57600080fd5b8035906020019184600183028401116401000000008311171561022157600080fd5b91908080601f016020809104026020016040519081016040528093929190818152602001838380828437600081840152601f19601f8201169050808301925050505050505091929192908035906020019064010000000081111561028457600080fd5b82018360208201111561029657600080fd5b803590602001918460018302840111640100000000831117156102b857600080fd5b91908080601f016020809104026020016040519081016040528093929190818152602001838380828437600081840152601f19601f820116905080830192505050505050509192919290505050610f42565b005b61045c6004803603604081101561032257600080fd5b810190808035906020019064010000000081111561033f57600080fd5b82018360208201111561035157600080fd5b8035906020019184600183028401116401000000008311171561037357600080fd5b91908080601f016020809104026020016040519081016040528093929190818152602001838380828437600081840152601f19601f820116905080830192505050505050509192919290803590602001906401000000008111156103d657600080fd5b8201836020820111156103e857600080fd5b8035906020019184600183028401116401000000008311171561040a57600080fd5b91908080601f016020809104026020016040519081016040528093929190818152602001838380828437600081840152601f19601f820116905080830192505050505050509192919290505050610ff5565b6040518082815260200191505060405180910390f35b61081e600480360360c081101561048857600080fd5b81019080803590602001906401000000008111156104a557600080fd5b8201836020820111156104b757600080fd5b803590602001918460018302840111640100000000831117156104d957600080fd5b91908080601f016020809104026020016040519081016040528093929190818152602001838380828437600081840152601f19601f8201169050808301925050505050505091929192908035906020019064010000000081111561053c57600080fd5b82018360208201111561054e57600080fd5b8035906020019184600183028401116401000000008311171561057057600080fd5b91908080601f016020809104026020016040519081016040528093929190818152602001838380828437600081840152601f19601f820116905080830192505050505050509192919290803590602001906401000000008111156105d357600080fd5b8201836020820111156105e557600080fd5b8035906020019184600183028401116401000000008311171561060757600080fd5b91908080601f016020809104026020016040519081016040528093929190818152602001838380828437600081840152601f19601f8201169050808301925050505050505091929192908035906020019064010000000081111561066a57600080fd5b82018360208201111561067c57600080fd5b8035906020019184600183028401116401000000008311171561069e57600080fd5b91908080601f016020809104026020016040519081016040528093929190818152602001838380828437600081840152601f19601f8201169050808301925050505050505091929192908035906020019064010000000081111561070157600080fd5b82018360208201111561071357600080fd5b8035906020019184600183028401116401000000008311171561073557600080fd5b91908080601f016020809104026020016040519081016040528093929190818152602001838380828437600081840152601f19601f8201169050808301925050505050505091929192908035906020019064010000000081111561079857600080fd5b8201836020820111156107aa57600080fd5b803590602001918460018302840111640100000000831117156107cc57600080fd5b91908080601f016020809104026020016040519081016040528093929190818152602001838380828437600081840152601f19601f82011690508083019250505050505050919291929050505061131c565b6040518082815260200191505060405180910390f35b6108ed6004803603602081101561084a57600080fd5b810190808035906020019064010000000081111561086757600080fd5b82018360208201111561087957600080fd5b8035906020019184600183028401116401000000008311171561089b57600080fd5b91908080601f016020809104026020016040519081016040528093929190818152602001838380828437600081840152601f19601f82011690508083019250505050505050919291929050505061159b565b6040518088815260200180602001806020018060200180602001806020018060200187810387528d818151815260200191508051906020019080838360005b8381101561094757808201518184015260208101905061092c565b50505050905090810190601f1680156109745780820380516001836020036101000a031916815260200191505b5087810386528c818151815260200191508051906020019080838360005b838110156109ad578082015181840152602081019050610992565b50505050905090810190601f1680156109da5780820380516001836020036101000a031916815260200191505b5087810385528b818151815260200191508051906020019080838360005b83811015610a135780820151818401526020810190506109f8565b50505050905090810190601f168015610a405780820380516001836020036101000a031916815260200191505b5087810384528a818151815260200191508051906020019080838360005b83811015610a79578082015181840152602081019050610a5e565b50505050905090810190601f168015610aa65780820380516001836020036101000a031916815260200191505b50878103835289818151815260200191508051906020019080838360005b83811015610adf578082015181840152602081019050610ac4565b50505050905090810190601f168015610b0c5780820380516001836020036101000a031916815260200191505b50878103825288818151815260200191508051906020019080838360005b83811015610b45578082015181840152602081019050610b2a565b50505050905090810190601f168015610b725780820380516001836020036101000a031916815260200191505b509d505050505050505050505050505060405180910390f35b610c4460048036036020811015610ba157600080fd5b8101908080359060200190640100000000811115610bbe57600080fd5b820183602082011115610bd057600080fd5b80359060200191846001830284011164010000000083111715610bf257600080fd5b91908080601f016020809104026020016040519081016040528093929190818152602001838380828437600081840152601f19601f820116905080830192505050505050509192919290505050611983565b6040518082815260200191505060405180910390f35b610c8660048036036020811015610c7057600080fd5b8101908080359060200190929190505050611abd565b6040518088815260200180602001806020018060200180602001806020018060200187810387528d818151815260200191508051906020019080838360005b83811015610ce0578082015181840152602081019050610cc5565b50505050905090810190601f168015610d0d5780820380516001836020036101000a031916815260200191505b5087810386528c818151815260200191508051906020019080838360005b83811015610d46578082015181840152602081019050610d2b565b50505050905090810190601f168015610d735780820380516001836020036101000a031916815260200191505b5087810385528b818151815260200191508051906020019080838360005b83811015610dac578082015181840152602081019050610d91565b50505050905090810190601f168015610dd95780820380516001836020036101000a031916815260200191505b5087810384528a818151815260200191508051906020019080838360005b83811015610e12578082015181840152602081019050610df7565b50505050905090810190601f168015610e3f5780820380516001836020036101000a031916815260200191505b50878103835289818151815260200191508051906020019080838360005b83811015610e78578082015181840152602081019050610e5d565b50505050905090810190601f168015610ea55780820380516001836020036101000a031916815260200191505b50878103825288818151815260200191508051906020019080838360005b83811015610ede578082015181840152602081019050610ec3565b50505050905090810190601f168015610f0b5780820380516001836020036101000a031916815260200191505b509d505050505050505050505050505060405180910390f35b610f2c611e8f565b6040518082815260200191505060405180910390f35b83600160008781526020019081526020016000206003019080519060200190610f6c929190611e95565b5082600160008781526020019081526020016000206004019080519060200190610f97929190611e95565b5081600160008781526020019081526020016000206005019080519060200190610fc2929190611e95565b5080600160008781526020019081526020016000206006019080519060200190610fed929190611e95565b505050505050565b600080600090506000600190505b600054811361122f576001600082815260200190815260200160002060010160405160200180828054600181600116156101000203166002900480156110805780601f1061105e576101008083540402835291820191611080565b820191906000526020600020905b81548152906001019060200180831161106c575b505091505060405160208183030381529060405280519060200120856040516020018082805190602001908083835b602083106110d257805182526020820191506020810190506020830392506110af565b6001836020036101000a0380198251168184511680821785525050505050509050019150506040516020818303038152906040528051906020012014801561121857506001600082815260200190815260200160002060020160405160200180828054600181600116156101000203166002900480156111895780601f10611167576101008083540402835291820191611189565b820191906000526020600020905b815481529060010190602001808311611175575b505091505060405160208183030381529060405280519060200120846040516020018082805190602001908083835b602083106111db57805182526020820191506020810190506020830392506111b8565b6001836020036101000a03801982511681845116808217855250505050505090500191505060405160208183030381529060405280519060200120145b1561122257600191505b8080600101915050611003565b508015611310577fdeb017956c894eba079e6a630f5cfec256256dc05616ad89f1eb825abef459633384604051808373ffffffffffffffffffffffffffffffffffffffff1673ffffffffffffffffffffffffffffffffffffffff16815260200180602001828103825283818151815260200191508051906020019080838360005b838110156112cb5780820151818401526020810190506112b0565b50505050905090810190601f1680156112f85780820380516001836020036101000a031916815260200191505b50935050505060405180910390a16001915050611316565b60009150505b92915050565b600080600081548092919060010191905055506040518060e00160405280600054815260200188815260200187815260200186815260200185815260200184815260200183815250600160008054815260200190815260200160002060008201518160000155602082015181600101908051906020019061139e929190611f15565b5060408201518160020190805190602001906113bb929190611f15565b5060608201518160030190805190602001906113d8929190611f15565b5060808201518160040190805190602001906113f5929190611f15565b5060a0820151816005019080519060200190611412929190611f15565b5060c082015181600601908051906020019061142f929190611f15565b509050506040518060e001604052806000548152602001888152602001878152602001868152602001858152602001848152602001838152506002886040518082805190602001908083835b6020831061149e578051825260208201915060208101905060208303925061147b565b6001836020036101000a03801982511681845116808217855250505050505090500191505090815260200160405180910390206000820151816000015560208201518160010190805190602001906114f7929190611f15565b506040820151816002019080519060200190611514929190611f15565b506060820151816003019080519060200190611531929190611f15565b50608082015181600401908051906020019061154e929190611f15565b5060a082015181600501908051906020019061156b929190611f15565b5060c0820151816006019080519060200190611588929190611f15565b5090505060005490509695505050505050565b600281805160208101820180518482526020830160208501208183528095505050505050600091509050806000015490806001018054600181600116156101000203166002900480601f0160208091040260200160405190810160405280929190818152602001828054600181600116156101000203166002900480156116635780601f1061163857610100808354040283529160200191611663565b820191906000526020600020905b81548152906001019060200180831161164657829003601f168201915b505050505090806002018054600181600116156101000203166002900480601f0160208091040260200160405190810160405280929190818152602001828054600181600116156101000203166002900480156117015780601f106116d657610100808354040283529160200191611701565b820191906000526020600020905b8154815290600101906020018083116116e457829003601f168201915b505050505090806003018054600181600116156101000203166002900480601f01602080910402602001604051908101604052809291908181526020018280546001816001161561010002031660029004801561179f5780601f106117745761010080835404028352916020019161179f565b820191906000526020600020905b81548152906001019060200180831161178257829003601f168201915b505050505090806004018054600181600116156101000203166002900480601f01602080910402602001604051908101604052809291908181526020018280546001816001161561010002031660029004801561183d5780601f106118125761010080835404028352916020019161183d565b820191906000526020600020905b81548152906001019060200180831161182057829003601f168201915b505050505090806005018054600181600116156101000203166002900480601f0160208091040260200160405190810160405280929190818152602001828054600181600116156101000203166002900480156118db5780601f106118b0576101008083540402835291602001916118db565b820191906000526020600020905b8154815290600101906020018083116118be57829003601f168201915b505050505090806006018054600181600116156101000203166002900480601f0160208091040260200160405190810160405280929190818152602001828054600181600116156101000203166002900480156119795780601f1061194e57610100808354040283529160200191611979565b820191906000526020600020905b81548152906001019060200180831161195c57829003601f168201915b5050505050905087565b600080600190505b6000548113611ab257600160008281526020019081526020016000206001016040516020018082805460018160011615610100020316600290048015611a085780601f106119e6576101008083540402835291820191611a08565b820191906000526020600020905b8154815290600101906020018083116119f4575b505091505060405160208183030381529060405280519060200120836040516020018082805190602001908083835b60208310611a5a5780518252602082019150602081019050602083039250611a37565b6001836020036101000a038019825116818451168082178552505050505050905001915050604051602081830303815290604052805190602001201415611aa5576000915050611ab8565b808060010191505061198b565b50600190505b919050565b6001602052806000526040600020600091509050806000015490806001018054600181600116156101000203166002900480601f016020809104026020016040519081016040528092919081815260200182805460018160011615610100020316600290048015611b6f5780601f10611b4457610100808354040283529160200191611b6f565b820191906000526020600020905b815481529060010190602001808311611b5257829003601f168201915b505050505090806002018054600181600116156101000203166002900480601f016020809104026020016040519081016040528092919081815260200182805460018160011615610100020316600290048015611c0d5780601f10611be257610100808354040283529160200191611c0d565b820191906000526020600020905b815481529060010190602001808311611bf057829003601f168201915b505050505090806003018054600181600116156101000203166002900480601f016020809104026020016040519081016040528092919081815260200182805460018160011615610100020316600290048015611cab5780601f10611c8057610100808354040283529160200191611cab565b820191906000526020600020905b815481529060010190602001808311611c8e57829003601f168201915b505050505090806004018054600181600116156101000203166002900480601f016020809104026020016040519081016040528092919081815260200182805460018160011615610100020316600290048015611d495780601f10611d1e57610100808354040283529160200191611d49565b820191906000526020600020905b815481529060010190602001808311611d2c57829003601f168201915b505050505090806005018054600181600116156101000203166002900480601f016020809104026020016040519081016040528092919081815260200182805460018160011615610100020316600290048015611de75780601f10611dbc57610100808354040283529160200191611de7565b820191906000526020600020905b815481529060010190602001808311611dca57829003601f168201915b505050505090806006018054600181600116156101000203166002900480601f016020809104026020016040519081016040528092919081815260200182805460018160011615610100020316600290048015611e855780601f10611e5a57610100808354040283529160200191611e85565b820191906000526020600020905b815481529060010190602001808311611e6857829003601f168201915b5050505050905087565b60005481565b828054600181600116156101000203166002900490600052602060002090601f016020900481019282601f10611ed657805160ff1916838001178555611f04565b82800160010185558215611f04579182015b82811115611f03578251825591602001919060010190611ee8565b5b509050611f119190611f95565b5090565b828054600181600116156101000203166002900490600052602060002090601f016020900481019282601f10611f5657805160ff1916838001178555611f84565b82800160010185558215611f84579182015b82811115611f83578251825591602001919060010190611f68565b5b509050611f919190611f95565b5090565b611fb791905b80821115611fb3576000816000905550600101611f9b565b5090565b9056fea265627a7a72315820be832c9616096e0c7c6a2441dc3353179a6cfec558de2371f59edb2599efb6aa64736f6c63430005100032",
  "source": "// SPDX-License-Identifier: MIT\r\npragma solidity >=0.4.22 <0.9.0;\r\n\r\ncontract Korisnici{\r\n\r\n    event LoginAttempt(address sender, string challenge);\r\n\r\n    struct Korisnik{\r\n        int id;\r\n        string mejl;\r\n        string password;\r\n        string ime;\r\n        string prezime;\r\n        string brojTelefona;\r\n        string adresa;\r\n    }\r\n\r\n    int public brojKorisnika = 0;\r\n\r\n    mapping (int => Korisnik) public korisnici;\r\n    mapping (string => Korisnik) public korisniciMail;\r\n\r\n    function dodajKorisnika (string memory _mejl, string memory _password, string memory _ime, string memory _prezime, string memory _brojTelefona, string memory _adresa) public returns(int)\r\n    {\r\n        brojKorisnika++;\r\n        korisnici[brojKorisnika] = Korisnik(brojKorisnika, _mejl, _password, _ime, _prezime, _brojTelefona, _adresa);\r\n        korisniciMail[_mejl] = Korisnik(brojKorisnika, _mejl, _password, _ime, _prezime, _brojTelefona, _adresa);\r\n        return brojKorisnika;\r\n    }\r\n\r\n    //Prilikom pravljenja novog naloga moramo da proverimo da li taj korisnik vec postoji\r\n    function proveriUsername(string memory _username) view public returns(int) {\r\n        for (int i = 1; i <= brojKorisnika; i++) {\r\n            if( keccak256(abi.encodePacked(_username)) == keccak256(abi.encodePacked(korisnici[i].mejl)) ) {\r\n                return 0;\r\n            }\r\n        }\r\n        return 1;\r\n    }\r\n\r\n    function prijavljivanje (string memory _username, string memory _password) public returns (int)\r\n    {\r\n        bool nasao = false;\r\n        for (int i = 1; i <= brojKorisnika; i++) {\r\n            if(keccak256(abi.encodePacked(_username)) == keccak256(abi.encodePacked(korisnici[i].mejl)) && keccak256(abi.encodePacked(_password)) == keccak256(abi.encodePacked(korisnici[i].password))) {\r\n                nasao = true;\r\n            }\r\n        }\r\n\r\n        if(nasao){\r\n            emit LoginAttempt(msg.sender, _password);\r\n            return 1;\r\n        }\r\n        return 0;\r\n    }\r\n\r\n    //da se zavrsi\r\n    /*function izmeniPassword (int _id, string memory _stariPassword, string memory _noviPassword) public\r\n    {\r\n        korisnici[_id].password = _password;\r\n    }*/\r\n\r\n    function izmeniKorisnika (int _id, string memory _ime, string memory _prezime, string memory _broj, string memory _adresa) public\r\n    {\r\n        korisnici[_id].ime = _ime;\r\n        korisnici[_id].prezime = _prezime;\r\n        korisnici[_id].brojTelefona = _broj;\r\n        korisnici[_id].adresa = _adresa;\r\n    }\r\n}",
  "sourcePath": "C:/Users/beslac_lazar/Desktop/project_dev/ChainTech/App/frontend/app/contracts/Korisnici.sol",
  "compiler": {
    "name": "solc",
    "version": "0.5.16+commit.9c3226ce.Emscripten.clang"
  },
  "schemaVersion": "3.3.4",
  "updatedAt": "2021-04-14T01:24:21.958Z",
  "networkType": "ethereum",
  "devdoc": {
    "methods": {}
  },
  "userdoc": {
    "methods": {}
  }
}