{
  "contractName": "Korisnici",
  "abi": [
    {
      "constant": true,
      "inputs": [],
      "name": "brojKorisnika",
      "outputs": [
        {
          "internalType": "int256",
          "name": "",
          "type": "int256"
        }
      ],
      "payable": false,
      "stateMutability": "view",
      "type": "function"
    },
    {
      "constant": true,
      "inputs": [
        {
          "internalType": "int256",
          "name": "",
          "type": "int256"
        }
      ],
      "name": "korisnici",
      "outputs": [
        {
          "internalType": "int256",
          "name": "id",
          "type": "int256"
        },
        {
          "internalType": "string",
          "name": "mejl",
          "type": "string"
        },
        {
          "internalType": "string",
          "name": "password",
          "type": "string"
        },
        {
          "internalType": "string",
          "name": "ime",
          "type": "string"
        },
        {
          "internalType": "string",
          "name": "prezime",
          "type": "string"
        },
        {
          "internalType": "string",
          "name": "brojTelefona",
          "type": "string"
        },
        {
          "internalType": "string",
          "name": "adresa",
          "type": "string"
        }
      ],
      "payable": false,
      "stateMutability": "view",
      "type": "function"
    },
    {
      "constant": true,
      "inputs": [
        {
          "internalType": "string",
          "name": "",
          "type": "string"
        }
      ],
      "name": "korisniciMail",
      "outputs": [
        {
          "internalType": "int256",
          "name": "id",
          "type": "int256"
        },
        {
          "internalType": "string",
          "name": "mejl",
          "type": "string"
        },
        {
          "internalType": "string",
          "name": "password",
          "type": "string"
        },
        {
          "internalType": "string",
          "name": "ime",
          "type": "string"
        },
        {
          "internalType": "string",
          "name": "prezime",
          "type": "string"
        },
        {
          "internalType": "string",
          "name": "brojTelefona",
          "type": "string"
        },
        {
          "internalType": "string",
          "name": "adresa",
          "type": "string"
        }
      ],
      "payable": false,
      "stateMutability": "view",
      "type": "function"
    },
    {
      "constant": false,
      "inputs": [
        {
          "internalType": "string",
          "name": "_mejl",
          "type": "string"
        },
        {
          "internalType": "string",
          "name": "_password",
          "type": "string"
        },
        {
          "internalType": "string",
          "name": "_ime",
          "type": "string"
        },
        {
          "internalType": "string",
          "name": "_prezime",
          "type": "string"
        },
        {
          "internalType": "string",
          "name": "_brojTelefona",
          "type": "string"
        },
        {
          "internalType": "string",
          "name": "_adresa",
          "type": "string"
        }
      ],
      "name": "dodajKorisnika",
      "outputs": [
        {
          "internalType": "int256",
          "name": "",
          "type": "int256"
        }
      ],
      "payable": false,
      "stateMutability": "nonpayable",
      "type": "function"
    },
    {
      "constant": true,
      "inputs": [
        {
          "internalType": "string",
          "name": "_username",
          "type": "string"
        }
      ],
      "name": "proveriUsername",
      "outputs": [
        {
          "internalType": "int256",
          "name": "",
          "type": "int256"
        }
      ],
      "payable": false,
      "stateMutability": "view",
      "type": "function"
    },
    {
      "constant": true,
      "inputs": [
        {
          "internalType": "string",
          "name": "_username",
          "type": "string"
        },
        {
          "internalType": "string",
          "name": "_password",
          "type": "string"
        }
      ],
      "name": "prijavljivanje",
      "outputs": [
        {
          "internalType": "int256",
          "name": "",
          "type": "int256"
        }
      ],
      "payable": false,
      "stateMutability": "view",
      "type": "function"
    },
    {
      "constant": false,
      "inputs": [
        {
          "internalType": "int256",
          "name": "_id",
          "type": "int256"
        }
      ],
      "name": "obrisiKorisnika",
      "outputs": [],
      "payable": false,
      "stateMutability": "nonpayable",
      "type": "function"
    },
    {
      "constant": false,
      "inputs": [
        {
          "internalType": "int256",
          "name": "_id",
          "type": "int256"
        },
        {
          "internalType": "string",
          "name": "_username",
          "type": "string"
        }
      ],
      "name": "izmeniUsername",
      "outputs": [],
      "payable": false,
      "stateMutability": "nonpayable",
      "type": "function"
    },
    {
      "constant": false,
      "inputs": [
        {
          "internalType": "int256",
          "name": "_id",
          "type": "int256"
        },
        {
          "internalType": "string",
          "name": "_password",
          "type": "string"
        }
      ],
      "name": "izmeniPassword",
      "outputs": [],
      "payable": false,
      "stateMutability": "nonpayable",
      "type": "function"
    }
  ],
  "bytecode": "0x60806040526000805534801561001457600080fd5b50612193806100246000396000f3fe608060405234801561001057600080fd5b50600436106100935760003560e01c80638719718f116100665780638719718f14610945578063961a38e814610a145780639644dd7714610ad9578063d042042014610da3578063eca9199a14610dc157610093565b8063267d079b146100985780637306b6ea146101fe578063828fc8fc146105c057806383da5446146105ee575b600080fd5b6101e8600480360360408110156100ae57600080fd5b81019080803590602001906401000000008111156100cb57600080fd5b8201836020820111156100dd57600080fd5b803590602001918460018302840111640100000000831117156100ff57600080fd5b91908080601f016020809104026020016040519081016040528093929190818152602001838380828437600081840152601f19601f8201169050808301925050505050505091929192908035906020019064010000000081111561016257600080fd5b82018360208201111561017457600080fd5b8035906020019184600183028401116401000000008311171561019657600080fd5b91908080601f016020809104026020016040519081016040528093929190818152602001838380828437600081840152601f19601f820116905080830192505050505050509192919290505050610e86565b6040518082815260200191505060405180910390f35b6105aa600480360360c081101561021457600080fd5b810190808035906020019064010000000081111561023157600080fd5b82018360208201111561024357600080fd5b8035906020019184600183028401116401000000008311171561026557600080fd5b91908080601f016020809104026020016040519081016040528093929190818152602001838380828437600081840152601f19601f820116905080830192505050505050509192919290803590602001906401000000008111156102c857600080fd5b8201836020820111156102da57600080fd5b803590602001918460018302840111640100000000831117156102fc57600080fd5b91908080601f016020809104026020016040519081016040528093929190818152602001838380828437600081840152601f19601f8201169050808301925050505050505091929192908035906020019064010000000081111561035f57600080fd5b82018360208201111561037157600080fd5b8035906020019184600183028401116401000000008311171561039357600080fd5b91908080601f016020809104026020016040519081016040528093929190818152602001838380828437600081840152601f19601f820116905080830192505050505050509192919290803590602001906401000000008111156103f657600080fd5b82018360208201111561040857600080fd5b8035906020019184600183028401116401000000008311171561042a57600080fd5b91908080601f016020809104026020016040519081016040528093929190818152602001838380828437600081840152601f19601f8201169050808301925050505050505091929192908035906020019064010000000081111561048d57600080fd5b82018360208201111561049f57600080fd5b803590602001918460018302840111640100000000831117156104c157600080fd5b91908080601f016020809104026020016040519081016040528093929190818152602001838380828437600081840152601f19601f8201169050808301925050505050505091929192908035906020019064010000000081111561052457600080fd5b82018360208201111561053657600080fd5b8035906020019184600183028401116401000000008311171561055857600080fd5b91908080601f016020809104026020016040519081016040528093929190818152602001838380828437600081840152601f19601f8201169050808301925050505050505091929192905050506110ca565b6040518082815260200191505060405180910390f35b6105ec600480360360208110156105d657600080fd5b8101908080359060200190929190505050611349565b005b6106a76004803603602081101561060457600080fd5b810190808035906020019064010000000081111561062157600080fd5b82018360208201111561063357600080fd5b8035906020019184600183028401116401000000008311171561065557600080fd5b91908080601f016020809104026020016040519081016040528093929190818152602001838380828437600081840152601f19601f82011690508083019250505050505050919291929050505061161d565b6040518088815260200180602001806020018060200180602001806020018060200187810387528d818151815260200191508051906020019080838360005b838110156107015780820151818401526020810190506106e6565b50505050905090810190601f16801561072e5780820380516001836020036101000a031916815260200191505b5087810386528c818151815260200191508051906020019080838360005b8381101561076757808201518184015260208101905061074c565b50505050905090810190601f1680156107945780820380516001836020036101000a031916815260200191505b5087810385528b818151815260200191508051906020019080838360005b838110156107cd5780820151818401526020810190506107b2565b50505050905090810190601f1680156107fa5780820380516001836020036101000a031916815260200191505b5087810384528a818151815260200191508051906020019080838360005b83811015610833578082015181840152602081019050610818565b50505050905090810190601f1680156108605780820380516001836020036101000a031916815260200191505b50878103835289818151815260200191508051906020019080838360005b8381101561089957808201518184015260208101905061087e565b50505050905090810190601f1680156108c65780820380516001836020036101000a031916815260200191505b50878103825288818151815260200191508051906020019080838360005b838110156108ff5780820151818401526020810190506108e4565b50505050905090810190601f16801561092c5780820380516001836020036101000a031916815260200191505b509d505050505050505050505050505060405180910390f35b6109fe6004803603602081101561095b57600080fd5b810190808035906020019064010000000081111561097857600080fd5b82018360208201111561098a57600080fd5b803590602001918460018302840111640100000000831117156109ac57600080fd5b91908080601f016020809104026020016040519081016040528093929190818152602001838380828437600081840152601f19601f820116905080830192505050505050509192919290505050611a05565b6040518082815260200191505060405180910390f35b610ad760048036036040811015610a2a57600080fd5b810190808035906020019092919080359060200190640100000000811115610a5157600080fd5b820183602082011115610a6357600080fd5b80359060200191846001830284011164010000000083111715610a8557600080fd5b91908080601f016020809104026020016040519081016040528093929190818152602001838380828437600081840152601f19601f820116905080830192505050505050509192919290505050611b3f565b005b610b0560048036036020811015610aef57600080fd5b8101908080359060200190929190505050611b6e565b6040518088815260200180602001806020018060200180602001806020018060200187810387528d818151815260200191508051906020019080838360005b83811015610b5f578082015181840152602081019050610b44565b50505050905090810190601f168015610b8c5780820380516001836020036101000a031916815260200191505b5087810386528c818151815260200191508051906020019080838360005b83811015610bc5578082015181840152602081019050610baa565b50505050905090810190601f168015610bf25780820380516001836020036101000a031916815260200191505b5087810385528b818151815260200191508051906020019080838360005b83811015610c2b578082015181840152602081019050610c10565b50505050905090810190601f168015610c585780820380516001836020036101000a031916815260200191505b5087810384528a818151815260200191508051906020019080838360005b83811015610c91578082015181840152602081019050610c76565b50505050905090810190601f168015610cbe5780820380516001836020036101000a031916815260200191505b50878103835289818151815260200191508051906020019080838360005b83811015610cf7578082015181840152602081019050610cdc565b50505050905090810190601f168015610d245780820380516001836020036101000a031916815260200191505b50878103825288818151815260200191508051906020019080838360005b83811015610d5d578082015181840152602081019050610d42565b50505050905090810190601f168015610d8a5780820380516001836020036101000a031916815260200191505b509d505050505050505050505050505060405180910390f35b610dab611f40565b6040518082815260200191505060405180910390f35b610e8460048036036040811015610dd757600080fd5b810190808035906020019092919080359060200190640100000000811115610dfe57600080fd5b820183602082011115610e1057600080fd5b80359060200191846001830284011164010000000083111715610e3257600080fd5b91908080601f016020809104026020016040519081016040528093929190818152602001838380828437600081840152601f19601f820116905080830192505050505050509192919290505050611f46565b005b600080600190505b60005481136110be57600160008281526020019081526020016000206001016040516020018082805460018160011615610100020316600290048015610f0b5780601f10610ee9576101008083540402835291820191610f0b565b820191906000526020600020905b815481529060010190602001808311610ef7575b505091505060405160208183030381529060405280519060200120846040516020018082805190602001908083835b60208310610f5d5780518252602082019150602081019050602083039250610f3a565b6001836020036101000a038019825116818451168082178552505050505050905001915050604051602081830303815290604052805190602001201480156110a357506001600082815260200190815260200160002060020160405160200180828054600181600116156101000203166002900480156110145780601f10610ff2576101008083540402835291820191611014565b820191906000526020600020905b815481529060010190602001808311611000575b505091505060405160208183030381529060405280519060200120836040516020018082805190602001908083835b602083106110665780518252602082019150602081019050602083039250611043565b6001836020036101000a03801982511681845116808217855250505050505090500191505060405160208183030381529060405280519060200120145b156110b157809150506110c4565b8080600101915050610e8e565b50600090505b92915050565b600080600081548092919060010191905055506040518060e00160405280600054815260200188815260200187815260200186815260200185815260200184815260200183815250600160008054815260200190815260200160002060008201518160000155602082015181600101908051906020019061114c929190611f75565b506040820151816002019080519060200190611169929190611f75565b506060820151816003019080519060200190611186929190611f75565b5060808201518160040190805190602001906111a3929190611f75565b5060a08201518160050190805190602001906111c0929190611f75565b5060c08201518160060190805190602001906111dd929190611f75565b509050506040518060e001604052806000548152602001888152602001878152602001868152602001858152602001848152602001838152506002886040518082805190602001908083835b6020831061124c5780518252602082019150602081019050602083039250611229565b6001836020036101000a03801982511681845116808217855250505050505090500191505090815260200160405180910390206000820151816000015560208201518160010190805190602001906112a5929190611f75565b5060408201518160020190805190602001906112c2929190611f75565b5060608201518160030190805190602001906112df929190611f75565b5060808201518160040190805190602001906112fc929190611f75565b5060a0820151816005019080519060200190611319929190611f75565b5060c0820151816006019080519060200190611336929190611f75565b5090505060005490509695505050505050565b600160008281526020019081526020016000206000015460016000805481526020019081526020016000206000018190555060016000805481526020019081526020016000206001600083815260200190815260200160002060008201548160000155600182018160010190805460018160011615610100020316600290046113d3929190611ff5565b50600282018160020190805460018160011615610100020316600290046113fb929190611ff5565b5060038201816003019080546001816001161561010002031660029004611423929190611ff5565b506004820181600401908054600181600116156101000203166002900461144b929190611ff5565b5060058201816005019080546001816001161561010002031660029004611473929190611ff5565b506006820181600601908054600181600116156101000203166002900461149b929190611ff5565b509050506114a761207c565b6040518060e0016040528060008152602001604051806020016040528060008152508152602001604051806020016040528060008152508152602001604051806020016040528060008152508152602001604051806020016040528060008152508152602001604051806020016040528060008152508152602001604051806020016040528060008152508152509050806001600080548152602001908152602001600020600082015181600001556020820151816001019080519060200190611572929190611f75565b50604082015181600201908051906020019061158f929190611f75565b5060608201518160030190805190602001906115ac929190611f75565b5060808201518160040190805190602001906115c9929190611f75565b5060a08201518160050190805190602001906115e6929190611f75565b5060c0820151816006019080519060200190611603929190611f75565b509050506000808154809291906001900391905055505050565b600281805160208101820180518482526020830160208501208183528095505050505050600091509050806000015490806001018054600181600116156101000203166002900480601f0160208091040260200160405190810160405280929190818152602001828054600181600116156101000203166002900480156116e55780601f106116ba576101008083540402835291602001916116e5565b820191906000526020600020905b8154815290600101906020018083116116c857829003601f168201915b505050505090806002018054600181600116156101000203166002900480601f0160208091040260200160405190810160405280929190818152602001828054600181600116156101000203166002900480156117835780601f1061175857610100808354040283529160200191611783565b820191906000526020600020905b81548152906001019060200180831161176657829003601f168201915b505050505090806003018054600181600116156101000203166002900480601f0160208091040260200160405190810160405280929190818152602001828054600181600116156101000203166002900480156118215780601f106117f657610100808354040283529160200191611821565b820191906000526020600020905b81548152906001019060200180831161180457829003601f168201915b505050505090806004018054600181600116156101000203166002900480601f0160208091040260200160405190810160405280929190818152602001828054600181600116156101000203166002900480156118bf5780601f10611894576101008083540402835291602001916118bf565b820191906000526020600020905b8154815290600101906020018083116118a257829003601f168201915b505050505090806005018054600181600116156101000203166002900480601f01602080910402602001604051908101604052809291908181526020018280546001816001161561010002031660029004801561195d5780601f106119325761010080835404028352916020019161195d565b820191906000526020600020905b81548152906001019060200180831161194057829003601f168201915b505050505090806006018054600181600116156101000203166002900480601f0160208091040260200160405190810160405280929190818152602001828054600181600116156101000203166002900480156119fb5780601f106119d0576101008083540402835291602001916119fb565b820191906000526020600020905b8154815290600101906020018083116119de57829003601f168201915b5050505050905087565b600080600190505b6000548113611b3457600160008281526020019081526020016000206001016040516020018082805460018160011615610100020316600290048015611a8a5780601f10611a68576101008083540402835291820191611a8a565b820191906000526020600020905b815481529060010190602001808311611a76575b505091505060405160208183030381529060405280519060200120836040516020018082805190602001908083835b60208310611adc5780518252602082019150602081019050602083039250611ab9565b6001836020036101000a038019825116818451168082178552505050505050905001915050604051602081830303815290604052805190602001201415611b27576000915050611b3a565b8080600101915050611a0d565b50600190505b919050565b80600160008481526020019081526020016000206002019080519060200190611b699291906120b9565b505050565b6001602052806000526040600020600091509050806000015490806001018054600181600116156101000203166002900480601f016020809104026020016040519081016040528092919081815260200182805460018160011615610100020316600290048015611c205780601f10611bf557610100808354040283529160200191611c20565b820191906000526020600020905b815481529060010190602001808311611c0357829003601f168201915b505050505090806002018054600181600116156101000203166002900480601f016020809104026020016040519081016040528092919081815260200182805460018160011615610100020316600290048015611cbe5780601f10611c9357610100808354040283529160200191611cbe565b820191906000526020600020905b815481529060010190602001808311611ca157829003601f168201915b505050505090806003018054600181600116156101000203166002900480601f016020809104026020016040519081016040528092919081815260200182805460018160011615610100020316600290048015611d5c5780601f10611d3157610100808354040283529160200191611d5c565b820191906000526020600020905b815481529060010190602001808311611d3f57829003601f168201915b505050505090806004018054600181600116156101000203166002900480601f016020809104026020016040519081016040528092919081815260200182805460018160011615610100020316600290048015611dfa5780601f10611dcf57610100808354040283529160200191611dfa565b820191906000526020600020905b815481529060010190602001808311611ddd57829003601f168201915b505050505090806005018054600181600116156101000203166002900480601f016020809104026020016040519081016040528092919081815260200182805460018160011615610100020316600290048015611e985780601f10611e6d57610100808354040283529160200191611e98565b820191906000526020600020905b815481529060010190602001808311611e7b57829003601f168201915b505050505090806006018054600181600116156101000203166002900480601f016020809104026020016040519081016040528092919081815260200182805460018160011615610100020316600290048015611f365780601f10611f0b57610100808354040283529160200191611f36565b820191906000526020600020905b815481529060010190602001808311611f1957829003601f168201915b5050505050905087565b60005481565b80600160008481526020019081526020016000206001019080519060200190611f709291906120b9565b505050565b828054600181600116156101000203166002900490600052602060002090601f016020900481019282601f10611fb657805160ff1916838001178555611fe4565b82800160010185558215611fe4579182015b82811115611fe3578251825591602001919060010190611fc8565b5b509050611ff19190612139565b5090565b828054600181600116156101000203166002900490600052602060002090601f016020900481019282601f1061202e578054855561206b565b8280016001018555821561206b57600052602060002091601f016020900482015b8281111561206a57825482559160010191906001019061204f565b5b5090506120789190612139565b5090565b6040518060e00160405280600081526020016060815260200160608152602001606081526020016060815260200160608152602001606081525090565b828054600181600116156101000203166002900490600052602060002090601f016020900481019282601f106120fa57805160ff1916838001178555612128565b82800160010185558215612128579182015b8281111561212757825182559160200191906001019061210c565b5b5090506121359190612139565b5090565b61215b91905b8082111561215757600081600090555060010161213f565b5090565b9056fea265627a7a7231582038437c184eb1b79f9b1871a096f73bc30fd3dcb86fefd6d36a8c1ef69d5c39be64736f6c63430005100032",
  "source": "// SPDX-License-Identifier: MIT\r\npragma solidity >=0.4.22 <0.9.0;\r\n\r\ncontract Korisnici{\r\n\r\n    struct Korisnik{\r\n        int id;\r\n        string mejl;\r\n        string password;\r\n        string ime;\r\n        string prezime;\r\n        string brojTelefona;\r\n        string adresa;\r\n    }\r\n\r\n    int public brojKorisnika = 0;\r\n\r\n    mapping (int => Korisnik) public korisnici;\r\n    mapping (string => Korisnik) public korisniciMail;\r\n\r\n    function dodajKorisnika (string memory _mejl, string memory _password, string memory _ime, string memory _prezime, string memory _brojTelefona, string memory _adresa) public returns(int)\r\n    {\r\n        brojKorisnika++;\r\n        korisnici[brojKorisnika] = Korisnik(brojKorisnika, _mejl, _password, _ime, _prezime, _brojTelefona, _adresa);\r\n        korisniciMail[_mejl] = Korisnik(brojKorisnika, _mejl, _password, _ime, _prezime, _brojTelefona, _adresa);\r\n        return brojKorisnika;\r\n    }\r\n\r\n    //Prilikom pravljenja novog naloga moramo da proverimo da li taj korisnik vec postoji\r\n    function proveriUsername(string memory _username) view public returns(int) {\r\n        for (int i = 1; i <= brojKorisnika; i++) {\r\n            if( keccak256(abi.encodePacked(_username)) == keccak256(abi.encodePacked(korisnici[i].mejl)) ) {\r\n                return 0;\r\n            }\r\n        }\r\n        return 1;\r\n    }\r\n\r\n    function prijavljivanje (string memory _username, string memory _password) public view returns (int)\r\n    {\r\n        for (int i = 1; i <= brojKorisnika; i++) {\r\n            if(keccak256(abi.encodePacked(_username)) == keccak256(abi.encodePacked(korisnici[i].mejl)) && keccak256(abi.encodePacked(_password)) == keccak256(abi.encodePacked(korisnici[i].password)))\r\n                return i;\r\n        }\r\n        return 0;\r\n    }\r\n\r\n    function obrisiKorisnika (int _id) public\r\n    {\r\n        korisnici[brojKorisnika].id = korisnici[_id].id;\r\n        korisnici[_id] = korisnici[brojKorisnika];\r\n        Korisnik memory k = Korisnik(0, \"\", \"\", \"\", \"\", \"\", \"\");\r\n        korisnici[brojKorisnika] = k;\r\n        brojKorisnika--;\r\n    }\r\n\r\n    function izmeniUsername (int _id, string memory _username) public\r\n    {\r\n        korisnici[_id].mejl = _username;\r\n    }\r\n\r\n    function izmeniPassword (int _id, string memory _password) public\r\n    {\r\n        korisnici[_id].password = _password;\r\n    }\r\n}",
  "sourcePath": "C:/Users/beslac_lazar/Desktop/project dev/App/frontend/app/contracts/Korisnici.sol",
  "compiler": {
    "name": "solc",
    "version": "0.5.16+commit.9c3226ce.Emscripten.clang"
  },
  "schemaVersion": "3.3.4",
  "updatedAt": "2021-03-28T01:37:17.568Z",
  "networkType": "ethereum",
  "devdoc": {
    "methods": {}
  },
  "userdoc": {
    "methods": {}
  }
}