{
  "contractName": "Korisnici",
  "abi": [
    {
      "constant": true,
      "inputs": [],
      "name": "brojKorisnika",
      "outputs": [
        {
          "internalType": "int256",
          "name": "",
          "type": "int256"
        }
      ],
      "payable": false,
      "stateMutability": "view",
      "type": "function"
    },
    {
      "constant": true,
      "inputs": [
        {
          "internalType": "int256",
          "name": "",
          "type": "int256"
        }
      ],
      "name": "korisnici",
      "outputs": [
        {
          "internalType": "int256",
          "name": "id",
          "type": "int256"
        },
        {
          "internalType": "string",
          "name": "username",
          "type": "string"
        },
        {
          "internalType": "string",
          "name": "password",
          "type": "string"
        },
        {
          "internalType": "string",
          "name": "ime",
          "type": "string"
        },
        {
          "internalType": "string",
          "name": "prezime",
          "type": "string"
        },
        {
          "internalType": "string",
          "name": "mejl",
          "type": "string"
        },
        {
          "internalType": "string",
          "name": "brojTelefona",
          "type": "string"
        },
        {
          "internalType": "string",
          "name": "adresa",
          "type": "string"
        }
      ],
      "payable": false,
      "stateMutability": "view",
      "type": "function"
    },
    {
      "constant": false,
      "inputs": [
        {
          "internalType": "string",
          "name": "_username",
          "type": "string"
        },
        {
          "internalType": "string",
          "name": "_password",
          "type": "string"
        },
        {
          "internalType": "string",
          "name": "_ime",
          "type": "string"
        },
        {
          "internalType": "string",
          "name": "_prezime",
          "type": "string"
        },
        {
          "internalType": "string",
          "name": "_mejl",
          "type": "string"
        },
        {
          "internalType": "string",
          "name": "_brojTelefona",
          "type": "string"
        },
        {
          "internalType": "string",
          "name": "_adresa",
          "type": "string"
        }
      ],
      "name": "dodajKorisnika",
      "outputs": [
        {
          "internalType": "int256",
          "name": "",
          "type": "int256"
        }
      ],
      "payable": false,
      "stateMutability": "nonpayable",
      "type": "function"
    },
    {
      "constant": true,
      "inputs": [
        {
          "internalType": "string",
          "name": "_username",
          "type": "string"
        }
      ],
      "name": "proveriUsername",
      "outputs": [
        {
          "internalType": "int256",
          "name": "",
          "type": "int256"
        }
      ],
      "payable": false,
      "stateMutability": "view",
      "type": "function"
    },
    {
      "constant": true,
      "inputs": [
        {
          "internalType": "string",
          "name": "_username",
          "type": "string"
        },
        {
          "internalType": "string",
          "name": "_password",
          "type": "string"
        }
      ],
      "name": "prijavljivanje",
      "outputs": [
        {
          "internalType": "int256",
          "name": "",
          "type": "int256"
        }
      ],
      "payable": false,
      "stateMutability": "view",
      "type": "function"
    },
    {
      "constant": false,
      "inputs": [
        {
          "internalType": "int256",
          "name": "_id",
          "type": "int256"
        }
      ],
      "name": "obrisiKorisnika",
      "outputs": [],
      "payable": false,
      "stateMutability": "nonpayable",
      "type": "function"
    },
    {
      "constant": false,
      "inputs": [
        {
          "internalType": "int256",
          "name": "_id",
          "type": "int256"
        },
        {
          "internalType": "string",
          "name": "_username",
          "type": "string"
        }
      ],
      "name": "izmeniUsername",
      "outputs": [],
      "payable": false,
      "stateMutability": "nonpayable",
      "type": "function"
    },
    {
      "constant": false,
      "inputs": [
        {
          "internalType": "int256",
          "name": "_id",
          "type": "int256"
        },
        {
          "internalType": "string",
          "name": "_password",
          "type": "string"
        }
      ],
      "name": "izmeniPassword",
      "outputs": [],
      "payable": false,
      "stateMutability": "nonpayable",
      "type": "function"
    }
  ],
  "bytecode": "0x60806040526000805534801561001457600080fd5b50611b19806100246000396000f3fe608060405234801561001057600080fd5b50600436106100885760003560e01c80639644dd771161005b5780639644dd77146103b5578063a984544f146106eb578063d042042014610b44578063eca9199a14610b6257610088565b8063267d079b1461008d578063828fc8fc146101f35780638719718f14610221578063961a38e8146102f0575b600080fd5b6101dd600480360360408110156100a357600080fd5b81019080803590602001906401000000008111156100c057600080fd5b8201836020820111156100d257600080fd5b803590602001918460018302840111640100000000831117156100f457600080fd5b91908080601f016020809104026020016040519081016040528093929190818152602001838380828437600081840152601f19601f8201169050808301925050505050505091929192908035906020019064010000000081111561015757600080fd5b82018360208201111561016957600080fd5b8035906020019184600183028401116401000000008311171561018b57600080fd5b91908080601f016020809104026020016040519081016040528093929190818152602001838380828437600081840152601f19601f820116905080830192505050505050509192919290505050610c27565b6040518082815260200191505060405180910390f35b61021f6004803603602081101561020957600080fd5b8101908080359060200190929190505050610e6b565b005b6102da6004803603602081101561023757600080fd5b810190808035906020019064010000000081111561025457600080fd5b82018360208201111561026657600080fd5b8035906020019184600183028401116401000000008311171561028857600080fd5b91908080601f016020809104026020016040519081016040528093929190818152602001838380828437600081840152601f19601f82011690508083019250505050505050919291929050505061119a565b6040518082815260200191505060405180910390f35b6103b36004803603604081101561030657600080fd5b81019080803590602001909291908035906020019064010000000081111561032d57600080fd5b82018360208201111561033f57600080fd5b8035906020019184600183028401116401000000008311171561036157600080fd5b91908080601f016020809104026020016040519081016040528093929190818152602001838380828437600081840152601f19601f8201169050808301925050505050505091929192905050506112d4565b005b6103e1600480360360208110156103cb57600080fd5b8101908080359060200190929190505050611303565b604051808981526020018060200180602001806020018060200180602001806020018060200188810388528f818151815260200191508051906020019080838360005b8381101561043f578082015181840152602081019050610424565b50505050905090810190601f16801561046c5780820380516001836020036101000a031916815260200191505b5088810387528e818151815260200191508051906020019080838360005b838110156104a557808201518184015260208101905061048a565b50505050905090810190601f1680156104d25780820380516001836020036101000a031916815260200191505b5088810386528d818151815260200191508051906020019080838360005b8381101561050b5780820151818401526020810190506104f0565b50505050905090810190601f1680156105385780820380516001836020036101000a031916815260200191505b5088810385528c818151815260200191508051906020019080838360005b83811015610571578082015181840152602081019050610556565b50505050905090810190601f16801561059e5780820380516001836020036101000a031916815260200191505b5088810384528b818151815260200191508051906020019080838360005b838110156105d75780820151818401526020810190506105bc565b50505050905090810190601f1680156106045780820380516001836020036101000a031916815260200191505b5088810383528a818151815260200191508051906020019080838360005b8381101561063d578082015181840152602081019050610622565b50505050905090810190601f16801561066a5780820380516001836020036101000a031916815260200191505b50888103825289818151815260200191508051906020019080838360005b838110156106a3578082015181840152602081019050610688565b50505050905090810190601f1680156106d05780820380516001836020036101000a031916815260200191505b509f5050505050505050505050505050505060405180910390f35b610b2e600480360360e081101561070157600080fd5b810190808035906020019064010000000081111561071e57600080fd5b82018360208201111561073057600080fd5b8035906020019184600183028401116401000000008311171561075257600080fd5b91908080601f016020809104026020016040519081016040528093929190818152602001838380828437600081840152601f19601f820116905080830192505050505050509192919290803590602001906401000000008111156107b557600080fd5b8201836020820111156107c757600080fd5b803590602001918460018302840111640100000000831117156107e957600080fd5b91908080601f016020809104026020016040519081016040528093929190818152602001838380828437600081840152601f19601f8201169050808301925050505050505091929192908035906020019064010000000081111561084c57600080fd5b82018360208201111561085e57600080fd5b8035906020019184600183028401116401000000008311171561088057600080fd5b91908080601f016020809104026020016040519081016040528093929190818152602001838380828437600081840152601f19601f820116905080830192505050505050509192919290803590602001906401000000008111156108e357600080fd5b8201836020820111156108f557600080fd5b8035906020019184600183028401116401000000008311171561091757600080fd5b91908080601f016020809104026020016040519081016040528093929190818152602001838380828437600081840152601f19601f8201169050808301925050505050505091929192908035906020019064010000000081111561097a57600080fd5b82018360208201111561098c57600080fd5b803590602001918460018302840111640100000000831117156109ae57600080fd5b91908080601f016020809104026020016040519081016040528093929190818152602001838380828437600081840152601f19601f82011690508083019250505050505050919291929080359060200190640100000000811115610a1157600080fd5b820183602082011115610a2357600080fd5b80359060200191846001830284011164010000000083111715610a4557600080fd5b91908080601f016020809104026020016040519081016040528093929190818152602001838380828437600081840152601f19601f82011690508083019250505050505050919291929080359060200190640100000000811115610aa857600080fd5b820183602082011115610aba57600080fd5b80359060200191846001830284011164010000000083111715610adc57600080fd5b91908080601f016020809104026020016040519081016040528093929190818152602001838380828437600081840152601f19601f820116905080830192505050505050509192919290505050611773565b6040518082815260200191505060405180910390f35b610b4c6118be565b6040518082815260200191505060405180910390f35b610c2560048036036040811015610b7857600080fd5b810190808035906020019092919080359060200190640100000000811115610b9f57600080fd5b820183602082011115610bb157600080fd5b80359060200191846001830284011164010000000083111715610bd357600080fd5b91908080601f016020809104026020016040519081016040528093929190818152602001838380828437600081840152601f19601f8201169050808301925050505050505091929192905050506118c4565b005b600080600190505b6000548113610e5f57600160008281526020019081526020016000206001016040516020018082805460018160011615610100020316600290048015610cac5780601f10610c8a576101008083540402835291820191610cac565b820191906000526020600020905b815481529060010190602001808311610c98575b505091505060405160208183030381529060405280519060200120846040516020018082805190602001908083835b60208310610cfe5780518252602082019150602081019050602083039250610cdb565b6001836020036101000a03801982511681845116808217855250505050505090500191505060405160208183030381529060405280519060200120148015610e445750600160008281526020019081526020016000206002016040516020018082805460018160011615610100020316600290048015610db55780601f10610d93576101008083540402835291820191610db5565b820191906000526020600020905b815481529060010190602001808311610da1575b505091505060405160208183030381529060405280519060200120836040516020018082805190602001908083835b60208310610e075780518252602082019150602081019050602083039250610de4565b6001836020036101000a03801982511681845116808217855250505050505090500191505060405160208183030381529060405280519060200120145b15610e525780915050610e65565b8080600101915050610c2f565b50600090505b92915050565b60016000828152602001908152602001600020600001546001600080548152602001908152602001600020600001819055506001600080548152602001908152602001600020600160008381526020019081526020016000206000820154816000015560018201816001019080546001816001161561010002031660029004610ef59291906118f3565b5060028201816002019080546001816001161561010002031660029004610f1d9291906118f3565b5060038201816003019080546001816001161561010002031660029004610f459291906118f3565b5060048201816004019080546001816001161561010002031660029004610f6d9291906118f3565b5060058201816005019080546001816001161561010002031660029004610f959291906118f3565b5060068201816006019080546001816001161561010002031660029004610fbd9291906118f3565b5060078201816007019080546001816001161561010002031660029004610fe59291906118f3565b50905050610ff161197a565b604051806101000160405280600081526020016040518060200160405280600081525081526020016040518060200160405280600081525081526020016040518060200160405280600081525081526020016040518060200160405280600081525081526020016040518060200160405280600081525081526020016040518060200160405280600081525081526020016040518060200160405280600081525081525090508060016000805481526020019081526020016000206000820151816000015560208201518160010190805190602001906110d29291906119bf565b5060408201518160020190805190602001906110ef9291906119bf565b50606082015181600301908051906020019061110c9291906119bf565b5060808201518160040190805190602001906111299291906119bf565b5060a08201518160050190805190602001906111469291906119bf565b5060c08201518160060190805190602001906111639291906119bf565b5060e08201518160070190805190602001906111809291906119bf565b509050506000808154809291906001900391905055505050565b600080600190505b60005481136112c95760016000828152602001908152602001600020600101604051602001808280546001816001161561010002031660029004801561121f5780601f106111fd57610100808354040283529182019161121f565b820191906000526020600020905b81548152906001019060200180831161120b575b505091505060405160208183030381529060405280519060200120836040516020018082805190602001908083835b60208310611271578051825260208201915060208101905060208303925061124e565b6001836020036101000a0380198251168184511680821785525050505050509050019150506040516020818303038152906040528051906020012014156112bc5760009150506112cf565b80806001019150506111a2565b50600190505b919050565b806001600084815260200190815260200160002060020190805190602001906112fe929190611a3f565b505050565b6001602052806000526040600020600091509050806000015490806001018054600181600116156101000203166002900480601f0160208091040260200160405190810160405280929190818152602001828054600181600116156101000203166002900480156113b55780601f1061138a576101008083540402835291602001916113b5565b820191906000526020600020905b81548152906001019060200180831161139857829003601f168201915b505050505090806002018054600181600116156101000203166002900480601f0160208091040260200160405190810160405280929190818152602001828054600181600116156101000203166002900480156114535780601f1061142857610100808354040283529160200191611453565b820191906000526020600020905b81548152906001019060200180831161143657829003601f168201915b505050505090806003018054600181600116156101000203166002900480601f0160208091040260200160405190810160405280929190818152602001828054600181600116156101000203166002900480156114f15780601f106114c6576101008083540402835291602001916114f1565b820191906000526020600020905b8154815290600101906020018083116114d457829003601f168201915b505050505090806004018054600181600116156101000203166002900480601f01602080910402602001604051908101604052809291908181526020018280546001816001161561010002031660029004801561158f5780601f106115645761010080835404028352916020019161158f565b820191906000526020600020905b81548152906001019060200180831161157257829003601f168201915b505050505090806005018054600181600116156101000203166002900480601f01602080910402602001604051908101604052809291908181526020018280546001816001161561010002031660029004801561162d5780601f106116025761010080835404028352916020019161162d565b820191906000526020600020905b81548152906001019060200180831161161057829003601f168201915b505050505090806006018054600181600116156101000203166002900480601f0160208091040260200160405190810160405280929190818152602001828054600181600116156101000203166002900480156116cb5780601f106116a0576101008083540402835291602001916116cb565b820191906000526020600020905b8154815290600101906020018083116116ae57829003601f168201915b505050505090806007018054600181600116156101000203166002900480601f0160208091040260200160405190810160405280929190818152602001828054600181600116156101000203166002900480156117695780601f1061173e57610100808354040283529160200191611769565b820191906000526020600020905b81548152906001019060200180831161174c57829003601f168201915b5050505050905088565b6000806000815480929190600101919050555060405180610100016040528060005481526020018981526020018881526020018781526020018681526020018581526020018481526020018381525060016000805481526020019081526020016000206000820151816000015560208201518160010190805190602001906117fc9291906119bf565b5060408201518160020190805190602001906118199291906119bf565b5060608201518160030190805190602001906118369291906119bf565b5060808201518160040190805190602001906118539291906119bf565b5060a08201518160050190805190602001906118709291906119bf565b5060c082015181600601908051906020019061188d9291906119bf565b5060e08201518160070190805190602001906118aa9291906119bf565b509050506000549050979650505050505050565b60005481565b806001600084815260200190815260200160002060010190805190602001906118ee929190611a3f565b505050565b828054600181600116156101000203166002900490600052602060002090601f016020900481019282601f1061192c5780548555611969565b8280016001018555821561196957600052602060002091601f016020900482015b8281111561196857825482559160010191906001019061194d565b5b5090506119769190611abf565b5090565b60405180610100016040528060008152602001606081526020016060815260200160608152602001606081526020016060815260200160608152602001606081525090565b828054600181600116156101000203166002900490600052602060002090601f016020900481019282601f10611a0057805160ff1916838001178555611a2e565b82800160010185558215611a2e579182015b82811115611a2d578251825591602001919060010190611a12565b5b509050611a3b9190611abf565b5090565b828054600181600116156101000203166002900490600052602060002090601f016020900481019282601f10611a8057805160ff1916838001178555611aae565b82800160010185558215611aae579182015b82811115611aad578251825591602001919060010190611a92565b5b509050611abb9190611abf565b5090565b611ae191905b80821115611add576000816000905550600101611ac5565b5090565b9056fea265627a7a7231582036d201b0e8ef9c6f823e449e1a3490868d7a922472bb5dad775a68e0ef1fef1164736f6c63430005100032",
  "source": "// SPDX-License-Identifier: MIT\r\npragma solidity >=0.4.22 <0.9.0;\r\n\r\ncontract Korisnici{\r\n\r\n    struct Korisnik{\r\n        int id;\r\n        string username;\r\n        string password;\r\n        string ime;\r\n        string prezime;\r\n        string mejl;\r\n        string brojTelefona;\r\n        string adresa;\r\n    }\r\n\r\n    int public brojKorisnika = 0;\r\n\r\n    mapping (int => Korisnik) public korisnici;\r\n\r\n    function dodajKorisnika (string memory _username, string memory _password, string memory _ime, string memory _prezime, string memory _mejl, string memory _brojTelefona, string memory _adresa) public returns(int)\r\n    {\r\n        brojKorisnika++;\r\n        korisnici[brojKorisnika] = Korisnik(brojKorisnika, _username, _password, _ime, _prezime, _mejl, _brojTelefona, _adresa);\r\n        return brojKorisnika;\r\n    }\r\n\r\n    //Prilikom pravljenja novog naloga moramo da proverimo da li taj korisnik vec postoji\r\n    function proveriUsername(string memory _username) view public returns(int) {\r\n        for (int i = 1; i <= brojKorisnika; i++) {\r\n            if( keccak256(abi.encodePacked(_username)) == keccak256(abi.encodePacked(korisnici[i].username)) ) {\r\n                return 0;\r\n            }\r\n        }\r\n        return 1;\r\n    }\r\n\r\n    function prijavljivanje (string memory _username, string memory _password) public view returns (int)\r\n    {\r\n        for (int i = 1; i <= brojKorisnika; i++) {\r\n            if(keccak256(abi.encodePacked(_username)) == keccak256(abi.encodePacked(korisnici[i].username)) && keccak256(abi.encodePacked(_password)) == keccak256(abi.encodePacked(korisnici[i].password)))\r\n                return i;\r\n        }\r\n        return 0;\r\n    }\r\n\r\n    function obrisiKorisnika (int _id) public\r\n    {\r\n        korisnici[brojKorisnika].id = korisnici[_id].id;\r\n        korisnici[_id] = korisnici[brojKorisnika];\r\n        Korisnik memory k = Korisnik(0, \"\", \"\", \"\", \"\", \"\", \"\", \"\");\r\n        korisnici[brojKorisnika] = k;\r\n        brojKorisnika--;\r\n    }\r\n\r\n    function izmeniUsername (int _id, string memory _username) public\r\n    {\r\n        korisnici[_id].username = _username;\r\n    }\r\n\r\n    function izmeniPassword (int _id, string memory _password) public\r\n    {\r\n        korisnici[_id].password = _password;\r\n    }\r\n}",
  "sourcePath": "C:/Users/beslac_lazar/Desktop/project/project/App/frontend/app/contracts/Korisnici.sol",
  "compiler": {
    "name": "solc",
    "version": "0.5.16+commit.9c3226ce.Emscripten.clang"
  },
  "schemaVersion": "3.3.4",
  "updatedAt": "2021-03-22T09:00:51.515Z",
  "networkType": "ethereum",
  "devdoc": {
    "methods": {}
  },
  "userdoc": {
    "methods": {}
  }
}