{
  "contractName": "Kupovine",
  "abi": [
    {
      "constant": true,
      "inputs": [],
      "name": "brojKupovina",
      "outputs": [
        {
          "internalType": "int256",
          "name": "",
          "type": "int256"
        }
      ],
      "payable": false,
      "stateMutability": "view",
      "type": "function"
    },
    {
      "constant": true,
      "inputs": [
        {
          "internalType": "int256",
          "name": "",
          "type": "int256"
        }
      ],
      "name": "kupovine",
      "outputs": [
        {
          "internalType": "int256",
          "name": "id",
          "type": "int256"
        },
        {
          "internalType": "int256",
          "name": "idProdavca",
          "type": "int256"
        },
        {
          "internalType": "int256",
          "name": "idKupca",
          "type": "int256"
        },
        {
          "internalType": "int256",
          "name": "idProizvoda",
          "type": "int256"
        },
        {
          "internalType": "int256",
          "name": "kolicina",
          "type": "int256"
        }
      ],
      "payable": false,
      "stateMutability": "view",
      "type": "function"
    },
    {
      "constant": false,
      "inputs": [
        {
          "internalType": "int256",
          "name": "_idProdavca",
          "type": "int256"
        },
        {
          "internalType": "int256",
          "name": "_idKupca",
          "type": "int256"
        },
        {
          "internalType": "int256",
          "name": "_idProizvoda",
          "type": "int256"
        },
        {
          "internalType": "int256",
          "name": "_kolicina",
          "type": "int256"
        }
      ],
      "name": "dodajKupovinu",
      "outputs": [],
      "payable": false,
      "stateMutability": "nonpayable",
      "type": "function"
    },
    {
      "constant": true,
      "inputs": [
        {
          "internalType": "int256",
          "name": "_idKupca",
          "type": "int256"
        },
        {
          "internalType": "int256",
          "name": "_idProdavca",
          "type": "int256"
        },
        {
          "internalType": "int256",
          "name": "_idProizvoda",
          "type": "int256"
        }
      ],
      "name": "daLiPostojiKupovina",
      "outputs": [
        {
          "internalType": "int256",
          "name": "",
          "type": "int256"
        }
      ],
      "payable": false,
      "stateMutability": "view",
      "type": "function"
    },
    {
      "constant": true,
      "inputs": [
        {
          "internalType": "int256",
          "name": "_idKupca",
          "type": "int256"
        },
        {
          "internalType": "int256",
          "name": "_idProdavca",
          "type": "int256"
        }
      ],
      "name": "daLiPostojiKupovinaBiloKogProizvoda",
      "outputs": [
        {
          "internalType": "int256",
          "name": "",
          "type": "int256"
        }
      ],
      "payable": false,
      "stateMutability": "view",
      "type": "function"
    }
  ],
  "bytecode": "0x60806040526000805534801561001457600080fd5b506103c6806100246000396000f3fe608060405234801561001057600080fd5b50600436106100575760003560e01c806357e4d0141461005c5780639739fb7e146100a8578063ae1abfc0146100f4578063c8a6e86b1461014a578063e272e8d414610168575b600080fd5b6100a66004803603608081101561007257600080fd5b81019080803590602001909291908035906020019092919080359060200190929190803590602001909291905050506101c6565b005b6100de600480360360408110156100be57600080fd5b81019080803590602001909291908035906020019092919050505061024f565b6040518082815260200191505060405180910390f35b6101346004803603606081101561010a57600080fd5b810190808035906020019092919080359060200190929190803590602001909291905050506102c1565b6040518082815260200191505060405180910390f35b610152610355565b6040518082815260200191505060405180910390f35b6101946004803603602081101561017e57600080fd5b810190808035906020019092919050505061035b565b604051808681526020018581526020018481526020018381526020018281526020019550505050505060405180910390f35b60008081548092919060010191905055506040518060a001604052806000548152602001858152602001848152602001838152602001828152506001600080548152602001908152602001600020600082015181600001556020820151816001015560408201518160020155606082015181600301556080820151816004015590505050505050565b600080600190505b60005481136102b55760016000828152602001908152602001600020600201548414801561029a5750600160008281526020019081526020016000206001015483145b156102a857809150506102bb565b8080600101915050610257565b50600090505b92915050565b600080600190505b60005481136103485760016000828152602001908152602001600020600201548514801561030c5750600160008281526020019081526020016000206001015484145b801561032d5750600160008281526020019081526020016000206003015483145b1561033b578091505061034e565b80806001019150506102c9565b50600090505b9392505050565b60005481565b6001602052806000526040600020600091509050806000015490806001015490806002015490806003015490806004015490508556fea265627a7a7231582030ac7d9838773d895a38b537adb84d1058673f58ed17c73a4fecf89dc7135a4964736f6c63430005100032",
  "source": "// SPDX-License-Identifier: MIT\r\npragma solidity >=0.4.22 <0.9.0;\r\n\r\ncontract Kupovine{\r\n\r\n    struct Kupovina\r\n    {\r\n        int id;\r\n        int idProdavca;\r\n        int idKupca;\r\n        int idProizvoda;\r\n        int kolicina;\r\n    }\r\n\r\n    int public brojKupovina = 0;\r\n\r\n    mapping (int => Kupovina) public kupovine;\r\n\r\n    function dodajKupovinu (int _idProdavca, int _idKupca, int _idProizvoda, int _kolicina) public \r\n    {\r\n        brojKupovina++;\r\n        kupovine[brojKupovina] = Kupovina(brojKupovina, _idProdavca, _idKupca, _idProizvoda, _kolicina);\r\n    }\r\n\r\n    //Pre davanja ocene za proizvod, mora se proveriti da li postoji kupovina tog proizvoda od strane onog koji hoce da da ocenu\r\n    function daLiPostojiKupovina (int _idKupca, int _idProdavca, int _idProizvoda) public view returns (int)\r\n    {\r\n        for (int i = 1; i <= brojKupovina; i++) {\r\n            if(_idKupca == kupovine[i].idKupca && _idProdavca == kupovine[i].idProdavca && _idProizvoda == kupovine[i].idProizvoda)\r\n                return i;\r\n        }\r\n        return 0;\r\n    }\r\n\r\n    //Pre davanja ocene za prodavca, mora se proveriti da li postoji kupovina nekog proizvoda od strane onog koji hoce da da ocenu\r\n    //od onog kome zeli da da ocenu\r\n    function daLiPostojiKupovinaBiloKogProizvoda (int _idKupca, int _idProdavca) public view returns (int)\r\n    {\r\n        for (int i = 1; i <= brojKupovina; i++) {\r\n            if(_idKupca == kupovine[i].idKupca && _idProdavca == kupovine[i].idProdavca)\r\n                return i;\r\n        }\r\n        return 0;\r\n    }\r\n\r\n\r\n}",
  "sourcePath": "C:/Users/beslac_lazar/Desktop/project_dev/ChainTech/App/frontend/app/contracts/Kupovine.sol",
  "compiler": {
    "name": "solc",
    "version": "0.5.16+commit.9c3226ce.Emscripten.clang"
  },
  "schemaVersion": "3.3.4",
  "updatedAt": "2021-05-17T14:23:22.416Z",
  "networkType": "ethereum",
  "devdoc": {
    "methods": {}
  },
  "userdoc": {
    "methods": {}
  }
}