{
  "contractName": "ListaZelja",
  "abi": [
    {
      "constant": true,
      "inputs": [],
      "name": "brojZelja",
      "outputs": [
        {
          "internalType": "int256",
          "name": "",
          "type": "int256"
        }
      ],
      "payable": false,
      "stateMutability": "view",
      "type": "function"
    },
    {
      "constant": true,
      "inputs": [
        {
          "internalType": "int256",
          "name": "",
          "type": "int256"
        }
      ],
      "name": "zelje",
      "outputs": [
        {
          "internalType": "int256",
          "name": "id",
          "type": "int256"
        },
        {
          "internalType": "int256",
          "name": "idPotencijalnogKupca",
          "type": "int256"
        },
        {
          "internalType": "int256",
          "name": "idProizvoda",
          "type": "int256"
        }
      ],
      "payable": false,
      "stateMutability": "view",
      "type": "function"
    },
    {
      "constant": false,
      "inputs": [
        {
          "internalType": "int256",
          "name": "_idPotencijalnogKupca",
          "type": "int256"
        },
        {
          "internalType": "int256",
          "name": "_idProizvoda",
          "type": "int256"
        }
      ],
      "name": "dodajZelju",
      "outputs": [],
      "payable": false,
      "stateMutability": "nonpayable",
      "type": "function"
    }
  ],
  "bytecode": "0x60806040526000805534801561001457600080fd5b506101b8806100246000396000f3fe608060405234801561001057600080fd5b50600436106100415760003560e01c806316f0ab8d1461004657806341bcdcb214610064578063e65cfc43146100b4575b600080fd5b61004e6100ec565b6040518082815260200191505060405180910390f35b6100906004803603602081101561007a57600080fd5b81019080803590602001909291905050506100f2565b60405180848152602001838152602001828152602001935050505060405180910390f35b6100ea600480360360408110156100ca57600080fd5b81019080803590602001909291908035906020019092919050505061011c565b005b60005481565b60016020528060005260406000206000915090508060000154908060010154908060020154905083565b600080815480929190600101919050555060405180606001604052806000548152602001838152602001828152506001600080548152602001908152602001600020600082015181600001556020820151816001015560408201518160020155905050505056fea265627a7a7231582014f86983c4adf23369784664bf254b94a7c75f0e4ff8de5af455da6dbdd6073b64736f6c63430005100032",
  "source": "// SPDX-License-Identifier: MIT\r\npragma solidity >=0.4.22 <0.9.0;\r\n\r\ncontract ListaZelja {\r\n    \r\n    struct Zelja\r\n    {\r\n        int id;\r\n        int idPotencijalnogKupca;\r\n        int idProizvoda;\r\n    }\r\n\r\n    int public brojZelja = 0;\r\n\r\n    mapping(int => Zelja) public zelje;\r\n\r\n    function dodajZelju(int _idPotencijalnogKupca, int _idProizvoda) public {\r\n        brojZelja++;\r\n        zelje[brojZelja] = Zelja(brojZelja, _idPotencijalnogKupca, _idProizvoda);\r\n    }\r\n}",
  "sourcePath": "C:/Users/beslac_lazar/Desktop/project_dev/ChainTech/App/frontend/app/contracts/ListaZelja.sol",
  "compiler": {
    "name": "solc",
    "version": "0.5.16+commit.9c3226ce.Emscripten.clang"
  },
  "schemaVersion": "3.3.4",
  "updatedAt": "2021-04-14T10:45:22.761Z",
  "networkType": "ethereum",
  "devdoc": {
    "methods": {}
  },
  "userdoc": {
    "methods": {}
  }
}