{
  "contractName": "Notifications",
  "abi": [
    {
      "constant": true,
      "inputs": [],
      "name": "brojNotifikacija",
      "outputs": [
        {
          "internalType": "int256",
          "name": "",
          "type": "int256"
        }
      ],
      "payable": false,
      "stateMutability": "view",
      "type": "function"
    },
    {
      "constant": true,
      "inputs": [
        {
          "internalType": "int256",
          "name": "",
          "type": "int256"
        }
      ],
      "name": "notifikacije",
      "outputs": [
        {
          "internalType": "int256",
          "name": "id",
          "type": "int256"
        },
        {
          "internalType": "int256",
          "name": "idKorisnika",
          "type": "int256"
        },
        {
          "internalType": "int256",
          "name": "idProizvoda",
          "type": "int256"
        },
        {
          "internalType": "string",
          "name": "poruka",
          "type": "string"
        },
        {
          "internalType": "bool",
          "name": "procitana",
          "type": "bool"
        }
      ],
      "payable": false,
      "stateMutability": "view",
      "type": "function"
    },
    {
      "constant": false,
      "inputs": [
        {
          "internalType": "int256",
          "name": "_idKorisnika",
          "type": "int256"
        },
        {
          "internalType": "int256",
          "name": "_idProizvoda",
          "type": "int256"
        },
        {
          "internalType": "string",
          "name": "_poruka",
          "type": "string"
        }
      ],
      "name": "dodajNotifikaciju",
      "outputs": [
        {
          "internalType": "int256",
          "name": "",
          "type": "int256"
        }
      ],
      "payable": false,
      "stateMutability": "nonpayable",
      "type": "function"
    }
  ],
  "bytecode": "0x60806040526000805534801561001457600080fd5b50610485806100246000396000f3fe608060405234801561001057600080fd5b50600436106100405760003560e01c8062cae53a146100455780633cb9647c14610063578063726e524914610146575b600080fd5b61004d61020d565b6040518082815260200191505060405180910390f35b6101306004803603606081101561007957600080fd5b810190808035906020019092919080359060200190929190803590602001906401000000008111156100aa57600080fd5b8201836020820111156100bc57600080fd5b803590602001918460018302840111640100000000831117156100de57600080fd5b91908080601f016020809104026020016040519081016040528093929190818152602001838380828437600081840152601f19601f820116905080830192505050505050509192919290505050610213565b6040518082815260200191505060405180910390f35b6101726004803603602081101561015c57600080fd5b81019080803590602001909291905050506102d0565b604051808681526020018581526020018481526020018060200183151515158152602001828103825284818151815260200191508051906020019080838360005b838110156101ce5780820151818401526020810190506101b3565b50505050905090810190601f1680156101fb5780820380516001836020036101000a031916815260200191505b50965050505050505060405180910390f35b60005481565b600080600081548092919060010191905055506040518060a00160405280600054815260200185815260200184815260200183815260200160001515815250600160008054815260200190815260200160002060008201518160000155602082015181600101556040820151816002015560608201518160030190805190602001906102a09291906103ab565b5060808201518160040160006101000a81548160ff02191690831515021790555090505060005490509392505050565b6001602052806000526040600020600091509050806000015490806001015490806002015490806003018054600181600116156101000203166002900480601f01602080910402602001604051908101604052809291908181526020018280546001816001161561010002031660029004801561038e5780601f106103635761010080835404028352916020019161038e565b820191906000526020600020905b81548152906001019060200180831161037157829003601f168201915b5050505050908060040160009054906101000a900460ff16905085565b828054600181600116156101000203166002900490600052602060002090601f016020900481019282601f106103ec57805160ff191683800117855561041a565b8280016001018555821561041a579182015b828111156104195782518255916020019190600101906103fe565b5b509050610427919061042b565b5090565b61044d91905b80821115610449576000816000905550600101610431565b5090565b9056fea265627a7a723158204878a1433bef0ddbeba881143ee9516d4886732c414ecdef0d1a73fcf8dcb18e64736f6c63430005100032",
  "source": "// SPDX-License-Identifier: MIT\r\npragma solidity >=0.4.22 <0.9.0;\r\n\r\ncontract Notifications {\r\n\r\n    struct Notification{\r\n        int id;\r\n        int idKorisnika;\r\n        int idProizvoda;\r\n        string poruka;\r\n        bool procitana;\r\n    }\r\n\r\n    int public brojNotifikacija = 0;\r\n\r\n    mapping (int => Notification) public notifikacije;\r\n\r\n    function dodajNotifikaciju(int _idKorisnika,int  _idProizvoda, string memory _poruka) public returns(int) {\r\n        brojNotifikacija++;\r\n        notifikacije[brojNotifikacija] = Notification(brojNotifikacija, _idKorisnika, _idProizvoda, _poruka, false);\r\n        return brojNotifikacija;\r\n    }\r\n\r\n}",
  "sourcePath": "C:/Users/beslac_lazar/Desktop/project_dev/ChainTech/App/frontend/app/contracts/Notifications.sol",
  "compiler": {
    "name": "solc",
    "version": "0.5.16+commit.9c3226ce.Emscripten.clang"
  },
  "schemaVersion": "3.3.4",
  "updatedAt": "2021-04-14T01:24:27.372Z",
  "networkType": "ethereum",
  "devdoc": {
    "methods": {}
  },
  "userdoc": {
    "methods": {}
  }
}