{
  "contractName": "Ocene",
  "abi": [
    {
      "constant": true,
      "inputs": [],
      "name": "brojOcena",
      "outputs": [
        {
          "internalType": "int256",
          "name": "",
          "type": "int256"
        }
      ],
      "payable": false,
      "stateMutability": "view",
      "type": "function"
    },
    {
      "constant": true,
      "inputs": [
        {
          "internalType": "int256",
          "name": "",
          "type": "int256"
        }
      ],
      "name": "ocene",
      "outputs": [
        {
          "internalType": "int256",
          "name": "id",
          "type": "int256"
        },
        {
          "internalType": "int256",
          "name": "idKupovine",
          "type": "int256"
        },
        {
          "internalType": "int256",
          "name": "idKategorije",
          "type": "int256"
        },
        {
          "internalType": "int256",
          "name": "idProizvoda",
          "type": "int256"
        },
        {
          "internalType": "int256",
          "name": "ocena",
          "type": "int256"
        },
        {
          "internalType": "string",
          "name": "komentar",
          "type": "string"
        }
      ],
      "payable": false,
      "stateMutability": "view",
      "type": "function"
    },
    {
      "constant": false,
      "inputs": [
        {
          "internalType": "int256",
          "name": "_idKupovine",
          "type": "int256"
        },
        {
          "internalType": "int256",
          "name": "_idKategorije",
          "type": "int256"
        },
        {
          "internalType": "int256",
          "name": "_idProizvoda",
          "type": "int256"
        },
        {
          "internalType": "int256",
          "name": "_ocena",
          "type": "int256"
        },
        {
          "internalType": "string",
          "name": "_komentar",
          "type": "string"
        }
      ],
      "name": "dodajOcenu",
      "outputs": [],
      "payable": false,
      "stateMutability": "nonpayable",
      "type": "function"
    }
  ],
  "bytecode": "0x60806040526000805534801561001457600080fd5b50610472806100246000396000f3fe608060405234801561001057600080fd5b50600436106100415760003560e01c80633855dc8e146100465780637be2401014610064578063fba93ba514610147575b600080fd5b61004e610211565b6040518082815260200191505060405180910390f35b610145600480360360a081101561007a57600080fd5b8101908080359060200190929190803590602001909291908035906020019092919080359060200190929190803590602001906401000000008111156100bf57600080fd5b8201836020820111156100d157600080fd5b803590602001918460018302840111640100000000831117156100f357600080fd5b91908080601f016020809104026020016040519081016040528093929190818152602001838380828437600081840152601f19601f820116905080830192505050505050509192919290505050610217565b005b6101736004803603602081101561015d57600080fd5b81019080803590602001909291905050506102c4565b6040518087815260200186815260200185815260200184815260200183815260200180602001828103825283818151815260200191508051906020019080838360005b838110156101d15780820151818401526020810190506101b6565b50505050905090810190601f1680156101fe5780820380516001836020036101000a031916815260200191505b5097505050505050505060405180910390f35b60005481565b60008081548092919060010191905055506040518060c001604052806000548152602001868152602001858152602001848152602001838152602001828152506001600080548152602001908152602001600020600082015181600001556020820151816001015560408201518160020155606082015181600301556080820151816004015560a08201518160050190805190602001906102b9929190610398565b509050505050505050565b6001602052806000526040600020600091509050806000015490806001015490806002015490806003015490806004015490806005018054600181600116156101000203166002900480601f01602080910402602001604051908101604052809291908181526020018280546001816001161561010002031660029004801561038e5780601f106103635761010080835404028352916020019161038e565b820191906000526020600020905b81548152906001019060200180831161037157829003601f168201915b5050505050905086565b828054600181600116156101000203166002900490600052602060002090601f016020900481019282601f106103d957805160ff1916838001178555610407565b82800160010185558215610407579182015b828111156104065782518255916020019190600101906103eb565b5b5090506104149190610418565b5090565b61043a91905b8082111561043657600081600090555060010161041e565b5090565b9056fea265627a7a72315820f28de6ca134071de760caa940995878cd8f77db02e9beb91bad70b9bc4b59f2664736f6c63430005100032",
  "source": "// SPDX-License-Identifier: MIT\npragma solidity >=0.4.22 <0.9.0;\n\ncontract Ocene{\n\n    struct Ocena\n    {\n        int id;\n        int idKupovine;\n        int idKategorije; //ovi podaci o proizvodu se ponavljaju zbog toga sto trenutno trebaju Maji \n        int idProizvoda;  //da bi pocela svoj rad na vreme, bice reseno drugacije kada vidimo koji je najbolji nacin\n        int ocena;\n        string komentar;\n    }\n\n    int public brojOcena = 0;\n\n    mapping (int => Ocena) public ocene;\n\n    function dodajOcenu (int _idKupovine, int _idKategorije, int _idProizvoda, int _ocena, string memory _komentar) public \n    {\n        brojOcena++;\n        ocene[brojOcena] = Ocena(brojOcena, _idKupovine, _idKategorije, _idProizvoda, _ocena, _komentar);\n    }\n\n}",
  "sourcePath": "E:/ChainTech/App/frontend/app/contracts/Ocene.sol",
  "compiler": {
    "name": "solc",
    "version": "0.5.16+commit.9c3226ce.Emscripten.clang"
  },
  "schemaVersion": "3.3.4",
  "updatedAt": "2021-04-05T18:11:28.311Z",
  "networkType": "ethereum",
  "devdoc": {
    "methods": {}
  },
  "userdoc": {
    "methods": {}
  }
}