{
  "contractName": "OceneKorisnika",
  "abi": [
    {
      "constant": true,
      "inputs": [],
      "name": "brojOcena",
      "outputs": [
        {
          "internalType": "int256",
          "name": "",
          "type": "int256"
        }
      ],
      "payable": false,
      "stateMutability": "view",
      "type": "function"
    },
    {
      "constant": true,
      "inputs": [
        {
          "internalType": "int256",
          "name": "",
          "type": "int256"
        }
      ],
      "name": "ocene2",
      "outputs": [
        {
          "internalType": "int256",
          "name": "id",
          "type": "int256"
        },
        {
          "internalType": "int256",
          "name": "idKupca",
          "type": "int256"
        },
        {
          "internalType": "int256",
          "name": "idProdavca",
          "type": "int256"
        },
        {
          "internalType": "int256",
          "name": "ocena",
          "type": "int256"
        }
      ],
      "payable": false,
      "stateMutability": "view",
      "type": "function"
    },
    {
      "constant": false,
      "inputs": [
        {
          "internalType": "int256",
          "name": "_idKupca",
          "type": "int256"
        },
        {
          "internalType": "int256",
          "name": "_idProdavca",
          "type": "int256"
        },
        {
          "internalType": "int256",
          "name": "_ocena",
          "type": "int256"
        }
      ],
      "name": "dodajOcenu",
      "outputs": [],
      "payable": false,
      "stateMutability": "nonpayable",
      "type": "function"
    },
    {
      "constant": true,
      "inputs": [
        {
          "internalType": "int256",
          "name": "_idProdavca",
          "type": "int256"
        }
      ],
      "name": "prosecnaOcenaZaProdavca",
      "outputs": [
        {
          "internalType": "int256",
          "name": "",
          "type": "int256"
        }
      ],
      "payable": false,
      "stateMutability": "view",
      "type": "function"
    }
  ],
  "bytecode": "0x60806040526000805534801561001457600080fd5b506102db806100246000396000f3fe608060405234801561001057600080fd5b506004361061004c5760003560e01c8063262740a1146100515780633855dc8e146100a8578063426a5ca0146100c65780635022eb6014610108575b600080fd5b61007d6004803603602081101561006757600080fd5b810190808035906020019092919050505061014a565b6040518085815260200184815260200183815260200182815260200194505050505060405180910390f35b6100b061017a565b6040518082815260200191505060405180910390f35b610106600480360360608110156100dc57600080fd5b81019080803590602001909291908035906020019092919080359060200190929190505050610180565b005b6101346004803603602081101561011e57600080fd5b81019080803590602001909291905050506101f8565b6040518082815260200191505060405180910390f35b60016020528060005260406000206000915090508060000154908060010154908060020154908060030154905084565b60005481565b60008081548092919060010191905055506040518060800160405280600054815260200184815260200183815260200182815250600160008054815260200190815260200160002060008201518160000155602082015181600101556040820151816002015560608201518160030155905050505050565b6000806000905060008090506000600190505b60005481136102635760016000828152602001908152602001600020600201548514156102565760016000828152602001908152602001600020600301548201915082806001019350505b808060010191505061020b565b506064810290506000811415801561027c575060008214155b1561029a57600082828161028c57fe5b0590508093505050506102a1565b6000925050505b91905056fea265627a7a7231582053336e1a984596173468bab4a3bf50e1889e1beee24cfdcea684d495d0be7cb764736f6c63430005100032",
  "source": "// SPDX-License-Identifier: MIT\r\npragma solidity >=0.4.22 <0.9.0;\r\n\r\ncontract OceneKorisnika{\r\n\r\n    struct Ocena2\r\n    {\r\n        int id;\r\n        int idKupca;\r\n        int idProdavca;\r\n        int ocena;\r\n    }\r\n\r\n    int public brojOcena = 0;\r\n\r\n    mapping (int => Ocena2) public ocene2;\r\n\r\n    function dodajOcenu (int _idKupca, int _idProdavca, int _ocena) public \r\n    {\r\n        brojOcena++;\r\n        ocene2[brojOcena] = Ocena2(brojOcena, _idKupca, _idProdavca, _ocena);\r\n    }\r\n\r\n\r\n    //Funkcija vraca prosecnu ocenu svih ocena koje su date odredjenom prodavcu\r\n    //U flutter-u se rezultat mora podeliti sa 100\r\n    //Npr. ako je prosek ocena 4.72 bice vracen rezultat 472\r\n    function prosecnaOcenaZaProdavca (int _idProdavca) public view returns (int)\r\n    {\r\n        int br = 0;\r\n        int suma = 0;\r\n        for (int i = 1; i <= brojOcena; i++) {\r\n            if(_idProdavca == ocene2[i].idProdavca)\r\n            {\r\n                suma += ocene2[i].ocena;\r\n                br++;\r\n            }\r\n        }\r\n        suma = suma * 100;\r\n        if(suma != 0 && br != 0)\r\n        {\r\n            int prosek = suma/br;\r\n            return prosek;\r\n        }\r\n        return 0;\r\n    }\r\n}\r\n\r\n\r\n\r\n\r\n\r\n\r\n",
  "sourcePath": "C:/Users/beslac_lazar/Desktop/project_dev/ChainTech/App/frontend/app/contracts/OceneKorisnika.sol",
  "compiler": {
    "name": "solc",
    "version": "0.5.16+commit.9c3226ce.Emscripten.clang"
  },
  "schemaVersion": "3.3.4",
  "updatedAt": "2021-05-11T20:45:26.987Z",
  "networkType": "ethereum",
  "devdoc": {
    "methods": {}
  },
  "userdoc": {
    "methods": {}
  }
}