{
  "contractName": "Ocene",
  "abi": [
    {
      "constant": true,
      "inputs": [],
      "name": "brojOcena",
      "outputs": [
        {
          "internalType": "int256",
          "name": "",
          "type": "int256"
        }
      ],
      "payable": false,
      "stateMutability": "view",
      "type": "function"
    },
    {
      "constant": true,
      "inputs": [
        {
          "internalType": "int256",
          "name": "",
          "type": "int256"
        }
      ],
      "name": "ocene",
      "outputs": [
        {
          "internalType": "int256",
          "name": "id",
          "type": "int256"
        },
        {
          "internalType": "int256",
          "name": "idKupovine",
          "type": "int256"
        },
        {
          "internalType": "int256",
          "name": "idProdavca",
          "type": "int256"
        },
        {
          "internalType": "int256",
          "name": "idKategorije",
          "type": "int256"
        },
        {
          "internalType": "int256",
          "name": "idProizvoda",
          "type": "int256"
        },
        {
          "internalType": "int256",
          "name": "ocena",
          "type": "int256"
        }
      ],
      "payable": false,
      "stateMutability": "view",
      "type": "function"
    },
    {
      "constant": false,
      "inputs": [
        {
          "internalType": "int256",
          "name": "_idKupovine",
          "type": "int256"
        },
        {
          "internalType": "int256",
          "name": "_idProdavca",
          "type": "int256"
        },
        {
          "internalType": "int256",
          "name": "_idKategorije",
          "type": "int256"
        },
        {
          "internalType": "int256",
          "name": "_idProizvoda",
          "type": "int256"
        },
        {
          "internalType": "int256",
          "name": "_ocena",
          "type": "int256"
        }
      ],
      "name": "dodajOcenu",
      "outputs": [],
      "payable": false,
      "stateMutability": "nonpayable",
      "type": "function"
    },
    {
      "constant": true,
      "inputs": [
        {
          "internalType": "int256",
          "name": "_idProizvoda",
          "type": "int256"
        }
      ],
      "name": "prosecnaOcenaZaProizvod",
      "outputs": [
        {
          "internalType": "int256",
          "name": "",
          "type": "int256"
        }
      ],
      "payable": false,
      "stateMutability": "view",
      "type": "function"
    }
  ],
  "bytecode": "0x60806040526000805534801561001457600080fd5b5061032b806100246000396000f3fe608060405234801561001057600080fd5b506004361061004c5760003560e01c80633855dc8e146100515780635574879a1461006f578063be2ba2e6146100c5578063fba93ba514610107575b600080fd5b61005961016c565b6040518082815260200191505060405180910390f35b6100c3600480360360a081101561008557600080fd5b810190808035906020019092919080359060200190929190803590602001909291908035906020019092919080359060200190929190505050610172565b005b6100f1600480360360208110156100db57600080fd5b810190808035906020019092919050505061020c565b6040518082815260200191505060405180910390f35b6101336004803603602081101561011d57600080fd5b81019080803590602001909291905050506102ba565b60405180878152602001868152602001858152602001848152602001838152602001828152602001965050505050505060405180910390f35b60005481565b60008081548092919060010191905055506040518060c001604052806000548152602001868152602001858152602001848152602001838152602001828152506001600080548152602001908152602001600020600082015181600001556020820151816001015560408201518160020155606082015181600301556080820151816004015560a082015181600501559050505050505050565b6000806000905060008090506000600190505b600054811361027757600160008281526020019081526020016000206004015485141561026a5760016000828152602001908152602001600020600501548201915082806001019350505b808060010191505061021f565b5060648102905060008114158015610290575060008214155b156102ae5760008282816102a057fe5b0590508093505050506102b5565b6000925050505b919050565b6001602052806000526040600020600091509050806000015490806001015490806002015490806003015490806004015490806005015490508656fea265627a7a72315820d3c86ea7908b3eadac3a7c6f833ffc0cf2cec56c74f214e83e625dd753cc9e2864736f6c63430005100032",
  "source": "// SPDX-License-Identifier: MIT\r\npragma solidity >=0.4.22 <0.9.0;\r\n\r\ncontract Ocene{\r\n\r\n    struct Ocena\r\n    {\r\n        int id;\r\n        int idKupovine;\r\n        int idProdavca;\r\n        int idKategorije; //ovi podaci o proizvodu se ponavljaju zbog toga sto trenutno trebaju Maji \r\n        int idProizvoda;  \r\n        int ocena;\r\n    }\r\n\r\n    int public brojOcena = 0;\r\n\r\n    mapping (int => Ocena) public ocene;\r\n\r\n    function dodajOcenu (int _idKupovine, int _idProdavca,int _idKategorije, int _idProizvoda, int _ocena) public \r\n    {\r\n        brojOcena++;\r\n        ocene[brojOcena] = Ocena(brojOcena, _idKupovine, _idProdavca,_idKategorije, _idProizvoda, _ocena);\r\n    }\r\n\r\n\r\n    //Funkcija vraca prosecnu ocenu za jedan proizvod\r\n    //U flutter-u se rezultat mora podeliti sa 100\r\n    //Npr. ako je prosek ocena 4.72 bice vracen rezultat 472\r\n    function prosecnaOcenaZaProizvod (int _idProizvoda) public view returns (int)\r\n    {\r\n        int br = 0;\r\n        int suma = 0;\r\n        for (int i = 1; i <= brojOcena; i++) {\r\n            if(_idProizvoda == ocene[i].idProizvoda)\r\n            {\r\n                suma += ocene[i].ocena;\r\n                br++;\r\n            }\r\n        }\r\n        suma = suma * 100;\r\n        if(suma != 0 && br != 0)\r\n        {\r\n            int prosek = suma/br;\r\n            return prosek;\r\n        }\r\n        return 0;\r\n    }\r\n\r\n}\r\n\r\n\r\n\r\n\r\n\r\n\r\n",
  "sourcePath": "C:/Users/beslac_lazar/Desktop/project_dev/ChainTech/App/frontend/app/contracts/Ocene.sol",
  "compiler": {
    "name": "solc",
    "version": "0.5.16+commit.9c3226ce.Emscripten.clang"
  },
  "schemaVersion": "3.3.4",
  "updatedAt": "2021-05-11T20:45:24.410Z",
  "networkType": "ethereum",
  "devdoc": {
    "methods": {}
  },
  "userdoc": {
    "methods": {}
  }
}