{
  "contractName": "Proizvodi",
  "abi": [
    {
      "constant": true,
      "inputs": [],
      "name": "brojProizvoda",
      "outputs": [
        {
          "internalType": "uint256",
          "name": "",
          "type": "uint256"
        }
      ],
      "payable": false,
      "stateMutability": "view",
      "type": "function"
    },
    {
      "constant": true,
      "inputs": [
        {
          "internalType": "uint256",
          "name": "",
          "type": "uint256"
        }
      ],
      "name": "proizvodi",
      "outputs": [
        {
          "internalType": "uint256",
          "name": "id",
          "type": "uint256"
        },
        {
          "internalType": "uint256",
          "name": "idKorisnika",
          "type": "uint256"
        },
        {
          "internalType": "uint256",
          "name": "idKategorije",
          "type": "uint256"
        },
        {
          "internalType": "string",
          "name": "naziv",
          "type": "string"
        },
        {
          "internalType": "uint256",
          "name": "kolicina",
          "type": "uint256"
        }
      ],
      "payable": false,
      "stateMutability": "view",
      "type": "function"
    },
    {
      "constant": false,
      "inputs": [
        {
          "internalType": "uint256",
          "name": "_idKorisnika",
          "type": "uint256"
        },
        {
          "internalType": "uint256",
          "name": "_idKategorije",
          "type": "uint256"
        },
        {
          "internalType": "string",
          "name": "_naziv",
          "type": "string"
        },
        {
          "internalType": "uint256",
          "name": "_kolicina",
          "type": "uint256"
        }
      ],
      "name": "dodajProizvod",
      "outputs": [],
      "payable": false,
      "stateMutability": "nonpayable",
      "type": "function"
    },
    {
      "constant": true,
      "inputs": [
        {
          "internalType": "uint256",
          "name": "_id",
          "type": "uint256"
        }
      ],
      "name": "dajProizvod",
      "outputs": [
        {
          "components": [
            {
              "internalType": "uint256",
              "name": "id",
              "type": "uint256"
            },
            {
              "internalType": "uint256",
              "name": "idKorisnika",
              "type": "uint256"
            },
            {
              "internalType": "uint256",
              "name": "idKategorije",
              "type": "uint256"
            },
            {
              "internalType": "string",
              "name": "naziv",
              "type": "string"
            },
            {
              "internalType": "uint256",
              "name": "kolicina",
              "type": "uint256"
            }
          ],
          "internalType": "struct Proizvodi.Proizvod",
          "name": "",
          "type": "tuple"
        }
      ],
      "payable": false,
      "stateMutability": "view",
      "type": "function"
    },
    {
      "constant": true,
      "inputs": [],
      "name": "dajProizvode",
      "outputs": [
        {
          "components": [
            {
              "internalType": "uint256",
              "name": "id",
              "type": "uint256"
            },
            {
              "internalType": "uint256",
              "name": "idKorisnika",
              "type": "uint256"
            },
            {
              "internalType": "uint256",
              "name": "idKategorije",
              "type": "uint256"
            },
            {
              "internalType": "string",
              "name": "naziv",
              "type": "string"
            },
            {
              "internalType": "uint256",
              "name": "kolicina",
              "type": "uint256"
            }
          ],
          "internalType": "struct Proizvodi.Proizvod[]",
          "name": "",
          "type": "tuple[]"
        }
      ],
      "payable": false,
      "stateMutability": "view",
      "type": "function"
    },
    {
      "constant": false,
      "inputs": [
        {
          "internalType": "uint256",
          "name": "_id",
          "type": "uint256"
        },
        {
          "internalType": "uint256",
          "name": "_promenaKolicine",
          "type": "uint256"
        }
      ],
      "name": "izmeniKolicinu",
      "outputs": [],
      "payable": false,
      "stateMutability": "nonpayable",
      "type": "function"
    }
  ],
  "bytecode": "0x60806040526000805534801561001457600080fd5b50610bba806100246000396000f3fe608060405234801561001057600080fd5b50600436106100625760003560e01c806353f61bd114610067578063818a6c401461009757806386d318c6146100b357806398f19cd0146100e7578063d3bd6bf014610105578063e610e3d314610123575b600080fd5b610081600480360361007c91908101906106a6565b61013f565b60405161008e91906109ad565b60405180910390f35b6100b160048036036100ac919081019061070b565b610236565b005b6100cd60048036036100c891908101906106a6565b6102d2565b6040516100de9594939291906109ea565b60405180910390f35b6100ef6103a0565b6040516100fc91906109cf565b60405180910390f35b61010d6103a6565b60405161011a919061098b565b60405180910390f35b61013d600480360361013891908101906106cf565b610512565b005b61014761053a565b600160008381526020019081526020016000206040518060a0016040529081600082015481526020016001820154815260200160028201548152602001600382018054600181600116156101000203166002900480601f01602080910402602001604051908101604052809291908181526020018280546001816001161561010002031660029004801561021c5780601f106101f15761010080835404028352916020019161021c565b820191906000526020600020905b8154815290600101906020018083116101ff57829003601f168201915b505050505081526020016004820154815250509050919050565b60008081548092919060010191905055506040518060a00160405280600054815260200185815260200184815260200183815260200182815250600160008054815260200190815260200160002060008201518160000155602082015181600101556040820151816002015560608201518160030190805190602001906102be929190610569565b506080820151816004015590505050505050565b6001602052806000526040600020600091509050806000015490806001015490806002015490806003018054600181600116156101000203166002900480601f0160208091040260200160405190810160405280929190818152602001828054600181600116156101000203166002900480156103905780601f1061036557610100808354040283529160200191610390565b820191906000526020600020905b81548152906001019060200180831161037357829003601f168201915b5050505050908060040154905085565b60005481565b6060806000546040519080825280602002602001820160405280156103e557816020015b6103d26105e9565b8152602001906001900390816103ca5790505b50905060008090505b60005481101561050a576000600160008381526020019081526020016000209050806040518060a0016040529081600082015481526020016001820154815260200160028201548152602001600382018054600181600116156101000203166002900480601f0160208091040260200160405190810160405280929190818152602001828054600181600116156101000203166002900480156104d25780601f106104a7576101008083540402835291602001916104d2565b820191906000526020600020905b8154815290600101906020018083116104b557829003601f168201915b505050505081526020016004820154815250508383815181106104f157fe5b60200260200101819052505080806001019150506103ee565b508091505090565b8060016000848152602001908152602001600020600401600082825401925050819055505050565b6040518060a0016040528060008152602001600081526020016000815260200160608152602001600081525090565b828054600181600116156101000203166002900490600052602060002090601f016020900481019282601f106105aa57805160ff19168380011785556105d8565b828001600101855582156105d8579182015b828111156105d75782518255916020019190600101906105bc565b5b5090506105e59190610618565b5090565b6040518060a0016040528060008152602001600081526020016000815260200160608152602001600081525090565b61063a91905b8082111561063657600081600090555060010161061e565b5090565b90565b600082601f83011261064e57600080fd5b813561066161065c82610a71565b610a44565b9150808252602083016020830185838301111561067d57600080fd5b610688838284610b0d565b50505092915050565b6000813590506106a081610b60565b92915050565b6000602082840312156106b857600080fd5b60006106c684828501610691565b91505092915050565b600080604083850312156106e257600080fd5b60006106f085828601610691565b925050602061070185828601610691565b9150509250929050565b6000806000806080858703121561072157600080fd5b600061072f87828801610691565b945050602061074087828801610691565b935050604085013567ffffffffffffffff81111561075d57600080fd5b6107698782880161063d565b925050606061077a87828801610691565b91505092959194509250565b600061079283836108f7565b905092915050565b60006107a582610aad565b6107af8185610ad0565b9350836020820285016107c185610a9d565b8060005b858110156107fd57848403895281516107de8582610786565b94506107e983610ac3565b925060208a019950506001810190506107c5565b50829750879550505050505092915050565b600061081a82610ab8565b6108248185610ae1565b9350610834818560208601610b1c565b61083d81610b4f565b840191505092915050565b600061085382610ab8565b61085d8185610af2565b935061086d818560208601610b1c565b61087681610b4f565b840191505092915050565b600060a083016000830151610899600086018261096d565b5060208301516108ac602086018261096d565b5060408301516108bf604086018261096d565b50606083015184820360608601526108d7828261080f565b91505060808301516108ec608086018261096d565b508091505092915050565b600060a08301600083015161090f600086018261096d565b506020830151610922602086018261096d565b506040830151610935604086018261096d565b506060830151848203606086015261094d828261080f565b9150506080830151610962608086018261096d565b508091505092915050565b61097681610b03565b82525050565b61098581610b03565b82525050565b600060208201905081810360008301526109a5818461079a565b905092915050565b600060208201905081810360008301526109c78184610881565b905092915050565b60006020820190506109e4600083018461097c565b92915050565b600060a0820190506109ff600083018861097c565b610a0c602083018761097c565b610a19604083018661097c565b8181036060830152610a2b8185610848565b9050610a3a608083018461097c565b9695505050505050565b6000604051905081810181811067ffffffffffffffff82111715610a6757600080fd5b8060405250919050565b600067ffffffffffffffff821115610a8857600080fd5b601f19601f8301169050602081019050919050565b6000819050602082019050919050565b600081519050919050565b600081519050919050565b6000602082019050919050565b600082825260208201905092915050565b600082825260208201905092915050565b600082825260208201905092915050565b6000819050919050565b82818337600083830152505050565b60005b83811015610b3a578082015181840152602081019050610b1f565b83811115610b49576000848401525b50505050565b6000601f19601f8301169050919050565b610b6981610b03565b8114610b7457600080fd5b5056fea365627a7a72315820bc97acf02aacf55e607b3bd643bdb2cc7f67e7a2ff7b3b478702b2f8ef5f36236c6578706572696d656e74616cf564736f6c63430005100040",
  "source": "// SPDX-License-Identifier: MIT\r\npragma solidity >=0.4.22 <0.9.0;\r\npragma experimental ABIEncoderV2;\r\n\r\ncontract Proizvodi{\r\n\r\n    struct Proizvod{\r\n        uint id;\r\n        uint idKorisnika;\r\n        uint idKategorije;\r\n        string naziv;\r\n        uint kolicina;\r\n    }\r\n\r\n    uint public brojProizvoda = 0;\r\n\r\n    mapping (uint => Proizvod) public proizvodi;\r\n\r\n    function dodajProizvod(uint _idKorisnika, uint _idKategorije, string memory _naziv, uint _kolicina) public\r\n    {\r\n        brojProizvoda++;\r\n        proizvodi[brojProizvoda] = Proizvod(brojProizvoda, _idKorisnika, _idKategorije, _naziv, _kolicina);\r\n    }\r\n\r\n    function dajProizvod (uint _id) public view returns (Proizvod memory)\r\n    {\r\n        return proizvodi[_id];\r\n    }\r\n\r\n    function dajProizvode () public view returns (Proizvod[] memory)\r\n    {\r\n        Proizvod[] memory sviProizvodi = new Proizvod[](brojProizvoda);\r\n        for(uint i = 0; i < brojProizvoda; i++)\r\n        {\r\n            Proizvod storage proizvod = proizvodi[i];\r\n            sviProizvodi[i] = proizvod;\r\n        }\r\n        return sviProizvodi;\r\n    }\r\n\r\n    function izmeniKolicinu(uint _id, uint _promenaKolicine) public\r\n    {\r\n        proizvodi[_id].kolicina += _promenaKolicine;\r\n    }\r\n}",
  "sourcePath": "C:/Users/beslac_lazar/Desktop/project/project/App/frontend/app/contracts/Proizvodi.sol",
  "compiler": {
    "name": "solc",
    "version": "0.5.16+commit.9c3226ce.Emscripten.clang"
  },
  "schemaVersion": "3.3.4",
  "updatedAt": "2021-03-22T09:00:52.928Z",
  "networkType": "ethereum",
  "devdoc": {
    "methods": {}
  },
  "userdoc": {
    "methods": {}
  }
}