{
  "contractName": "Proizvodi",
  "abi": [
    {
      "constant": true,
      "inputs": [],
      "name": "brojProizvoda",
      "outputs": [
        {
          "internalType": "uint256",
          "name": "",
          "type": "uint256"
        }
      ],
      "payable": false,
      "stateMutability": "view",
      "type": "function"
    },
    {
      "constant": true,
      "inputs": [
        {
          "internalType": "uint256",
          "name": "",
          "type": "uint256"
        }
      ],
      "name": "proizvodi",
      "outputs": [
        {
          "internalType": "uint256",
          "name": "id",
          "type": "uint256"
        },
        {
          "internalType": "uint256",
          "name": "idKorisnika",
          "type": "uint256"
        },
        {
          "internalType": "uint256",
          "name": "idKategorije",
          "type": "uint256"
        },
        {
          "internalType": "string",
          "name": "naziv",
          "type": "string"
        },
        {
          "internalType": "uint256",
          "name": "kolicina",
          "type": "uint256"
        },
        {
          "internalType": "uint256",
          "name": "cena",
          "type": "uint256"
        }
      ],
      "payable": false,
      "stateMutability": "view",
      "type": "function"
    },
    {
      "constant": false,
      "inputs": [
        {
          "internalType": "uint256",
          "name": "_idKorisnika",
          "type": "uint256"
        },
        {
          "internalType": "uint256",
          "name": "_idKategorije",
          "type": "uint256"
        },
        {
          "internalType": "string",
          "name": "_naziv",
          "type": "string"
        },
        {
          "internalType": "uint256",
          "name": "_kolicina",
          "type": "uint256"
        },
        {
          "internalType": "uint256",
          "name": "_cena",
          "type": "uint256"
        }
      ],
      "name": "dodajProizvod",
      "outputs": [],
      "payable": false,
      "stateMutability": "nonpayable",
      "type": "function"
    },
    {
      "constant": true,
      "inputs": [
        {
          "internalType": "uint256",
          "name": "korisnikID",
          "type": "uint256"
        }
      ],
      "name": "dajProizvodeZaKorisnika",
      "outputs": [
        {
          "internalType": "uint256[]",
          "name": "",
          "type": "uint256[]"
        }
      ],
      "payable": false,
      "stateMutability": "view",
      "type": "function"
    },
    {
      "constant": false,
      "inputs": [
        {
          "internalType": "uint256",
          "name": "_id",
          "type": "uint256"
        },
        {
          "internalType": "uint256",
          "name": "_promenaKolicine",
          "type": "uint256"
        }
      ],
      "name": "izmeniKolicinu",
      "outputs": [],
      "payable": false,
      "stateMutability": "nonpayable",
      "type": "function"
    },
    {
      "constant": false,
      "inputs": [
        {
          "internalType": "string",
          "name": "substring",
          "type": "string"
        }
      ],
      "name": "search",
      "outputs": [
        {
          "internalType": "uint256[]",
          "name": "",
          "type": "uint256[]"
        }
      ],
      "payable": false,
      "stateMutability": "nonpayable",
      "type": "function"
    }
  ],
  "bytecode": "0x60806040526000805534801561001457600080fd5b50610bae806100246000396000f3fe608060405234801561001057600080fd5b50600436106100625760003560e01c80633ddd031614610067578063820ed0861461009757806386d318c6146100c757806398f19cd0146100fc578063a972c9311461011a578063e610e3d314610136575b600080fd5b610081600480360361007c91908101906107e3565b610152565b60405161008e91906109a4565b60405180910390f35b6100b160048036036100ac91908101906107a2565b6101bd565b6040516100be91906109a4565b60405180910390f35b6100e160048036036100dc91908101906107e3565b6104a6565b6040516100f3969594939291906109e1565b60405180910390f35b61010461057a565b60405161011191906109c6565b60405180910390f35b610134600480360361012f9190810190610848565b610580565b005b610150600480360361014b919081019061080c565b61066c565b005b6060600260008381526020019081526020016000208054806020026020016040519081016040528092919081815260200182805480156101b157602002820191906000526020600020905b81548152602001906001019080831161019d575b50505050509050919050565b6060808290506000600190505b60005481116103b8576060600160008381526020019081526020016000206003018054600181600116156101000203166002900480601f01602080910402602001604051908101604052809291908181526020018280546001816001161561010002031660029004801561027f5780601f106102545761010080835404028352916020019161027f565b820191906000526020600020905b81548152906001019060200180831161026257829003601f168201915b50505050509050600080905060008090505b84518351038110156103a85760006001905060008090505b8651811015610341578681815181106102be57fe5b602001015160f81c60f81b7effffffffffffffffffffffffffffffffffffffffffffffffffffffffffffff191685828501815181106102f957fe5b602001015160f81c60f81b7effffffffffffffffffffffffffffffffffffffffffffffffffffffffffffff1916146103345760009150610341565b80806001019150506102a9565b50801561039a5760019250600060016000878152602001908152602001600020600001549050600381908060018154018082558091505090600182039060005260206000200160009091929091909150555050506103a8565b508080600101915050610291565b50505080806001019150506101ca565b5060006003805490501461041f57600380548060200260200160405190810160405280929190818152602001828054801561041257602002820191906000526020600020905b8154815260200190600101908083116103fe575b50505050509150506104a1565b600360009080600181540180825580915050906001820390600052602060002001600090919290919091505550600380548060200260200160405190810160405280929190818152602001828054801561049857602002820191906000526020600020905b815481526020019060010190808311610484575b50505050509150505b919050565b6001602052806000526040600020600091509050806000015490806001015490806002015490806003018054600181600116156101000203166002900480601f0160208091040260200160405190810160405280929190818152602001828054600181600116156101000203166002900480156105645780601f1061053957610100808354040283529160200191610564565b820191906000526020600020905b81548152906001019060200180831161054757829003601f168201915b5050505050908060040154908060050154905086565b60005481565b60008081548092919060010191905055506040518060c001604052806000548152602001868152602001858152602001848152602001838152602001828152506001600080548152602001908152602001600020600082015181600001556020820151816001015560408201518160020155606082015181600301908051906020019061060e929190610694565b506080820151816004015560a082015181600501559050506002600086815260200190815260200160002060005490806001815401808255809150509060018203906000526020600020016000909192909190915055505050505050565b8060016000848152602001908152602001600020600401600082825401925050819055505050565b828054600181600116156101000203166002900490600052602060002090601f016020900481019282601f106106d557805160ff1916838001178555610703565b82800160010185558215610703579182015b828111156107025782518255916020019190600101906106e7565b5b5090506107109190610714565b5090565b61073691905b8082111561073257600081600090555060010161071a565b5090565b90565b600082601f83011261074a57600080fd5b813561075d61075882610a76565b610a49565b9150808252602083016020830185838301111561077957600080fd5b610784838284610b01565b50505092915050565b60008135905061079c81610b54565b92915050565b6000602082840312156107b457600080fd5b600082013567ffffffffffffffff8111156107ce57600080fd5b6107da84828501610739565b91505092915050565b6000602082840312156107f557600080fd5b60006108038482850161078d565b91505092915050565b6000806040838503121561081f57600080fd5b600061082d8582860161078d565b925050602061083e8582860161078d565b9150509250929050565b600080600080600060a0868803121561086057600080fd5b600061086e8882890161078d565b955050602061087f8882890161078d565b945050604086013567ffffffffffffffff81111561089c57600080fd5b6108a888828901610739565b93505060606108b98882890161078d565b92505060806108ca8882890161078d565b9150509295509295909350565b60006108e38383610986565b60208301905092915050565b60006108fa82610ab2565b6109048185610ad5565b935061090f83610aa2565b8060005b8381101561094057815161092788826108d7565b975061093283610ac8565b925050600181019050610913565b5085935050505092915050565b600061095882610abd565b6109628185610ae6565b9350610972818560208601610b10565b61097b81610b43565b840191505092915050565b61098f81610af7565b82525050565b61099e81610af7565b82525050565b600060208201905081810360008301526109be81846108ef565b905092915050565b60006020820190506109db6000830184610995565b92915050565b600060c0820190506109f66000830189610995565b610a036020830188610995565b610a106040830187610995565b8181036060830152610a22818661094d565b9050610a316080830185610995565b610a3e60a0830184610995565b979650505050505050565b6000604051905081810181811067ffffffffffffffff82111715610a6c57600080fd5b8060405250919050565b600067ffffffffffffffff821115610a8d57600080fd5b601f19601f8301169050602081019050919050565b6000819050602082019050919050565b600081519050919050565b600081519050919050565b6000602082019050919050565b600082825260208201905092915050565b600082825260208201905092915050565b6000819050919050565b82818337600083830152505050565b60005b83811015610b2e578082015181840152602081019050610b13565b83811115610b3d576000848401525b50505050565b6000601f19601f8301169050919050565b610b5d81610af7565b8114610b6857600080fd5b5056fea365627a7a723158203ec7faf4882fa5eaa81da52f7c9d66f193e9934b2f53659a3fef898e16f9b53f6c6578706572696d656e74616cf564736f6c63430005100040",
  "source": "// SPDX-License-Identifier: MIT\r\npragma solidity >=0.4.22 <0.9.0;\r\npragma experimental ABIEncoderV2;\r\n\r\ncontract Proizvodi{\r\n\r\n    struct Proizvod{\r\n        uint id;\r\n        uint idKorisnika;\r\n        uint idKategorije;\r\n        string naziv;\r\n        uint kolicina;\r\n        uint cena;\r\n    }\r\n\r\n    uint public brojProizvoda = 0;\r\n\r\n    mapping (uint => Proizvod) public proizvodi;\r\n    mapping (uint => uint[]) proizvodiKorisnika;\r\n\r\n    function dodajProizvod(uint _idKorisnika, uint _idKategorije, string memory _naziv, uint _kolicina, uint _cena) public\r\n    {\r\n        brojProizvoda++;\r\n        proizvodi[brojProizvoda] = Proizvod(brojProizvoda, _idKorisnika, _idKategorije, _naziv, _kolicina, _cena);\r\n        proizvodiKorisnika[_idKorisnika].push(brojProizvoda);\r\n    }\r\n\r\n    function dajProizvodeZaKorisnika(uint korisnikID) view public returns(uint[] memory) {\r\n        return proizvodiKorisnika[korisnikID];\r\n    }\r\n\r\n    function izmeniKolicinu(uint _id, uint _promenaKolicine) public\r\n    {\r\n        proizvodi[_id].kolicina += _promenaKolicine;\r\n    }\r\n\r\n    uint[] arr;\r\n\r\n    function search(string memory substring) public returns(uint[] memory) {\r\n\r\n        bytes memory whatBytes = bytes (substring);\r\n\r\n        for (uint i = 1; i <= brojProizvoda; i++) {\r\n            bytes memory whereBytes = bytes (proizvodi[i].naziv);\r\n\r\n            bool found = false;\r\n            for (uint j = 0; j < (whereBytes.length - whatBytes.length); j++) {\r\n                bool flag = true;\r\n                for (uint k = 0; k < whatBytes.length; k++)\r\n                    if(whereBytes [j + k] != whatBytes[k]) {\r\n                        flag = false;\r\n                        break;\r\n                    }\r\n                \r\n                if(flag) {\r\n                    found = true;\r\n                    uint pomId = proizvodi[i].id;\r\n                    arr.push(pomId); \r\n                    break;\r\n                }\r\n            }\r\n        }\r\n        if(arr.length != 0)\r\n            return arr;\r\n        else\r\n        {\r\n            arr.push(0);\r\n            return arr;\r\n        }\r\n    }\r\n}",
  "sourcePath": "C:/Users/beslac_lazar/Desktop/project_dev/ChainTech/App/frontend/app/contracts/Proizvodi.sol",
  "compiler": {
    "name": "solc",
    "version": "0.5.16+commit.9c3226ce.Emscripten.clang"
  },
  "schemaVersion": "3.3.4",
  "updatedAt": "2021-04-12T16:52:56.365Z",
  "networkType": "ethereum",
  "devdoc": {
    "methods": {}
  },
  "userdoc": {
    "methods": {}
  }
}