{
  "contractName": "Proizvodi",
  "abi": [
    {
      "constant": true,
      "inputs": [],
      "name": "brojProizvoda",
      "outputs": [
        {
          "internalType": "uint256",
          "name": "",
          "type": "uint256"
        }
      ],
      "payable": false,
      "stateMutability": "view",
      "type": "function"
    },
    {
      "constant": true,
      "inputs": [
        {
          "internalType": "uint256",
          "name": "",
          "type": "uint256"
        }
      ],
      "name": "produkti",
      "outputs": [
        {
          "internalType": "uint256",
          "name": "",
          "type": "uint256"
        }
      ],
      "payable": false,
      "stateMutability": "view",
      "type": "function"
    },
    {
      "constant": true,
      "inputs": [
        {
          "internalType": "uint256",
          "name": "",
          "type": "uint256"
        }
      ],
      "name": "proizvodi",
      "outputs": [
        {
          "internalType": "uint256",
          "name": "id",
          "type": "uint256"
        },
        {
          "internalType": "uint256",
          "name": "idKorisnika",
          "type": "uint256"
        },
        {
          "internalType": "uint256",
          "name": "idKategorije",
          "type": "uint256"
        },
        {
          "internalType": "string",
          "name": "naziv",
          "type": "string"
        },
        {
          "internalType": "uint256",
          "name": "kolicina",
          "type": "uint256"
        },
        {
          "internalType": "uint256",
          "name": "cena",
          "type": "uint256"
        },
        {
          "internalType": "string",
          "name": "slika",
          "type": "string"
        }
      ],
      "payable": false,
      "stateMutability": "view",
      "type": "function"
    },
    {
      "constant": false,
      "inputs": [
        {
          "internalType": "uint256",
          "name": "_idKorisnika",
          "type": "uint256"
        },
        {
          "internalType": "uint256",
          "name": "_idKategorije",
          "type": "uint256"
        },
        {
          "internalType": "string",
          "name": "_naziv",
          "type": "string"
        },
        {
          "internalType": "uint256",
          "name": "_kolicina",
          "type": "uint256"
        },
        {
          "internalType": "uint256",
          "name": "_cena",
          "type": "uint256"
        },
        {
          "internalType": "string",
          "name": "_slika",
          "type": "string"
        }
      ],
      "name": "dodajProizvod",
      "outputs": [],
      "payable": false,
      "stateMutability": "nonpayable",
      "type": "function"
    },
    {
      "constant": true,
      "inputs": [
        {
          "internalType": "uint256",
          "name": "korisnikID",
          "type": "uint256"
        }
      ],
      "name": "dajProizvodeZaKorisnika",
      "outputs": [
        {
          "internalType": "uint256[]",
          "name": "",
          "type": "uint256[]"
        }
      ],
      "payable": false,
      "stateMutability": "view",
      "type": "function"
    },
    {
      "constant": false,
      "inputs": [
        {
          "internalType": "uint256",
          "name": "_id",
          "type": "uint256"
        },
        {
          "internalType": "uint256",
          "name": "_promenaKolicine",
          "type": "uint256"
        }
      ],
      "name": "izmeniKolicinu",
      "outputs": [],
      "payable": false,
      "stateMutability": "nonpayable",
      "type": "function"
    },
    {
      "constant": false,
      "inputs": [
        {
          "internalType": "string",
          "name": "substring",
          "type": "string"
        }
      ],
      "name": "search",
      "outputs": [
        {
          "internalType": "uint256[]",
          "name": "",
          "type": "uint256[]"
        }
      ],
      "payable": false,
      "stateMutability": "nonpayable",
      "type": "function"
    },
    {
      "constant": false,
      "inputs": [
        {
          "internalType": "uint256",
          "name": "_brojStrane",
          "type": "uint256"
        },
        {
          "internalType": "uint256",
          "name": "_brojProizvodaPoStrani",
          "type": "uint256"
        }
      ],
      "name": "pagination",
      "outputs": [
        {
          "internalType": "uint256[]",
          "name": "",
          "type": "uint256[]"
        }
      ],
      "payable": false,
      "stateMutability": "nonpayable",
      "type": "function"
    }
  ],
  "bytecode": "0x60806040526000805534801561001457600080fd5b50610e1c806100246000396000f3fe608060405234801561001057600080fd5b50600436106100885760003560e01c806386d318c61161005b57806386d318c61461014d57806398f19cd014610183578063c8c9f6fb146101a1578063e610e3d3146101bd57610088565b806337b7bfdb1461008d5780633ddd0316146100bd57806373dadfaa146100ed578063820ed0861461011d575b600080fd5b6100a760048036036100a29190810190610a3b565b6101d9565b6040516100b49190610bfd565b60405180910390f35b6100d760048036036100d29190810190610a12565b61029e565b6040516100e49190610bfd565b60405180910390f35b61010760048036036101029190810190610a12565b610309565b6040516101149190610c1f565b60405180910390f35b610137600480360361013291908101906109d1565b61032a565b6040516101449190610bfd565b60405180910390f35b61016760048036036101629190810190610a12565b610613565b60405161017a9796959493929190610c3a565b60405180910390f35b61018b610785565b6040516101989190610c1f565b60405180910390f35b6101bb60048036036101b69190810190610a77565b61078b565b005b6101d760048036036101d29190810190610a3b565b61089b565b005b60606000828484020390505b8383028110156102445760006001600083815260200190815260200160002060000154905060048190806001815401808255809150509060018203906000526020600020016000909192909190915055505080806001019150506101e5565b50600480548060200260200160405190810160405280929190818152602001828054801561029157602002820191906000526020600020905b81548152602001906001019080831161027d575b5050505050905092915050565b6060600260008381526020019081526020016000208054806020026020016040519081016040528092919081815260200182805480156102fd57602002820191906000526020600020905b8154815260200190600101908083116102e9575b50505050509050919050565b6004818154811061031657fe5b906000526020600020016000915090505481565b6060808290506000600190505b6000548111610525576060600160008381526020019081526020016000206003018054600181600116156101000203166002900480601f0160208091040260200160405190810160405280929190818152602001828054600181600116156101000203166002900480156103ec5780601f106103c1576101008083540402835291602001916103ec565b820191906000526020600020905b8154815290600101906020018083116103cf57829003601f168201915b50505050509050600080905060008090505b84518351038110156105155760006001905060008090505b86518110156104ae5786818151811061042b57fe5b602001015160f81c60f81b7effffffffffffffffffffffffffffffffffffffffffffffffffffffffffffff1916858285018151811061046657fe5b602001015160f81c60f81b7effffffffffffffffffffffffffffffffffffffffffffffffffffffffffffff1916146104a157600091506104ae565b8080600101915050610416565b508015610507576001925060006001600087815260200190815260200160002060000154905060038190806001815401808255809150509060018203906000526020600020016000909192909190915055505050610515565b5080806001019150506103fe565b5050508080600101915050610337565b5060006003805490501461058c57600380548060200260200160405190810160405280929190818152602001828054801561057f57602002820191906000526020600020905b81548152602001906001019080831161056b575b505050505091505061060e565b600360009080600181540180825580915050906001820390600052602060002001600090919290919091505550600380548060200260200160405190810160405280929190818152602001828054801561060557602002820191906000526020600020905b8154815260200190600101908083116105f1575b50505050509150505b919050565b6001602052806000526040600020600091509050806000015490806001015490806002015490806003018054600181600116156101000203166002900480601f0160208091040260200160405190810160405280929190818152602001828054600181600116156101000203166002900480156106d15780601f106106a6576101008083540402835291602001916106d1565b820191906000526020600020905b8154815290600101906020018083116106b457829003601f168201915b505050505090806004015490806005015490806006018054600181600116156101000203166002900480601f01602080910402602001604051908101604052809291908181526020018280546001816001161561010002031660029004801561077b5780601f106107505761010080835404028352916020019161077b565b820191906000526020600020905b81548152906001019060200180831161075e57829003601f168201915b5050505050905087565b60005481565b60008081548092919060010191905055506040518060e001604052806000548152602001878152602001868152602001858152602001848152602001838152602001828152506001600080548152602001908152602001600020600082015181600001556020820151816001015560408201518160020155606082015181600301908051906020019061081f9291906108c3565b506080820151816004015560a0820151816005015560c08201518160060190805190602001906108509291906108c3565b50905050600260008781526020019081526020016000206000549080600181540180825580915050906001820390600052602060002001600090919290919091505550505050505050565b8060016000848152602001908152602001600020600401600082825401925050819055505050565b828054600181600116156101000203166002900490600052602060002090601f016020900481019282601f1061090457805160ff1916838001178555610932565b82800160010185558215610932579182015b82811115610931578251825591602001919060010190610916565b5b50905061093f9190610943565b5090565b61096591905b80821115610961576000816000905550600101610949565b5090565b90565b600082601f83011261097957600080fd5b813561098c61098782610ce4565b610cb7565b915080825260208301602083018583830111156109a857600080fd5b6109b3838284610d6f565b50505092915050565b6000813590506109cb81610dc2565b92915050565b6000602082840312156109e357600080fd5b600082013567ffffffffffffffff8111156109fd57600080fd5b610a0984828501610968565b91505092915050565b600060208284031215610a2457600080fd5b6000610a32848285016109bc565b91505092915050565b60008060408385031215610a4e57600080fd5b6000610a5c858286016109bc565b9250506020610a6d858286016109bc565b9150509250929050565b60008060008060008060c08789031215610a9057600080fd5b6000610a9e89828a016109bc565b9650506020610aaf89828a016109bc565b955050604087013567ffffffffffffffff811115610acc57600080fd5b610ad889828a01610968565b9450506060610ae989828a016109bc565b9350506080610afa89828a016109bc565b92505060a087013567ffffffffffffffff811115610b1757600080fd5b610b2389828a01610968565b9150509295509295509295565b6000610b3c8383610bdf565b60208301905092915050565b6000610b5382610d20565b610b5d8185610d43565b9350610b6883610d10565b8060005b83811015610b99578151610b808882610b30565b9750610b8b83610d36565b925050600181019050610b6c565b5085935050505092915050565b6000610bb182610d2b565b610bbb8185610d54565b9350610bcb818560208601610d7e565b610bd481610db1565b840191505092915050565b610be881610d65565b82525050565b610bf781610d65565b82525050565b60006020820190508181036000830152610c178184610b48565b905092915050565b6000602082019050610c346000830184610bee565b92915050565b600060e082019050610c4f600083018a610bee565b610c5c6020830189610bee565b610c696040830188610bee565b8181036060830152610c7b8187610ba6565b9050610c8a6080830186610bee565b610c9760a0830185610bee565b81810360c0830152610ca98184610ba6565b905098975050505050505050565b6000604051905081810181811067ffffffffffffffff82111715610cda57600080fd5b8060405250919050565b600067ffffffffffffffff821115610cfb57600080fd5b601f19601f8301169050602081019050919050565b6000819050602082019050919050565b600081519050919050565b600081519050919050565b6000602082019050919050565b600082825260208201905092915050565b600082825260208201905092915050565b6000819050919050565b82818337600083830152505050565b60005b83811015610d9c578082015181840152602081019050610d81565b83811115610dab576000848401525b50505050565b6000601f19601f8301169050919050565b610dcb81610d65565b8114610dd657600080fd5b5056fea365627a7a72315820403a8594ee434411746478d9563cd59139033c7ff410d62d7d116135d9575f246c6578706572696d656e74616cf564736f6c63430005100040",
  "source": "// SPDX-License-Identifier: MIT\npragma solidity >=0.4.22 <0.9.0;\npragma experimental ABIEncoderV2;\n\ncontract Proizvodi{\n\n    struct Proizvod{\n        uint id;\n        uint idKorisnika;\n        uint idKategorije;\n        string naziv;\n        uint kolicina;\n        uint cena;\n        string slika;\n    }\n\n    uint public brojProizvoda = 0;\n\n    mapping (uint => Proizvod) public proizvodi;\n    mapping (uint => uint[]) proizvodiKorisnika;\n\n    function dodajProizvod(uint _idKorisnika, uint _idKategorije, string memory _naziv, uint _kolicina, uint _cena, string memory _slika) public\n    {\n        brojProizvoda++;\n        proizvodi[brojProizvoda] = Proizvod(brojProizvoda, _idKorisnika, _idKategorije, _naziv, _kolicina, _cena, _slika);\n        proizvodiKorisnika[_idKorisnika].push(brojProizvoda);\n    }\n\n    function dajProizvodeZaKorisnika(uint korisnikID) view public returns(uint[] memory) {\n        return proizvodiKorisnika[korisnikID];\n    }\n\n    function izmeniKolicinu(uint _id, uint _promenaKolicine) public\n    {\n        proizvodi[_id].kolicina += _promenaKolicine;\n    }\n\n    \n    uint[] arr;\n    \n    function search(string memory substring) public returns(uint[] memory) {\n        \n        bytes memory whatBytes = bytes (substring);\n\n        for (uint i = 1; i <= brojProizvoda; i++) {\n            bytes memory whereBytes = bytes (proizvodi[i].naziv);\n\n            bool found = false;\n            for (uint j = 0; j < (whereBytes.length - whatBytes.length); j++) {\n                bool flag = true;\n                for (uint k = 0; k < whatBytes.length; k++)\n                    if(whereBytes [j + k] != whatBytes[k]) {\n                        flag = false;\n                        break;\n                    }\n                \n                if(flag) {\n                    found = true;\n                    uint pomId = proizvodi[i].id;\n                    arr.push(pomId); \n                    break;\n                }\n            }\n        }\n        if(arr.length != 0)\n            return arr;\n        else\n        {\n            arr.push(0);\n            return arr;\n        }\n    }\n\n\n    //Funkcija vraca ID-jeve proizvoda ciji je redni broj u odredjenim granicama\n    //Koristice se tako sto ce se brojProizvodaPoStrani staviti na primer na 10\n    //a broj strane na 1, rezultat ce biti prvih 10 proizvoda\n    //broj strane 2, drugih 10 proizvoda\n    uint[] public produkti;\n\n    function pagination(uint _brojStrane, uint _brojProizvodaPoStrani) public returns (uint[] memory) {\n\n        for(uint i = _brojProizvodaPoStrani * _brojStrane - _brojProizvodaPoStrani; i < _brojProizvodaPoStrani * _brojStrane; i++ ){\n            uint idProizvoda = proizvodi[i].id;\n            produkti.push(idProizvoda);\n        } \n        return produkti;\n    }\n}",
  "sourcePath": "E:/ChainTech/App/frontend/app/contracts/Proizvodi.sol",
  "compiler": {
    "name": "solc",
    "version": "0.5.16+commit.9c3226ce.Emscripten.clang"
  },
  "schemaVersion": "3.3.4",
  "updatedAt": "2021-04-20T17:54:42.451Z",
  "networkType": "ethereum",
  "devdoc": {
    "methods": {}
  },
  "userdoc": {
    "methods": {}
  }
}