{
  "contractName": "Proizvodi",
  "abi": [
    {
      "constant": true,
      "inputs": [],
      "name": "brojProizvoda",
      "outputs": [
        {
          "internalType": "int256",
          "name": "",
          "type": "int256"
        }
      ],
      "payable": false,
      "stateMutability": "view",
      "type": "function"
    },
    {
      "constant": true,
      "inputs": [
        {
          "internalType": "int256",
          "name": "",
          "type": "int256"
        }
      ],
      "name": "proizvodi",
      "outputs": [
        {
          "internalType": "int256",
          "name": "id",
          "type": "int256"
        },
        {
          "internalType": "int256",
          "name": "idKorisnika",
          "type": "int256"
        },
        {
          "internalType": "int256",
          "name": "idKategorije",
          "type": "int256"
        },
        {
          "internalType": "string",
          "name": "naziv",
          "type": "string"
        },
        {
          "internalType": "uint256",
          "name": "kolicina",
          "type": "uint256"
        },
        {
          "internalType": "uint256",
          "name": "cena",
          "type": "uint256"
        }
      ],
      "payable": false,
      "stateMutability": "view",
      "type": "function"
    },
    {
      "constant": false,
      "inputs": [
        {
          "internalType": "int256",
          "name": "_idKorisnika",
          "type": "int256"
        },
        {
          "internalType": "int256",
          "name": "_idKategorije",
          "type": "int256"
        },
        {
          "internalType": "string",
          "name": "_naziv",
          "type": "string"
        },
        {
          "internalType": "uint256",
          "name": "_kolicina",
          "type": "uint256"
        },
        {
          "internalType": "uint256",
          "name": "_cena",
          "type": "uint256"
        }
      ],
      "name": "dodajProizvod",
      "outputs": [],
      "payable": false,
      "stateMutability": "nonpayable",
      "type": "function"
    },
    {
      "constant": true,
      "inputs": [
        {
          "internalType": "int256",
          "name": "korisnikID",
          "type": "int256"
        }
      ],
      "name": "dajProizvodeZaKorisnika",
      "outputs": [
        {
          "internalType": "int256[]",
          "name": "",
          "type": "int256[]"
        }
      ],
      "payable": false,
      "stateMutability": "view",
      "type": "function"
    },
    {
      "constant": false,
      "inputs": [
        {
          "internalType": "int256",
          "name": "_id",
          "type": "int256"
        },
        {
          "internalType": "uint256",
          "name": "_promenaKolicine",
          "type": "uint256"
        }
      ],
      "name": "izmeniKolicinu",
      "outputs": [],
      "payable": false,
      "stateMutability": "nonpayable",
      "type": "function"
    }
  ],
  "bytecode": "0x60806040526000805534801561001457600080fd5b5061088e806100246000396000f3fe608060405234801561001057600080fd5b50600436106100575760003560e01c8063538a7cfc1461005c5780638902db2b1461009157806398f19cd0146100ad578063a06903a9146100cb578063b1cf859a146100e7575b600080fd5b61007660048036036100719190810190610493565b610117565b604051610088969594939291906106a0565b60405180910390f35b6100ab60048036036100a691908101906104bc565b6101eb565b005b6100b56102d7565b6040516100c29190610685565b60405180910390f35b6100e560048036036100e0919081019061054b565b6102dd565b005b61010160048036036100fc9190810190610493565b610305565b60405161010e9190610663565b60405180910390f35b6001602052806000526040600020600091509050806000015490806001015490806002015490806003018054600181600116156101000203166002900480601f0160208091040260200160405190810160405280929190818152602001828054600181600116156101000203166002900480156101d55780601f106101aa576101008083540402835291602001916101d5565b820191906000526020600020905b8154815290600101906020018083116101b857829003601f168201915b5050505050908060040154908060050154905086565b60008081548092919060010191905055506040518060c0016040528060005481526020018681526020018581526020018481526020018381526020018281525060016000805481526020019081526020016000206000820151816000015560208201518160010155604082015181600201556060820151816003019080519060200190610279929190610370565b506080820151816004015560a082015181600501559050506002600086815260200190815260200160002060005490806001815401808255809150509060018203906000526020600020016000909192909190915055505050505050565b60005481565b8060016000848152602001908152602001600020600401600082825401925050819055505050565b60606002600083815260200190815260200160002080548060200260200160405190810160405280929190818152602001828054801561036457602002820191906000526020600020905b815481526020019060010190808311610350575b50505050509050919050565b828054600181600116156101000203166002900490600052602060002090601f016020900481019282601f106103b157805160ff19168380011785556103df565b828001600101855582156103df579182015b828111156103de5782518255916020019190600101906103c3565b5b5090506103ec91906103f0565b5090565b61041291905b8082111561040e5760008160009055506001016103f6565b5090565b90565b6000813590506104248161081d565b92915050565b600082601f83011261043b57600080fd5b813561044e61044982610735565b610708565b9150808252602083016020830185838301111561046a57600080fd5b6104758382846107ca565b50505092915050565b60008135905061048d81610834565b92915050565b6000602082840312156104a557600080fd5b60006104b384828501610415565b91505092915050565b600080600080600060a086880312156104d457600080fd5b60006104e288828901610415565b95505060206104f388828901610415565b945050604086013567ffffffffffffffff81111561051057600080fd5b61051c8882890161042a565b935050606061052d8882890161047e565b925050608061053e8882890161047e565b9150509295509295909350565b6000806040838503121561055e57600080fd5b600061056c85828601610415565b925050602061057d8582860161047e565b9150509250929050565b600061059383836105fd565b60208301905092915050565b60006105aa82610771565b6105b48185610794565b93506105bf83610761565b8060005b838110156105f05781516105d78882610587565b97506105e283610787565b9250506001810190506105c3565b5085935050505092915050565b610606816107b6565b82525050565b610615816107b6565b82525050565b60006106268261077c565b61063081856107a5565b93506106408185602086016107d9565b6106498161080c565b840191505092915050565b61065d816107c0565b82525050565b6000602082019050818103600083015261067d818461059f565b905092915050565b600060208201905061069a600083018461060c565b92915050565b600060c0820190506106b5600083018961060c565b6106c2602083018861060c565b6106cf604083018761060c565b81810360608301526106e1818661061b565b90506106f06080830185610654565b6106fd60a0830184610654565b979650505050505050565b6000604051905081810181811067ffffffffffffffff8211171561072b57600080fd5b8060405250919050565b600067ffffffffffffffff82111561074c57600080fd5b601f19601f8301169050602081019050919050565b6000819050602082019050919050565b600081519050919050565b600081519050919050565b6000602082019050919050565b600082825260208201905092915050565b600082825260208201905092915050565b6000819050919050565b6000819050919050565b82818337600083830152505050565b60005b838110156107f75780820151818401526020810190506107dc565b83811115610806576000848401525b50505050565b6000601f19601f8301169050919050565b610826816107b6565b811461083157600080fd5b50565b61083d816107c0565b811461084857600080fd5b5056fea365627a7a72315820bf12e023bc1b0159bd0651a265fc903d6365f60c474380206fa86bfc634aa4416c6578706572696d656e74616cf564736f6c63430005100040",
  "source": "// SPDX-License-Identifier: MIT\r\npragma solidity >=0.4.22 <0.9.0;\r\npragma experimental ABIEncoderV2;\r\n\r\ncontract Proizvodi{\r\n\r\n    struct Proizvod{\r\n        int id;\r\n        int idKorisnika;\r\n        int idKategorije;\r\n        string naziv;\r\n        uint kolicina;\r\n        uint cena;\r\n    }\r\n\r\n    int public brojProizvoda = 0;\r\n\r\n    mapping (int => Proizvod) public proizvodi;\r\n    mapping (int => int[]) proizvodiKorisnika;\r\n\r\n    function dodajProizvod(int _idKorisnika, int _idKategorije, string memory _naziv, uint _kolicina, uint _cena) public\r\n    {\r\n        brojProizvoda++;\r\n        proizvodi[brojProizvoda] = Proizvod(brojProizvoda, _idKorisnika, _idKategorije, _naziv, _kolicina, _cena);\r\n        proizvodiKorisnika[_idKorisnika].push(brojProizvoda);\r\n    }\r\n\r\n    function dajProizvodeZaKorisnika(int korisnikID) view public returns(int[] memory) {\r\n        return proizvodiKorisnika[korisnikID];\r\n    }\r\n\r\n    function izmeniKolicinu(int _id, uint _promenaKolicine) public\r\n    {\r\n        proizvodi[_id].kolicina += _promenaKolicine;\r\n    }\r\n}",
  "sourcePath": "C:/Users/beslac_lazar/Desktop/project dev/ChainTech/App/frontend/app/contracts/Proizvodi.sol",
  "compiler": {
    "name": "solc",
    "version": "0.5.16+commit.9c3226ce.Emscripten.clang"
  },
  "schemaVersion": "3.3.4",
  "updatedAt": "2021-03-31T07:53:49.883Z",
  "networkType": "ethereum",
  "devdoc": {
    "methods": {}
  },
  "userdoc": {
    "methods": {}
  }
}