{
  "contractName": "Notifications",
  "abi": [
    {
      "constant": true,
      "inputs": [],
      "name": "brojPorudzbina",
      "outputs": [
        {
          "internalType": "uint256",
          "name": "",
          "type": "uint256"
        }
      ],
      "payable": false,
      "stateMutability": "view",
      "type": "function"
    },
    {
      "constant": true,
      "inputs": [
        {
          "internalType": "uint256",
          "name": "",
          "type": "uint256"
        }
      ],
      "name": "notifikacije",
      "outputs": [
        {
          "internalType": "uint256",
          "name": "id",
          "type": "uint256"
        },
        {
          "internalType": "uint256",
          "name": "idKorisnika",
          "type": "uint256"
        },
        {
          "internalType": "uint256",
          "name": "idProizvoda",
          "type": "uint256"
        },
        {
          "internalType": "string",
          "name": "nazivProizvoda",
          "type": "string"
        },
        {
          "internalType": "uint256",
          "name": "kolicina",
          "type": "uint256"
        },
        {
          "internalType": "string",
          "name": "ime",
          "type": "string"
        },
        {
          "internalType": "string",
          "name": "brojTelefona",
          "type": "string"
        },
        {
          "internalType": "string",
          "name": "adresa",
          "type": "string"
        }
      ],
      "payable": false,
      "stateMutability": "view",
      "type": "function"
    },
    {
      "constant": false,
      "inputs": [
        {
          "internalType": "uint256",
          "name": "_idKorisnika",
          "type": "uint256"
        },
        {
          "internalType": "uint256",
          "name": "_idProizvoda",
          "type": "uint256"
        },
        {
          "internalType": "string",
          "name": "_nazivProizvoda",
          "type": "string"
        },
        {
          "internalType": "uint256",
          "name": "_kolicina",
          "type": "uint256"
        },
        {
          "internalType": "string",
          "name": "_ime",
          "type": "string"
        },
        {
          "internalType": "string",
          "name": "_telefon",
          "type": "string"
        },
        {
          "internalType": "string",
          "name": "_adresa",
          "type": "string"
        }
      ],
      "name": "dodajNotifikaciju",
      "outputs": [],
      "payable": false,
      "stateMutability": "nonpayable",
      "type": "function"
    }
  ],
  "bytecode": "0x60806040526000805534801561001457600080fd5b5061099a806100246000396000f3fe608060405234801561001057600080fd5b50600436106100415760003560e01c8063843c1a7e146100465780639c4517821461024d5780639cb2df68146104eb575b600080fd5b6100726004803603602081101561005c57600080fd5b8101908080359060200190929190505050610509565b604051808981526020018881526020018781526020018060200186815260200180602001806020018060200185810385528a818151815260200191508051906020019080838360005b838110156100d65780820151818401526020810190506100bb565b50505050905090810190601f1680156101035780820380516001836020036101000a031916815260200191505b50858103845288818151815260200191508051906020019080838360005b8381101561013c578082015181840152602081019050610121565b50505050905090810190601f1680156101695780820380516001836020036101000a031916815260200191505b50858103835287818151815260200191508051906020019080838360005b838110156101a2578082015181840152602081019050610187565b50505050905090810190601f1680156101cf5780820380516001836020036101000a031916815260200191505b50858103825286818151815260200191508051906020019080838360005b838110156102085780820151818401526020810190506101ed565b50505050905090810190601f1680156102355780820380516001836020036101000a031916815260200191505b509c5050505050505050505050505060405180910390f35b6104e9600480360360e081101561026357600080fd5b8101908080359060200190929190803590602001909291908035906020019064010000000081111561029457600080fd5b8201836020820111156102a657600080fd5b803590602001918460018302840111640100000000831117156102c857600080fd5b91908080601f016020809104026020016040519081016040528093929190818152602001838380828437600081840152601f19601f820116905080830192505050505050509192919290803590602001909291908035906020019064010000000081111561033557600080fd5b82018360208201111561034757600080fd5b8035906020019184600183028401116401000000008311171561036957600080fd5b91908080601f016020809104026020016040519081016040528093929190818152602001838380828437600081840152601f19601f820116905080830192505050505050509192919290803590602001906401000000008111156103cc57600080fd5b8201836020820111156103de57600080fd5b8035906020019184600183028401116401000000008311171561040057600080fd5b91908080601f016020809104026020016040519081016040528093929190818152602001838380828437600081840152601f19601f8201169050808301925050505050505091929192908035906020019064010000000081111561046357600080fd5b82018360208201111561047557600080fd5b8035906020019184600183028401116401000000008311171561049757600080fd5b91908080601f016020809104026020016040519081016040528093929190818152602001838380828437600081840152601f19601f8201169050808301925050505050505091929192905050506107b1565b005b6104f36108ba565b6040518082815260200191505060405180910390f35b6001602052806000526040600020600091509050806000015490806001015490806002015490806003018054600181600116156101000203166002900480601f0160208091040260200160405190810160405280929190818152602001828054600181600116156101000203166002900480156105c75780601f1061059c576101008083540402835291602001916105c7565b820191906000526020600020905b8154815290600101906020018083116105aa57829003601f168201915b505050505090806004015490806005018054600181600116156101000203166002900480601f01602080910402602001604051908101604052809291908181526020018280546001816001161561010002031660029004801561066b5780601f106106405761010080835404028352916020019161066b565b820191906000526020600020905b81548152906001019060200180831161064e57829003601f168201915b505050505090806006018054600181600116156101000203166002900480601f0160208091040260200160405190810160405280929190818152602001828054600181600116156101000203166002900480156107095780601f106106de57610100808354040283529160200191610709565b820191906000526020600020905b8154815290600101906020018083116106ec57829003601f168201915b505050505090806007018054600181600116156101000203166002900480601f0160208091040260200160405190810160405280929190818152602001828054600181600116156101000203166002900480156107a75780601f1061077c576101008083540402835291602001916107a7565b820191906000526020600020905b81548152906001019060200180831161078a57829003601f168201915b5050505050905088565b60008081548092919060010191905055506040518061010001604052806000548152602001888152602001878152602001868152602001858152602001848152602001838152602001828152506001600080548152602001908152602001600020600082015181600001556020820151816001015560408201518160020155606082015181600301908051906020019061084c9291906108c0565b506080820151816004015560a08201518160050190805190602001906108739291906108c0565b5060c08201518160060190805190602001906108909291906108c0565b5060e08201518160070190805190602001906108ad9291906108c0565b5090505050505050505050565b60005481565b828054600181600116156101000203166002900490600052602060002090601f016020900481019282601f1061090157805160ff191683800117855561092f565b8280016001018555821561092f579182015b8281111561092e578251825591602001919060010190610913565b5b50905061093c9190610940565b5090565b61096291905b8082111561095e576000816000905550600101610946565b5090565b9056fea265627a7a72315820ab7f0167634dcea7f251e6ab20285bb351d1af9a3187157af790cfa335fe0be164736f6c63430005100032",
  "source": "// SPDX-License-Identifier: MIT\r\npragma solidity >=0.4.22 <0.9.0;\r\n\r\ncontract Notifications {\r\n\r\n    struct Notification{\r\n        uint id;\r\n        uint idKorisnika;\r\n        uint idProizvoda;\r\n        string nazivProizvoda;\r\n        uint kolicina;\r\n        string ime; //Ime osobe koja je narucila proizvod\r\n        string brojTelefona; // telefon osobe koja je narucila\r\n        string adresa; // adresa gde treba da se isporuci\r\n    }\r\n\r\n    uint public brojPorudzbina = 0;\r\n\r\n    mapping (uint => Notification) public notifikacije;\r\n\r\n    function dodajNotifikaciju(uint _idKorisnika, uint  _idProizvoda, string memory _nazivProizvoda,\r\n                                uint _kolicina, string memory _ime, string memory _telefon, string memory _adresa) public {\r\n        brojPorudzbina++;\r\n        notifikacije[brojPorudzbina] = Notification(\r\n            brojPorudzbina,\r\n            _idKorisnika,\r\n            _idProizvoda,\r\n            _nazivProizvoda,\r\n            _kolicina,\r\n            _ime,\r\n            _telefon,\r\n            _adresa\r\n        );\r\n    }\r\n\r\n}",
  "sourcePath": "C:/Users/beslac_lazar/Desktop/najnoviije/ChainTech/App/frontend/webApp/contracts/Notifications.sol",
  "compiler": {
    "name": "solc",
    "version": "0.5.16+commit.9c3226ce.Emscripten.clang"
  },
  "schemaVersion": "3.3.4",
  "updatedAt": "2021-05-21T01:22:58.687Z",
  "networkType": "ethereum",
  "devdoc": {
    "methods": {}
  },
  "userdoc": {
    "methods": {}
  }
}