{
  "contractName": "Proizvodi",
  "abi": [
    {
      "anonymous": false,
      "inputs": [
        {
          "indexed": false,
          "internalType": "bool",
          "name": "",
          "type": "bool"
        }
      ],
      "name": "smanji",
      "type": "event"
    },
    {
      "constant": true,
      "inputs": [],
      "name": "brojProizvoda",
      "outputs": [
        {
          "internalType": "uint256",
          "name": "",
          "type": "uint256"
        }
      ],
      "payable": false,
      "stateMutability": "view",
      "type": "function"
    },
    {
      "constant": true,
      "inputs": [
        {
          "internalType": "uint256",
          "name": "",
          "type": "uint256"
        }
      ],
      "name": "proizvodi",
      "outputs": [
        {
          "internalType": "uint256",
          "name": "id",
          "type": "uint256"
        },
        {
          "internalType": "uint256",
          "name": "idKorisnika",
          "type": "uint256"
        },
        {
          "internalType": "string",
          "name": "idKategorije",
          "type": "string"
        },
        {
          "internalType": "string",
          "name": "naziv",
          "type": "string"
        },
        {
          "internalType": "uint256",
          "name": "kolicina",
          "type": "uint256"
        },
        {
          "internalType": "string",
          "name": "cena",
          "type": "string"
        },
        {
          "internalType": "string",
          "name": "slika",
          "type": "string"
        },
        {
          "internalType": "string",
          "name": "opis",
          "type": "string"
        }
      ],
      "payable": false,
      "stateMutability": "view",
      "type": "function"
    },
    {
      "constant": false,
      "inputs": [
        {
          "internalType": "uint256",
          "name": "_idKorisnika",
          "type": "uint256"
        },
        {
          "internalType": "string",
          "name": "_idKategorije",
          "type": "string"
        },
        {
          "internalType": "string",
          "name": "_naziv",
          "type": "string"
        },
        {
          "internalType": "uint256",
          "name": "_kolicina",
          "type": "uint256"
        },
        {
          "internalType": "string",
          "name": "_cena",
          "type": "string"
        },
        {
          "internalType": "string",
          "name": "_slika",
          "type": "string"
        },
        {
          "internalType": "string",
          "name": "_opis",
          "type": "string"
        }
      ],
      "name": "dodajProizvod",
      "outputs": [],
      "payable": false,
      "stateMutability": "nonpayable",
      "type": "function"
    },
    {
      "constant": true,
      "inputs": [
        {
          "internalType": "uint256",
          "name": "korisnikID",
          "type": "uint256"
        }
      ],
      "name": "dajProizvodeZaKorisnika",
      "outputs": [
        {
          "internalType": "uint256[]",
          "name": "",
          "type": "uint256[]"
        }
      ],
      "payable": false,
      "stateMutability": "view",
      "type": "function"
    },
    {
      "constant": false,
      "inputs": [
        {
          "internalType": "uint256",
          "name": "_id",
          "type": "uint256"
        },
        {
          "internalType": "uint256",
          "name": "_promenaKolicine",
          "type": "uint256"
        }
      ],
      "name": "izmeniKolicinu",
      "outputs": [],
      "payable": false,
      "stateMutability": "nonpayable",
      "type": "function"
    },
    {
      "constant": false,
      "inputs": [
        {
          "internalType": "uint256",
          "name": "_id",
          "type": "uint256"
        }
      ],
      "name": "obrisiProizvod",
      "outputs": [],
      "payable": false,
      "stateMutability": "nonpayable",
      "type": "function"
    },
    {
      "constant": false,
      "inputs": [
        {
          "internalType": "uint256",
          "name": "_id",
          "type": "uint256"
        },
        {
          "internalType": "uint256",
          "name": "_kolicina",
          "type": "uint256"
        }
      ],
      "name": "smanjiPrilikomKupovine",
      "outputs": [],
      "payable": false,
      "stateMutability": "nonpayable",
      "type": "function"
    },
    {
      "constant": true,
      "inputs": [
        {
          "internalType": "uint256",
          "name": "_id",
          "type": "uint256"
        },
        {
          "internalType": "uint256",
          "name": "_kolicina",
          "type": "uint256"
        }
      ],
      "name": "daLiMozeDaSeSmanji",
      "outputs": [
        {
          "internalType": "int256",
          "name": "",
          "type": "int256"
        }
      ],
      "payable": false,
      "stateMutability": "view",
      "type": "function"
    }
  ],
  "bytecode": "0x60806040526000805534801561001457600080fd5b506110cc806100246000396000f3fe608060405234801561001057600080fd5b50600436106100885760003560e01c8063aed737c41161005b578063aed737c41461012e578063b85f706e1461015e578063decc00461461017a578063e610e3d31461019657610088565b80633ddd03161461008d578063831aa15d146100bd57806386d318c6146100d957806398f19cd014610110575b600080fd5b6100a760048036036100a29190810190610c0d565b6101b2565b6040516100b49190610e64565b60405180910390f35b6100d760048036036100d29190810190610c36565b61021d565b005b6100f360048036036100ee9190810190610c0d565b610378565b604051610107989796959493929190610ebc565b60405180910390f35b6101186106b8565b6040516101259190610ea1565b60405180910390f35b61014860048036036101439190810190610d4c565b6106be565b6040516101559190610e86565b60405180910390f35b61017860048036036101739190810190610c0d565b6106f3565b005b610194600480360361018f9190810190610d4c565b6109a4565b005b6101b060048036036101ab9190810190610d4c565b6109fc565b005b60606002600083815260200190815260200160002080548060200260200160405190810160405280929190818152602001828054801561021157602002820191906000526020600020905b8154815260200190600101908083116101fd575b50505050509050919050565b60008081548092919060010191905055506040518061010001604052806000548152602001888152602001878152602001868152602001858152602001848152602001838152602001828152506001600080548152602001908152602001600020600082015181600001556020820151816001015560408201518160020190805190602001906102ae929190610a33565b5060608201518160030190805190602001906102cb929190610a33565b506080820151816004015560a08201518160050190805190602001906102f2929190610a33565b5060c082015181600601908051906020019061030f929190610a33565b5060e082015181600701908051906020019061032c929190610a33565b5090505060026000888152602001908152602001600020600054908060018154018082558091505090600182039060005260206000200160009091929091909150555050505050505050565b6001602052806000526040600020600091509050806000015490806001015490806002018054600181600116156101000203166002900480601f0160208091040260200160405190810160405280929190818152602001828054600181600116156101000203166002900480156104305780601f1061040557610100808354040283529160200191610430565b820191906000526020600020905b81548152906001019060200180831161041357829003601f168201915b505050505090806003018054600181600116156101000203166002900480601f0160208091040260200160405190810160405280929190818152602001828054600181600116156101000203166002900480156104ce5780601f106104a3576101008083540402835291602001916104ce565b820191906000526020600020905b8154815290600101906020018083116104b157829003601f168201915b505050505090806004015490806005018054600181600116156101000203166002900480601f0160208091040260200160405190810160405280929190818152602001828054600181600116156101000203166002900480156105725780601f1061054757610100808354040283529160200191610572565b820191906000526020600020905b81548152906001019060200180831161055557829003601f168201915b505050505090806006018054600181600116156101000203166002900480601f0160208091040260200160405190810160405280929190818152602001828054600181600116156101000203166002900480156106105780601f106105e557610100808354040283529160200191610610565b820191906000526020600020905b8154815290600101906020018083116105f357829003601f168201915b505050505090806007018054600181600116156101000203166002900480601f0160208091040260200160405190810160405280929190818152602001828054600181600116156101000203166002900480156106ae5780601f10610683576101008083540402835291602001916106ae565b820191906000526020600020905b81548152906001019060200180831161069157829003601f168201915b5050505050905088565b60005481565b60008082600160008681526020019081526020016000206004015403106106e857600190506106ed565b600090505b92915050565b6001600082815260200190815260200160002060000154600160008054815260200190815260200160002060000181905550600160008054815260200190815260200160002060016000838152602001908152602001600020600082015481600001556001820154816001015560028201816002019080546001816001161561010002031660029004610787929190610ab3565b50600382018160030190805460018160011615610100020316600290046107af929190610ab3565b5060048201548160040155600582018160050190805460018160011615610100020316600290046107e1929190610ab3565b5060068201816006019080546001816001161561010002031660029004610809929190610ab3565b5060078201816007019080546001816001161561010002031660029004610831929190610ab3565b5090505061083d610b3a565b6040518061010001604052806000815260200160008152602001604051806020016040528060008152508152602001604051806020016040528060008152508152602001600081526020016040518060200160405280600081525081526020016040518060200160405280600081525081526020016040518060200160405280600081525081525090508060016000805481526020019081526020016000206000820151816000015560208201518160010155604082015181600201908051906020019061090c929190610a33565b506060820151816003019080519060200190610929929190610a33565b506080820151816004015560a0820151816005019080519060200190610950929190610a33565b5060c082015181600601908051906020019061096d929190610a33565b5060e082015181600701908051906020019061098a929190610a33565b509050506000808154809291906001900391905055505050565b600081600160008581526020019081526020016000206004015403106109f8578060016000848152602001908152602001600020600401540360016000848152602001908152602001600020600401819055505b5050565b8060016000848152602001908152602001600020600401540160016000848152602001908152602001600020600401819055505050565b828054600181600116156101000203166002900490600052602060002090601f016020900481019282601f10610a7457805160ff1916838001178555610aa2565b82800160010185558215610aa2579182015b82811115610aa1578251825591602001919060010190610a86565b5b509050610aaf9190610b7f565b5090565b828054600181600116156101000203166002900490600052602060002090601f016020900481019282601f10610aec5780548555610b29565b82800160010185558215610b2957600052602060002091601f016020900482015b82811115610b28578254825591600101919060010190610b0d565b5b509050610b369190610b7f565b5090565b60405180610100016040528060008152602001600081526020016060815260200160608152602001600081526020016060815260200160608152602001606081525090565b610ba191905b80821115610b9d576000816000905550600101610b85565b5090565b90565b600082601f830112610bb557600080fd5b8135610bc8610bc382610f8a565b610f5d565b91508082526020830160208301858383011115610be457600080fd5b610bef83828461101f565b50505092915050565b600081359050610c0781611072565b92915050565b600060208284031215610c1f57600080fd5b6000610c2d84828501610bf8565b91505092915050565b600080600080600080600060e0888a031215610c5157600080fd5b6000610c5f8a828b01610bf8565b975050602088013567ffffffffffffffff811115610c7c57600080fd5b610c888a828b01610ba4565b965050604088013567ffffffffffffffff811115610ca557600080fd5b610cb18a828b01610ba4565b9550506060610cc28a828b01610bf8565b945050608088013567ffffffffffffffff811115610cdf57600080fd5b610ceb8a828b01610ba4565b93505060a088013567ffffffffffffffff811115610d0857600080fd5b610d148a828b01610ba4565b92505060c088013567ffffffffffffffff811115610d3157600080fd5b610d3d8a828b01610ba4565b91505092959891949750929550565b60008060408385031215610d5f57600080fd5b6000610d6d85828601610bf8565b9250506020610d7e85828601610bf8565b9150509250929050565b6000610d948383610e46565b60208301905092915050565b6000610dab82610fc6565b610db58185610fe9565b9350610dc083610fb6565b8060005b83811015610df1578151610dd88882610d88565b9750610de383610fdc565b925050600181019050610dc4565b5085935050505092915050565b610e078161100b565b82525050565b6000610e1882610fd1565b610e228185610ffa565b9350610e3281856020860161102e565b610e3b81611061565b840191505092915050565b610e4f81611015565b82525050565b610e5e81611015565b82525050565b60006020820190508181036000830152610e7e8184610da0565b905092915050565b6000602082019050610e9b6000830184610dfe565b92915050565b6000602082019050610eb66000830184610e55565b92915050565b600061010082019050610ed2600083018b610e55565b610edf602083018a610e55565b8181036040830152610ef18189610e0d565b90508181036060830152610f058188610e0d565b9050610f146080830187610e55565b81810360a0830152610f268186610e0d565b905081810360c0830152610f3a8185610e0d565b905081810360e0830152610f4e8184610e0d565b90509998505050505050505050565b6000604051905081810181811067ffffffffffffffff82111715610f8057600080fd5b8060405250919050565b600067ffffffffffffffff821115610fa157600080fd5b601f19601f8301169050602081019050919050565b6000819050602082019050919050565b600081519050919050565b600081519050919050565b6000602082019050919050565b600082825260208201905092915050565b600082825260208201905092915050565b6000819050919050565b6000819050919050565b82818337600083830152505050565b60005b8381101561104c578082015181840152602081019050611031565b8381111561105b576000848401525b50505050565b6000601f19601f8301169050919050565b61107b81611015565b811461108657600080fd5b5056fea365627a7a7231582069bb20f6ce4076106c3c4718e08cbbd41915bce11b6f0e65c106326bbb4809b86c6578706572696d656e74616cf564736f6c63430005100040",
  "source": "// SPDX-License-Identifier: MIT\r\npragma solidity >=0.4.22 <0.9.0;\r\npragma experimental ABIEncoderV2;\r\n\r\ncontract Proizvodi{\r\n\r\n    event smanji(bool);\r\n\r\n    struct Proizvod{\r\n        uint id;\r\n        uint idKorisnika;\r\n        string idKategorije; // idKategorije|idPotkategorije\r\n        string naziv;\r\n        uint kolicina;\r\n        string cena; // cena|jedinica\r\n        string slika; //slika|slika|slika\r\n\t    string opis;\r\n    }\r\n\r\n    uint public brojProizvoda = 0;\r\n\r\n    mapping (uint => Proizvod) public proizvodi;\r\n    mapping (uint => uint[]) proizvodiKorisnika;\r\n\r\n    function dodajProizvod(uint _idKorisnika, string memory _idKategorije, string memory _naziv, uint _kolicina, string memory _cena, string memory _slika, string memory _opis) public\r\n    {\r\n        brojProizvoda++;\r\n        proizvodi[brojProizvoda] = Proizvod(brojProizvoda, _idKorisnika, _idKategorije, _naziv, _kolicina, _cena, _slika, _opis);\r\n        proizvodiKorisnika[_idKorisnika].push(brojProizvoda);\r\n    }\r\n\r\n    function dajProizvodeZaKorisnika(uint korisnikID) view public returns(uint[] memory) {\r\n        return proizvodiKorisnika[korisnikID];\r\n    }\r\n\r\n    function izmeniKolicinu(uint _id, uint _promenaKolicine) public\r\n    {\r\n        proizvodi[_id].kolicina = proizvodi[_id].kolicina + _promenaKolicine;\r\n    }\r\n\r\n    function obrisiProizvod (uint _id) public\r\n    {\r\n        proizvodi[brojProizvoda].id = proizvodi[_id].id;\r\n        proizvodi[_id] = proizvodi[brojProizvoda];\r\n        Proizvod memory p = Proizvod(0, 0, \"\", \"\", 0, \"\", \"\", \"\");\r\n        proizvodi[brojProizvoda] = p;\r\n        brojProizvoda--;\r\n    }\r\n    \r\n    //Ako ima doboljno proizvoda na stanju skine koliko je naruceno i vrati true\r\n    //Ako nema dovoljno proizvoda na stanju samo vrati false\r\n    function smanjiPrilikomKupovine(uint _id, uint _kolicina) public {\r\n        if((proizvodi[_id].kolicina - _kolicina) >= 0) {\r\n            proizvodi[_id].kolicina = proizvodi[_id].kolicina - _kolicina;\r\n        }\r\n    }\r\n\r\n    function daLiMozeDaSeSmanji(uint _id, uint _kolicina) view public returns(int) {\r\n        if((proizvodi[_id].kolicina - _kolicina) >= 0) {\r\n            return 1;\r\n        }\r\n        return 0;        \r\n    }\r\n    \r\n}",
  "sourcePath": "C:/Users/beslac_lazar/Desktop/najnoviije/ChainTech/App/frontend/webApp/contracts/Proizvodi.sol",
  "compiler": {
    "name": "solc",
    "version": "0.5.16+commit.9c3226ce.Emscripten.clang"
  },
  "schemaVersion": "3.3.4",
  "updatedAt": "2021-05-21T01:22:54.841Z",
  "networkType": "ethereum",
  "devdoc": {
    "methods": {}
  },
  "userdoc": {
    "methods": {}
  }
}