{
  "contractName": "Proizvodi",
  "abi": [
    {
      "anonymous": false,
      "inputs": [
        {
          "indexed": false,
          "internalType": "bool",
          "name": "",
          "type": "bool"
        }
      ],
      "name": "smanji",
      "type": "event"
    },
    {
      "constant": true,
      "inputs": [],
      "name": "brojProizvoda",
      "outputs": [
        {
          "internalType": "uint256",
          "name": "",
          "type": "uint256"
        }
      ],
      "payable": false,
      "stateMutability": "view",
      "type": "function"
    },
    {
      "constant": true,
      "inputs": [
        {
          "internalType": "uint256",
          "name": "",
          "type": "uint256"
        }
      ],
      "name": "proizvodi",
      "outputs": [
        {
          "internalType": "uint256",
          "name": "id",
          "type": "uint256"
        },
        {
          "internalType": "uint256",
          "name": "idKorisnika",
          "type": "uint256"
        },
        {
          "internalType": "string",
          "name": "idKategorije",
          "type": "string"
        },
        {
          "internalType": "string",
          "name": "naziv",
          "type": "string"
        },
        {
          "internalType": "uint256",
          "name": "kolicina",
          "type": "uint256"
        },
        {
          "internalType": "string",
          "name": "cena",
          "type": "string"
        },
        {
          "internalType": "string",
          "name": "slika",
          "type": "string"
        },
        {
          "internalType": "string",
          "name": "opis",
          "type": "string"
        }
      ],
      "payable": false,
      "stateMutability": "view",
      "type": "function"
    },
    {
      "constant": false,
      "inputs": [
        {
          "internalType": "uint256",
          "name": "_idKorisnika",
          "type": "uint256"
        },
        {
          "internalType": "string",
          "name": "_idKategorije",
          "type": "string"
        },
        {
          "internalType": "string",
          "name": "_naziv",
          "type": "string"
        },
        {
          "internalType": "uint256",
          "name": "_kolicina",
          "type": "uint256"
        },
        {
          "internalType": "string",
          "name": "_cena",
          "type": "string"
        },
        {
          "internalType": "string",
          "name": "_slika",
          "type": "string"
        },
        {
          "internalType": "string",
          "name": "_opis",
          "type": "string"
        }
      ],
      "name": "dodajProizvod",
      "outputs": [],
      "payable": false,
      "stateMutability": "nonpayable",
      "type": "function"
    },
    {
      "constant": true,
      "inputs": [
        {
          "internalType": "uint256",
          "name": "korisnikID",
          "type": "uint256"
        }
      ],
      "name": "dajProizvodeZaKorisnika",
      "outputs": [
        {
          "internalType": "uint256[]",
          "name": "",
          "type": "uint256[]"
        }
      ],
      "payable": false,
      "stateMutability": "view",
      "type": "function"
    },
    {
      "constant": false,
      "inputs": [
        {
          "internalType": "uint256",
          "name": "_id",
          "type": "uint256"
        },
        {
          "internalType": "uint256",
          "name": "_promenaKolicine",
          "type": "uint256"
        }
      ],
      "name": "izmeniKolicinu",
      "outputs": [],
      "payable": false,
      "stateMutability": "nonpayable",
      "type": "function"
    },
    {
      "constant": false,
      "inputs": [
        {
          "internalType": "uint256",
          "name": "_id",
          "type": "uint256"
        }
      ],
      "name": "obrisiProizvod",
      "outputs": [],
      "payable": false,
      "stateMutability": "nonpayable",
      "type": "function"
    },
    {
      "constant": false,
      "inputs": [
        {
          "internalType": "uint256",
          "name": "_id",
          "type": "uint256"
        },
        {
          "internalType": "uint256",
          "name": "_kolicina",
          "type": "uint256"
        }
      ],
      "name": "smanjiPrilikomKupovine",
      "outputs": [],
      "payable": false,
      "stateMutability": "nonpayable",
      "type": "function"
    }
  ],
  "bytecode": "0x60806040526000805534801561001457600080fd5b5061109f806100246000396000f3fe608060405234801561001057600080fd5b506004361061007d5760003560e01c806398f19cd01161005b57806398f19cd014610105578063b85f706e14610123578063decc00461461013f578063e610e3d31461015b5761007d565b80633ddd031614610082578063831aa15d146100b257806386d318c6146100ce575b600080fd5b61009c60048036036100979190810190610bde565b610177565b6040516100a99190610e35565b60405180910390f35b6100cc60048036036100c79190810190610c07565b6101e2565b005b6100e860048036036100e39190810190610bde565b61033d565b6040516100fc989796959493929190610e8d565b60405180910390f35b61010d61067d565b60405161011a9190610e72565b60405180910390f35b61013d60048036036101389190810190610bde565b610683565b005b61015960048036036101549190810190610d1d565b610934565b005b61017560048036036101709190810190610d1d565b6109cd565b005b6060600260008381526020019081526020016000208054806020026020016040519081016040528092919081815260200182805480156101d657602002820191906000526020600020905b8154815260200190600101908083116101c2575b50505050509050919050565b6000808154809291906001019190505550604051806101000160405280600054815260200188815260200187815260200186815260200185815260200184815260200183815260200182815250600160008054815260200190815260200160002060008201518160000155602082015181600101556040820151816002019080519060200190610273929190610a04565b506060820151816003019080519060200190610290929190610a04565b506080820151816004015560a08201518160050190805190602001906102b7929190610a04565b5060c08201518160060190805190602001906102d4929190610a04565b5060e08201518160070190805190602001906102f1929190610a04565b5090505060026000888152602001908152602001600020600054908060018154018082558091505090600182039060005260206000200160009091929091909150555050505050505050565b6001602052806000526040600020600091509050806000015490806001015490806002018054600181600116156101000203166002900480601f0160208091040260200160405190810160405280929190818152602001828054600181600116156101000203166002900480156103f55780601f106103ca576101008083540402835291602001916103f5565b820191906000526020600020905b8154815290600101906020018083116103d857829003601f168201915b505050505090806003018054600181600116156101000203166002900480601f0160208091040260200160405190810160405280929190818152602001828054600181600116156101000203166002900480156104935780601f1061046857610100808354040283529160200191610493565b820191906000526020600020905b81548152906001019060200180831161047657829003601f168201915b505050505090806004015490806005018054600181600116156101000203166002900480601f0160208091040260200160405190810160405280929190818152602001828054600181600116156101000203166002900480156105375780601f1061050c57610100808354040283529160200191610537565b820191906000526020600020905b81548152906001019060200180831161051a57829003601f168201915b505050505090806006018054600181600116156101000203166002900480601f0160208091040260200160405190810160405280929190818152602001828054600181600116156101000203166002900480156105d55780601f106105aa576101008083540402835291602001916105d5565b820191906000526020600020905b8154815290600101906020018083116105b857829003601f168201915b505050505090806007018054600181600116156101000203166002900480601f0160208091040260200160405190810160405280929190818152602001828054600181600116156101000203166002900480156106735780601f1061064857610100808354040283529160200191610673565b820191906000526020600020905b81548152906001019060200180831161065657829003601f168201915b5050505050905088565b60005481565b6001600082815260200190815260200160002060000154600160008054815260200190815260200160002060000181905550600160008054815260200190815260200160002060016000838152602001908152602001600020600082015481600001556001820154816001015560028201816002019080546001816001161561010002031660029004610717929190610a84565b506003820181600301908054600181600116156101000203166002900461073f929190610a84565b506004820154816004015560058201816005019080546001816001161561010002031660029004610771929190610a84565b5060068201816006019080546001816001161561010002031660029004610799929190610a84565b50600782018160070190805460018160011615610100020316600290046107c1929190610a84565b509050506107cd610b0b565b6040518061010001604052806000815260200160008152602001604051806020016040528060008152508152602001604051806020016040528060008152508152602001600081526020016040518060200160405280600081525081526020016040518060200160405280600081525081526020016040518060200160405280600081525081525090508060016000805481526020019081526020016000206000820151816000015560208201518160010155604082015181600201908051906020019061089c929190610a04565b5060608201518160030190805190602001906108b9929190610a04565b506080820151816004015560a08201518160050190805190602001906108e0929190610a04565b5060c08201518160060190805190602001906108fd929190610a04565b5060e082015181600701908051906020019061091a929190610a04565b509050506000808154809291906001900391905055505050565b60008090506000826001600086815260200190815260200160002060040154031061099157816001600085815260200190815260200160002060040154036001600085815260200190815260200160002060040181905550600190505b7f373e1f4cbd5f98a1f8ec9a62f1cc5f14d1bb04f571487e31da59ff02ed3811e1816040516109c09190610e57565b60405180910390a1505050565b8060016000848152602001908152602001600020600401540160016000848152602001908152602001600020600401819055505050565b828054600181600116156101000203166002900490600052602060002090601f016020900481019282601f10610a4557805160ff1916838001178555610a73565b82800160010185558215610a73579182015b82811115610a72578251825591602001919060010190610a57565b5b509050610a809190610b50565b5090565b828054600181600116156101000203166002900490600052602060002090601f016020900481019282601f10610abd5780548555610afa565b82800160010185558215610afa57600052602060002091601f016020900482015b82811115610af9578254825591600101919060010190610ade565b5b509050610b079190610b50565b5090565b60405180610100016040528060008152602001600081526020016060815260200160608152602001600081526020016060815260200160608152602001606081525090565b610b7291905b80821115610b6e576000816000905550600101610b56565b5090565b90565b600082601f830112610b8657600080fd5b8135610b99610b9482610f5b565b610f2e565b91508082526020830160208301858383011115610bb557600080fd5b610bc0838284610ff2565b50505092915050565b600081359050610bd881611045565b92915050565b600060208284031215610bf057600080fd5b6000610bfe84828501610bc9565b91505092915050565b600080600080600080600060e0888a031215610c2257600080fd5b6000610c308a828b01610bc9565b975050602088013567ffffffffffffffff811115610c4d57600080fd5b610c598a828b01610b75565b965050604088013567ffffffffffffffff811115610c7657600080fd5b610c828a828b01610b75565b9550506060610c938a828b01610bc9565b945050608088013567ffffffffffffffff811115610cb057600080fd5b610cbc8a828b01610b75565b93505060a088013567ffffffffffffffff811115610cd957600080fd5b610ce58a828b01610b75565b92505060c088013567ffffffffffffffff811115610d0257600080fd5b610d0e8a828b01610b75565b91505092959891949750929550565b60008060408385031215610d3057600080fd5b6000610d3e85828601610bc9565b9250506020610d4f85828601610bc9565b9150509250929050565b6000610d658383610e17565b60208301905092915050565b6000610d7c82610f97565b610d868185610fba565b9350610d9183610f87565b8060005b83811015610dc2578151610da98882610d59565b9750610db483610fad565b925050600181019050610d95565b5085935050505092915050565b610dd881610fdc565b82525050565b6000610de982610fa2565b610df38185610fcb565b9350610e03818560208601611001565b610e0c81611034565b840191505092915050565b610e2081610fe8565b82525050565b610e2f81610fe8565b82525050565b60006020820190508181036000830152610e4f8184610d71565b905092915050565b6000602082019050610e6c6000830184610dcf565b92915050565b6000602082019050610e876000830184610e26565b92915050565b600061010082019050610ea3600083018b610e26565b610eb0602083018a610e26565b8181036040830152610ec28189610dde565b90508181036060830152610ed68188610dde565b9050610ee56080830187610e26565b81810360a0830152610ef78186610dde565b905081810360c0830152610f0b8185610dde565b905081810360e0830152610f1f8184610dde565b90509998505050505050505050565b6000604051905081810181811067ffffffffffffffff82111715610f5157600080fd5b8060405250919050565b600067ffffffffffffffff821115610f7257600080fd5b601f19601f8301169050602081019050919050565b6000819050602082019050919050565b600081519050919050565b600081519050919050565b6000602082019050919050565b600082825260208201905092915050565b600082825260208201905092915050565b60008115159050919050565b6000819050919050565b82818337600083830152505050565b60005b8381101561101f578082015181840152602081019050611004565b8381111561102e576000848401525b50505050565b6000601f19601f8301169050919050565b61104e81610fe8565b811461105957600080fd5b5056fea365627a7a7231582053f173eab60b80872b53c6433f9bc5955810cf06fe10d147712d28c66a15f8886c6578706572696d656e74616cf564736f6c63430005100040",
  "source": "// SPDX-License-Identifier: MIT\r\npragma solidity >=0.4.22 <0.9.0;\r\npragma experimental ABIEncoderV2;\r\n\r\ncontract Proizvodi{\r\n\r\n    event smanji(bool);\r\n\r\n    struct Proizvod{\r\n        uint id;\r\n        uint idKorisnika;\r\n        string idKategorije; // idKategorije|idPotkategorije\r\n        string naziv;\r\n        uint kolicina;\r\n        string cena; // cena|jedinica\r\n        string slika; //slika|slika|slika\r\n\t    string opis;\r\n    }\r\n\r\n    uint public brojProizvoda = 0;\r\n\r\n    mapping (uint => Proizvod) public proizvodi;\r\n    mapping (uint => uint[]) proizvodiKorisnika;\r\n\r\n    function dodajProizvod(uint _idKorisnika, string memory _idKategorije, string memory _naziv, uint _kolicina, string memory _cena, string memory _slika, string memory _opis) public\r\n    {\r\n        brojProizvoda++;\r\n        proizvodi[brojProizvoda] = Proizvod(brojProizvoda, _idKorisnika, _idKategorije, _naziv, _kolicina, _cena, _slika, _opis);\r\n        proizvodiKorisnika[_idKorisnika].push(brojProizvoda);\r\n    }\r\n\r\n    function dajProizvodeZaKorisnika(uint korisnikID) view public returns(uint[] memory) {\r\n        return proizvodiKorisnika[korisnikID];\r\n    }\r\n\r\n    function izmeniKolicinu(uint _id, uint _promenaKolicine) public\r\n    {\r\n        proizvodi[_id].kolicina = proizvodi[_id].kolicina + _promenaKolicine;\r\n    }\r\n\r\n    function obrisiProizvod (uint _id) public\r\n    {\r\n        proizvodi[brojProizvoda].id = proizvodi[_id].id;\r\n        proizvodi[_id] = proizvodi[brojProizvoda];\r\n        Proizvod memory p = Proizvod(0, 0, \"\", \"\", 0, \"\", \"\", \"\");\r\n        proizvodi[brojProizvoda] = p;\r\n        brojProizvoda--;\r\n    }\r\n    \r\n    //Ako ima doboljno proizvoda na stanju skine koliko je naruceno i vrati true\r\n    //Ako nema dovoljno proizvoda na stanju samo vrati false\r\n    function smanjiPrilikomKupovine(uint _id, uint _kolicina) public {\r\n        bool moguce = false;\r\n        if(proizvodi[_id].kolicina - _kolicina >= 0) {\r\n            proizvodi[_id].kolicina = proizvodi[_id].kolicina - _kolicina;\r\n            moguce = true;\r\n        }\r\n        \r\n        emit smanji(moguce);\r\n    }\r\n    \r\n}",
  "sourcePath": "C:/Users/beslac_lazar/Desktop/najnoviije/ChainTech/App/frontend/webApp/contracts/Proizvodi.sol",
  "compiler": {
    "name": "solc",
    "version": "0.5.16+commit.9c3226ce.Emscripten.clang"
  },
  "schemaVersion": "3.3.4",
  "updatedAt": "2021-05-20T17:17:19.212Z",
  "networkType": "ethereum",
  "devdoc": {
    "methods": {}
  },
  "userdoc": {
    "methods": {}
  }
}