{
  "contractName": "TodoList",
  "abi": [
    {
      "constant": true,
      "inputs": [],
      "name": "taskCount",
      "outputs": [
        {
          "internalType": "uint256",
          "name": "",
          "type": "uint256"
        }
      ],
      "payable": false,
      "stateMutability": "view",
      "type": "function"
    },
    {
      "constant": true,
      "inputs": [
        {
          "internalType": "uint256",
          "name": "",
          "type": "uint256"
        }
      ],
      "name": "tasks",
      "outputs": [
        {
          "internalType": "uint256",
          "name": "id",
          "type": "uint256"
        },
        {
          "internalType": "string",
          "name": "content",
          "type": "string"
        },
        {
          "internalType": "bool",
          "name": "completed",
          "type": "bool"
        }
      ],
      "payable": false,
      "stateMutability": "view",
      "type": "function"
    },
    {
      "constant": false,
      "inputs": [
        {
          "internalType": "string",
          "name": "_content",
          "type": "string"
        }
      ],
      "name": "createTask",
      "outputs": [],
      "payable": false,
      "stateMutability": "nonpayable",
      "type": "function"
    }
  ],
  "bytecode": "0x60806040526000805534801561001457600080fd5b50610419806100246000396000f3fe608060405234801561001057600080fd5b50600436106100415760003560e01c8063111002aa146100465780638d97767214610101578063b6cb58a5146101ba575b600080fd5b6100ff6004803603602081101561005c57600080fd5b810190808035906020019064010000000081111561007957600080fd5b82018360208201111561008b57600080fd5b803590602001918460018302840111640100000000831117156100ad57600080fd5b91908080601f016020809104026020016040519081016040528093929190818152602001838380828437600081840152601f19601f8201169050808301925050505050505091929192905050506101d8565b005b61012d6004803603602081101561011757600080fd5b810190808035906020019092919050505061026a565b604051808481526020018060200183151515158152602001828103825284818151815260200191508051906020019080838360005b8381101561017d578082015181840152602081019050610162565b50505050905090810190601f1680156101aa5780820380516001836020036101000a031916815260200191505b5094505050505060405180910390f35b6101c2610339565b6040518082815260200191505060405180910390f35b60008081548092919060010191905055506040518060600160405280600054815260200182815260200160001515815250600160008054815260200190815260200160002060008201518160000155602082015181600101908051906020019061024392919061033f565b5060408201518160020160006101000a81548160ff02191690831515021790555090505050565b6001602052806000526040600020600091509050806000015490806001018054600181600116156101000203166002900480601f01602080910402602001604051908101604052809291908181526020018280546001816001161561010002031660029004801561031c5780601f106102f15761010080835404028352916020019161031c565b820191906000526020600020905b8154815290600101906020018083116102ff57829003601f168201915b5050505050908060020160009054906101000a900460ff16905083565b60005481565b828054600181600116156101000203166002900490600052602060002090601f016020900481019282601f1061038057805160ff19168380011785556103ae565b828001600101855582156103ae579182015b828111156103ad578251825591602001919060010190610392565b5b5090506103bb91906103bf565b5090565b6103e191905b808211156103dd5760008160009055506001016103c5565b5090565b9056fea265627a7a7231582052c1b996b2ab0be5e8fa28396f86209149cf1a1949f6a0b56883fa13a93cb3fb64736f6c63430005100032",
  "source": "// SPDX-License-Identifier: MIT\r\npragma solidity >=0.4.17 <0.9.0;\r\n\r\ncontract TodoList{\r\n    //Da bi mogli da procitamo vrednost ove promenljive moramo da stavimo public\r\n    uint public taskCount = 0;\r\n\r\n    //Ova struktura predstavlja model(kao za bazu)\r\n    struct Task{\r\n        //Ovo ce da bude neka forma gde ce moci da se unese opis za todo listu\r\n        //i da se cekira kada se odradi\r\n        uint id;\r\n        string content; // text\r\n        bool completed; // chackbox\r\n    }\r\n    \r\n    //U Solidity-ju ne postoji vise vidljivost za konstruktor\r\n    /*constructor(){\r\n        createTask(\"Nauciti Ethereum\");\r\n    }*/\r\n\r\n    //mapping je kao neka vrsta niza\r\n    //ovo ce za nas predstavljati bazu podataka gde je tabela Task\r\n    mapping(uint => Task) public tasks;\r\n\r\n    //ova f-ja ce da dodaje nove stvari u memoriju\r\n    //tasks nam predstavlja listu svih stvari u bazi i svakom elementu se pristupa preko njegovog id-a\r\n    function createTask(string memory _content) public{\r\n        taskCount ++;\r\n        tasks[taskCount] = Task(taskCount, _content, false);\r\n    }\r\n}",
  "sourcePath": "D:/FAKULTET/Softversko inzenjerstvo/Vezbanje/Flutter/povezivanje/povezivanje/contracts/TodoList.sol",
  "compiler": {
    "name": "solc",
    "version": "0.5.16+commit.9c3226ce.Emscripten.clang"
  },
  "schemaVersion": "3.3.4",
  "updatedAt": "2021-03-09T21:26:26.491Z",
  "networkType": "ethereum",
  "devdoc": {
    "methods": {}
  },
  "userdoc": {
    "methods": {}
  }
}