{
    "contractName": "Predmeti",
    "abi": [
        {
            "inputs": [
                {
                    "internalType": "string",
                    "name": "_naziv",
                    "type": "string"
                }
            ],
            "name": "createPredmet",
            "outputs": [],
            "stateMutability": "nonpayable",
            "type": "function"
        },
        {
            "inputs": [],
            "name": "taskCount",
            "outputs": [
                {
                    "internalType": "uint256",
                    "name": "",
                    "type": "uint256"
                }
            ],
            "stateMutability": "view",
            "type": "function"
        },
        {
            "inputs": [
                {
                    "internalType": "uint256",
                    "name": "",
                    "type": "uint256"
                }
            ],
            "name": "tasks",
            "outputs": [
                {
                    "internalType": "uint256",
                    "name": "id",
                    "type": "uint256"
                },
                {
                    "internalType": "string",
                    "name": "naziv",
                    "type": "string"
                }
            ],
            "stateMutability": "view",
            "type": "function"
        }
    ],
    "bytecode": "60806040526000805534801561001457600080fd5b50610373806100246000396000f3fe608060405234801561001057600080fd5b50600436106100415760003560e01c80634764f2b5146100465780638d977672146100ee578063b6cb58a51461018a575b600080fd5b6100ec6004803603602081101561005c57600080fd5b81019060208101813564010000000081111561007757600080fd5b82018360208201111561008957600080fd5b803590602001918460018302840111640100000000831117156100ab57600080fd5b91908080601f0160208091040260200160405190810160405280939291908181526020018383808284376000920191909152509295506101a4945050505050565b005b61010b6004803603602081101561010457600080fd5b50356101f0565b6040518083815260200180602001828103825283818151815260200191508051906020019080838360005b8381101561014e578181015183820152602001610136565b50505050905090810190601f16801561017b5780820380516001836020036101000a031916815260200191505b50935050505060405180910390f35b610192610296565b60408051918252519081900360200190f35b600080546001908101808355604080518082018252828152602080820187815293865284815291909420845181559151805192936101ea9390850192919091019061029c565b50505050565b600160208181526000928352604092839020805481840180548651600296821615610100026000190190911695909504601f8101859004850286018501909652858552909491939290919083018282801561028c5780601f106102615761010080835404028352916020019161028c565b820191906000526020600020905b81548152906001019060200180831161026f57829003601f168201915b5050505050905082565b60005481565b828054600181600116156101000203166002900490600052602060002090601f0160209004810192826102d25760008555610318565b82601f106102eb57805160ff1916838001178555610318565b82800160010185558215610318579182015b828111156103185782518255916020019190600101906102fd565b50610324929150610328565b5090565b5b80821115610324576000815560010161032956fea2646970667358221220e7b33a19d0bb7cd66b3ed106df3d14e9e9047a4ad8ec908128009f5d78a6043b64736f6c63430007040033",
    "sourcePath": "c:/Users/KristinaBojovic/Desktop/ethereum/contracts/predmeti.sol",
    "compiler": {
        "name": "solc",
        "version": "0.7.4+commit.3f05b770"
    },
    "functionHashes": {
        "createPredmet(string)": "4764f2b5",
        "taskCount()": "b6cb58a5",
        "tasks(uint256)": "8d977672"
    },
    "gasEstimates": {
        "creation": {
            "codeDepositCost": "176600",
            "executionCost": "5226",
            "totalCost": "181826"
        },
        "external": {
            "createPredmet(string)": "infinite",
            "taskCount()": "1020",
            "tasks(uint256)": "infinite"
        }
    }
}